{
  "_format": "hh-sol-artifact-1",
  "contractName": "BaselineMinimal",
  "sourceName": "contracts/BaselineMinimal.sol",
  "abi": [
    {
      "inputs": [
        {
          "internalType": "address",
          "name": "_factory",
          "type": "address"
        },
        {
          "internalType": "address",
          "name": "_positionManager",
          "type": "address"
        },
        {
          "internalType": "address",
          "name": "_swapRouter",
          "type": "address"
        },
        {
          "internalType": "address",
          "name": "_token0",
          "type": "address"
        },
        {
          "internalType": "address",
          "name": "_token1",
          "type": "address"
        },
        {
          "internalType": "uint24",
          "name": "_fee",
          "type": "uint24"
        }
      ],
      "stateMutability": "nonpayable",
      "type": "constructor"
    },
    {
      "anonymous": false,
      "inputs": [
        {
          "indexed": false,
          "internalType": "uint256",
          "name": "timestamp",
          "type": "uint256"
        },
        {
          "indexed": false,
          "internalType": "uint160",
          "name": "sqrtPriceX96",
          "type": "uint160"
        },
        {
          "indexed": false,
          "internalType": "int24",
          "name": "currentTick",
          "type": "int24"
        },
        {
          "indexed": false,
          "internalType": "int24",
          "name": "targetTickLower",
          "type": "int24"
        },
        {
          "indexed": false,
          "internalType": "int24",
          "name": "targetTickUpper",
          "type": "int24"
        },
        {
          "indexed": false,
          "internalType": "bool",
          "name": "adjusted",
          "type": "bool"
        }
      ],
      "name": "BaselineAdjustmentMetrics",
      "type": "event"
    },
    {
      "anonymous": false,
      "inputs": [
        {
          "indexed": true,
          "internalType": "address",
          "name": "previousOwner",
          "type": "address"
        },
        {
          "indexed": true,
          "internalType": "address",
          "name": "newOwner",
          "type": "address"
        }
      ],
      "name": "OwnershipTransferred",
      "type": "event"
    },
    {
      "anonymous": false,
      "inputs": [
        {
          "indexed": true,
          "internalType": "uint256",
          "name": "tokenId",
          "type": "uint256"
        },
        {
          "indexed": false,
          "internalType": "uint128",
          "name": "liquidity",
          "type": "uint128"
        },
        {
          "indexed": false,
          "internalType": "int24",
          "name": "tickLower",
          "type": "int24"
        },
        {
          "indexed": false,
          "internalType": "int24",
          "name": "tickUpper",
          "type": "int24"
        },
        {
          "indexed": false,
          "internalType": "uint256",
          "name": "amount0Actual",
          "type": "uint256"
        },
        {
          "indexed": false,
          "internalType": "uint256",
          "name": "amount1Actual",
          "type": "uint256"
        }
      ],
      "name": "PositionMinted",
      "type": "event"
    },
    {
      "anonymous": false,
      "inputs": [
        {
          "indexed": true,
          "internalType": "uint256",
          "name": "tokenId",
          "type": "uint256"
        },
        {
          "indexed": false,
          "internalType": "bool",
          "name": "hasPosition",
          "type": "bool"
        },
        {
          "indexed": false,
          "internalType": "int24",
          "name": "lowerTick",
          "type": "int24"
        },
        {
          "indexed": false,
          "internalType": "int24",
          "name": "upperTick",
          "type": "int24"
        },
        {
          "indexed": false,
          "internalType": "uint128",
          "name": "liquidity",
          "type": "uint128"
        }
      ],
      "name": "PositionStateChanged",
      "type": "event"
    },
    {
      "anonymous": false,
      "inputs": [
        {
          "indexed": false,
          "internalType": "uint256",
          "name": "amountIn",
          "type": "uint256"
        },
        {
          "indexed": false,
          "internalType": "uint256",
          "name": "amountOut",
          "type": "uint256"
        }
      ],
      "name": "TokensSwapped",
      "type": "event"
    },
    {
      "inputs": [],
      "name": "adjustLiquidityWithCurrentPrice",
      "outputs": [],
      "stateMutability": "nonpayable",
      "type": "function"
    },
    {
      "inputs": [],
      "name": "currentLiquidity",
      "outputs": [
        {
          "internalType": "uint128",
          "name": "",
          "type": "uint128"
        }
      ],
      "stateMutability": "view",
      "type": "function"
    },
    {
      "inputs": [],
      "name": "currentTokenId",
      "outputs": [
        {
          "internalType": "uint256",
          "name": "",
          "type": "uint256"
        }
      ],
      "stateMutability": "view",
      "type": "function"
    },
    {
      "inputs": [],
      "name": "factory",
      "outputs": [
        {
          "internalType": "contract IUniswapV3Factory",
          "name": "",
          "type": "address"
        }
      ],
      "stateMutability": "view",
      "type": "function"
    },
    {
      "inputs": [],
      "name": "fee",
      "outputs": [
        {
          "internalType": "uint24",
          "name": "",
          "type": "uint24"
        }
      ],
      "stateMutability": "view",
      "type": "function"
    },
    {
      "inputs": [],
      "name": "getCurrentPosition",
      "outputs": [
        {
          "internalType": "uint256",
          "name": "tokenId",
          "type": "uint256"
        },
        {
          "internalType": "bool",
          "name": "active",
          "type": "bool"
        },
        {
          "internalType": "int24",
          "name": "tickLower",
          "type": "int24"
        },
        {
          "internalType": "int24",
          "name": "tickUpper",
          "type": "int24"
        },
        {
          "internalType": "uint128",
          "name": "liquidity",
          "type": "uint128"
        }
      ],
      "stateMutability": "view",
      "type": "function"
    },
    {
      "inputs": [],
      "name": "hasPosition",
      "outputs": [
        {
          "internalType": "bool",
          "name": "",
          "type": "bool"
        }
      ],
      "stateMutability": "view",
      "type": "function"
    },
    {
      "inputs": [],
      "name": "lowerTick",
      "outputs": [
        {
          "internalType": "int24",
          "name": "",
          "type": "int24"
        }
      ],
      "stateMutability": "view",
      "type": "function"
    },
    {
      "inputs": [],
      "name": "owner",
      "outputs": [
        {
          "internalType": "address",
          "name": "",
          "type": "address"
        }
      ],
      "stateMutability": "view",
      "type": "function"
    },
    {
      "inputs": [],
      "name": "positionManager",
      "outputs": [
        {
          "internalType": "contract INonfungiblePositionManager",
          "name": "",
          "type": "address"
        }
      ],
      "stateMutability": "view",
      "type": "function"
    },
    {
      "inputs": [],
      "name": "renounceOwnership",
      "outputs": [],
      "stateMutability": "nonpayable",
      "type": "function"
    },
    {
      "inputs": [],
      "name": "rescueETH",
      "outputs": [],
      "stateMutability": "nonpayable",
      "type": "function"
    },
    {
      "inputs": [
        {
          "internalType": "address",
          "name": "token",
          "type": "address"
        },
        {
          "internalType": "address",
          "name": "to",
          "type": "address"
        }
      ],
      "name": "rescueTokens",
      "outputs": [],
      "stateMutability": "nonpayable",
      "type": "function"
    },
    {
      "inputs": [
        {
          "internalType": "uint256",
          "name": "amount",
          "type": "uint256"
        }
      ],
      "name": "rescueWETH",
      "outputs": [],
      "stateMutability": "nonpayable",
      "type": "function"
    },
    {
      "inputs": [],
      "name": "swapRouter",
      "outputs": [
        {
          "internalType": "contract ISwapRouter",
          "name": "",
          "type": "address"
        }
      ],
      "stateMutability": "view",
      "type": "function"
    },
    {
      "inputs": [],
      "name": "tickSpacing",
      "outputs": [
        {
          "internalType": "int24",
          "name": "",
          "type": "int24"
        }
      ],
      "stateMutability": "view",
      "type": "function"
    },
    {
      "inputs": [],
      "name": "token0",
      "outputs": [
        {
          "internalType": "address",
          "name": "",
          "type": "address"
        }
      ],
      "stateMutability": "view",
      "type": "function"
    },
    {
      "inputs": [],
      "name": "token1",
      "outputs": [
        {
          "internalType": "address",
          "name": "",
          "type": "address"
        }
      ],
      "stateMutability": "view",
      "type": "function"
    },
    {
      "inputs": [
        {
          "internalType": "address",
          "name": "newOwner",
          "type": "address"
        }
      ],
      "name": "transferOwnership",
      "outputs": [],
      "stateMutability": "nonpayable",
      "type": "function"
    },
    {
      "inputs": [],
      "name": "upperTick",
      "outputs": [
        {
          "internalType": "int24",
          "name": "",
          "type": "int24"
        }
      ],
      "stateMutability": "view",
      "type": "function"
    },
    {
      "stateMutability": "payable",
      "type": "receive"
    }
  ],
  "bytecode": "0x6101006040523480156200001257600080fd5b5060405162002c2238038062002c2283398101604081905262000035916200061e565b600062000041620005d9565b600080546001600160a01b0319166001600160a01b0383169081178255604051929350917f8be0079c531659141344cd1fd0a4f28419497f9722a3daafe3b4186f6b6457e0908290a3506001600160a01b038616620000bd5760405162461bcd60e51b8152600401620000b4906200072e565b60405180910390fd5b6001600160a01b038516620000e65760405162461bcd60e51b8152600401620000b490620008a3565b6001600160a01b0384166200010f5760405162461bcd60e51b8152600401620000b49062000844565b6001600160a01b038316620001385760405162461bcd60e51b8152600401620000b4906200087b565b6001600160a01b038216620001615760405162461bcd60e51b8152600401620000b490620008da565b816001600160a01b0316836001600160a01b03161415620001965760405162461bcd60e51b8152600401620000b490620007d6565b60008162ffffff1611620001be5760405162461bcd60e51b8152600401620000b490620007b1565b6001600160601b0319606087811b8216608052600180546001600160a01b038981166001600160a01b03199283161790925560028054898416921691909117905585821b831660a0529084901b90911660c0526001600160e81b031960e883901b1660e052604051630b4c774160e11b8152600091881690631698ee82906200025090879087908790600401620006ed565b60206040518083038186803b1580156200026957600080fd5b505afa1580156200027e573d6000803e3d6000fd5b505050506040513d601f19601f82011682018060405250810190620002a49190620005fa565b90506001600160a01b038116620002cf5760405162461bcd60e51b8152600401620000b49062000765565b806001600160a01b031663d0c93a7c6040518163ffffffff1660e01b815260040160206040518083038186803b1580156200030957600080fd5b505afa1580156200031e573d6000803e3d6000fd5b505050506040513d601f19601f82011682018060405250810190620003449190620006ca565b6002805462ffffff60a01b1916600160a01b62ffffff93830b939093168302178082556000929004810b900b13620003905760405162461bcd60e51b8152600401620000b4906200080d565b60015460405163095ea7b360e01b81526001600160a01b038681169263095ea7b392620003c892909116906000199060040162000715565b602060405180830381600087803b158015620003e357600080fd5b505af1158015620003f8573d6000803e3d6000fd5b505050506040513d601f19601f820116820180604052508101906200041e9190620006a8565b5060015460405163095ea7b360e01b81526001600160a01b038581169263095ea7b3926200045792909116906000199060040162000715565b602060405180830381600087803b1580156200047257600080fd5b505af115801562000487573d6000803e3d6000fd5b505050506040513d601f19601f82011682018060405250810190620004ad9190620006a8565b5060025460405163095ea7b360e01b81526001600160a01b038681169263095ea7b392620004e692909116906000199060040162000715565b602060405180830381600087803b1580156200050157600080fd5b505af115801562000516573d6000803e3d6000fd5b505050506040513d601f19601f820116820180604052508101906200053c9190620006a8565b5060025460405163095ea7b360e01b81526001600160a01b038581169263095ea7b3926200057592909116906000199060040162000715565b602060405180830381600087803b1580156200059057600080fd5b505af1158015620005a5573d6000803e3d6000fd5b505050506040513d601f19601f82011682018060405250810190620005cb9190620006a8565b505050505050505062000902565b3390565b80516001600160a01b0381168114620005f557600080fd5b919050565b6000602082840312156200060c578081fd5b6200061782620005dd565b9392505050565b60008060008060008060c0878903121562000637578182fd5b6200064287620005dd565b95506200065260208801620005dd565b94506200066260408801620005dd565b93506200067260608801620005dd565b92506200068260808801620005dd565b915060a087015162ffffff811681146200069a578182fd5b809150509295509295509295565b600060208284031215620006ba578081fd5b8151801515811462000617578182fd5b600060208284031215620006dc578081fd5b81518060020b811462000617578182fd5b6001600160a01b03938416815291909216602082015262ffffff909116604082015260600190565b6001600160a01b03929092168252602082015260400190565b60208082526017908201527f496e76616c696420666163746f72792061646472657373000000000000000000604082015260600190565b6020808252602c908201527f506f6f6c20646f6573206e6f7420657869737420666f7220737065636966696560408201526b6420746f6b656e732f66656560a01b606082015260800190565b6020808252600b908201526a496e76616c69642066656560a81b604082015260600190565b60208082526018908201527f546f6b656e73206d75737420626520646966666572656e740000000000000000604082015260600190565b6020808252601e908201527f496e76616c6964207469636b2073706163696e672066726f6d20706f6f6c0000604082015260600190565b60208082526013908201527f496e76616c6964207377617020726f7574657200000000000000000000000000604082015260600190565b6020808252600e908201526d0496e76616c696420746f6b656e360941b604082015260600190565b60208082526018908201527f496e76616c696420706f736974696f6e206d616e616765720000000000000000604082015260600190565b6020808252600e908201526d496e76616c696420746f6b656e3160901b604082015260600190565b60805160601c60a05160601c60c05160601c60e05160e81c6122986200098a6000398061048b528061061b5280610f2852806114a752508061015252806101de52806105f95280610e085280610f04528061138e528061147f5250806101ff52806105d7528061099a5280611303528061145a5250806105aa5280610d4d52506122986000f3fe6080604052600436106101225760003560e01c8063791b98bc116100a0578063c853c4bc11610064578063c853c4bc146103d9578063d0c93a7c146103f9578063d21220a71461040e578063ddca3f4314610423578063f2fde38b1461044557610231565b8063791b98bc146103705780638da5cb5b146103855780639b1344ac1461039a578063c31c9c07146103af578063c45a0155146103c457610231565b80635431c94e116100e75780635431c94e146102e257806362ca577214610302578063715018a614610317578063727dd2281461032c57806375a6a7a91461034e57610231565b80629a9b7b146102365780630dfe16811461026157806320800a0014610283578063418f35cc1461029a57806346caf2ae146102c057610231565b3661023157600034116101505760405162461bcd60e51b815260040161014790611e38565b60405180910390fd5b7f00000000000000000000000000000000000000000000000000000000000000006001600160a01b031663d0e30db0346040518263ffffffff1660e01b81526004016000604051808303818588803b1580156101ab57600080fd5b505af11580156101bf573d6000803e3d6000fd5b50505050506000600234816101d057fe5b0490508015610226576102247f00000000000000000000000000000000000000000000000000000000000000007f000000000000000000000000000000000000000000000000000000000000000083610465565b505b61022e610590565b50005b600080fd5b34801561024257600080fd5b5061024b610992565b604051610258919061208b565b60405180910390f35b34801561026d57600080fd5b50610276610998565b6040516102589190611c56565b34801561028f57600080fd5b506102986109bc565b005b3480156102a657600080fd5b506102af610aad565b604051610258959493929190612094565b3480156102cc57600080fd5b506102d5610ae4565b6040516102589190612033565b3480156102ee57600080fd5b506102986102fd366004611ac6565b610af3565b34801561030e57600080fd5b50610298610590565b34801561032357600080fd5b50610298610c41565b34801561033857600080fd5b50610341610ced565b6040516102589190611cc7565b34801561035a57600080fd5b50610363610cfd565b6040516102589190611c92565b34801561037c57600080fd5b50610276610d0d565b34801561039157600080fd5b50610276610d1c565b3480156103a657600080fd5b50610341610d2c565b3480156103bb57600080fd5b50610276610d3c565b3480156103d057600080fd5b50610276610d4b565b3480156103e557600080fd5b506102986103f4366004611b9e565b610d6f565b34801561040557600080fd5b50610341610ef2565b34801561041a57600080fd5b50610276610f02565b34801561042f57600080fd5b50610438610f26565b604051610258919061207b565b34801561045157600080fd5b50610298610460366004611a8e565b610f4a565b60408051610100810182526001600160a01b038086168252848116602083015262ffffff7f0000000000000000000000000000000000000000000000000000000000000000168284015230606083015242608083015260a08201849052600060c0830181905260e08301819052600254935163414bf38960e01b815290939091169063414bf389906104fb908490600401611f1c565b602060405180830381600087803b15801561051557600080fd5b505af1158015610529573d6000803e3d6000fd5b505050506040513d601f19601f8201168201806040525081019061054d9190611bb6565b91507fbdc89df9460547640e2147ba22a6ef8476d5390eecc620e9d76fbaa551bf4e8a83836040516105809291906120fe565b60405180910390a1509392505050565b604051630b4c774160e11b81526000906001600160a01b037f00000000000000000000000000000000000000000000000000000000000000001690631698ee8290610643907f0000000000000000000000000000000000000000000000000000000000000000907f0000000000000000000000000000000000000000000000000000000000000000907f000000000000000000000000000000000000000000000000000000000000000090600401611c6a565b60206040518083038186803b15801561065b57600080fd5b505afa15801561066f573d6000803e3d6000fd5b505050506040513d601f19601f820116820180604052508101906106939190611aaa565b9050600080826001600160a01b0316633850c7bd6040518163ffffffff1660e01b815260040160e06040518083038186803b1580156106d157600080fd5b505afa1580156106e5573d6000803e3d6000fd5b505050506040513d601f19601f820116820180604052508101906107099190611afe565b505060028054959750939550600094600160a01b9004840b600402840b9250610730915050565b059050600260149054906101000a900460020b60020b8160020b121561075f575060028054600160a01b9004900b5b60028054600091600160a01b909104810b9081810b90848603900b8161078157fe5b6002805492909105929092029250600091600160a01b909104810b9081810b90868601900b816107ad57fe5b050290508060020b8260020b126107cf575060028054600160a01b9004900b81015b620d89e719620d89e8600284900b8213156107e8578193505b8060020b8360020b13156107fa578092505b8260020b8460020b1261083d578060020b8360020b141561082b5760028054600160a01b9004900b8303935061083d565b60028054600160a01b9004900b840192505b8160020b8460020b1215801561085957508060020b8360020b13155b801561086a57508260020b8460020b125b6108865760405162461bcd60e51b815260040161014790611e08565b600454600160801b900460ff1680156108b05750600454600285810b600160881b909204810b900b145b80156108cd5750600454600284810b600160a01b909204810b900b145b15610921577f319a1901dfd46c5d39ccc516ff41939b5523c167a22d7c4fbeb5b6a4cc899ad64288888787600060405161090c969594939291906120c4565b60405180910390a15050505050505050610990565b600454600160801b900460ff161561093b5761093b61104c565b61094584846112c4565b7f319a1901dfd46c5d39ccc516ff41939b5523c167a22d7c4fbeb5b6a4cc899ad64288888787600160405161097f969594939291906120c4565b60405180910390a150505050505050505b565b60035481565b7f000000000000000000000000000000000000000000000000000000000000000081565b6109c4611758565b6001600160a01b03166109d5610d1c565b6001600160a01b031614610a1e576040805162461bcd60e51b81526020600482018190526024820152600080516020612219833981519152604482015290519081900360640190fd5b478015610aaa576000610a2f610d1c565b6001600160a01b031682604051610a4590610d29565b60006040518083038185875af1925050503d8060008114610a82576040519150601f19603f3d011682016040523d82523d6000602084013e610a87565b606091505b5050905080610aa85760405162461bcd60e51b815260040161014790611cd5565b505b50565b6003546004549091600160801b820460ff1691600160881b8104600290810b92600160a01b830490910b916001600160801b031690565b6004546001600160801b031681565b610afb611758565b6001600160a01b0316610b0c610d1c565b6001600160a01b031614610b55576040805162461bcd60e51b81526020600482018190526024820152600080516020612219833981519152604482015290519081900360640190fd5b6001600160a01b038216610b7b5760405162461bcd60e51b815260040161014790611daa565b6001600160a01b038116610ba15760405162461bcd60e51b815260040161014790611d73565b6040516370a0823160e01b81526000906001600160a01b038416906370a0823190610bd0903090600401611c56565b60206040518083038186803b158015610be857600080fd5b505afa158015610bfc573d6000803e3d6000fd5b505050506040513d601f19601f82011682018060405250810190610c209190611bb6565b90508015610c3c57610c3c6001600160a01b038416838361175c565b505050565b610c49611758565b6001600160a01b0316610c5a610d1c565b6001600160a01b031614610ca3576040805162461bcd60e51b81526020600482018190526024820152600080516020612219833981519152604482015290519081900360640190fd5b600080546040516001600160a01b03909116907f8be0079c531659141344cd1fd0a4f28419497f9722a3daafe3b4186f6b6457e0908390a3600080546001600160a01b0319169055565b600454600160a01b900460020b81565b600454600160801b900460ff1681565b6001546001600160a01b031681565b6000546001600160a01b03165b90565b600454600160881b900460020b81565b6002546001600160a01b031681565b7f000000000000000000000000000000000000000000000000000000000000000081565b610d77611758565b6001600160a01b0316610d88610d1c565b6001600160a01b031614610dd1576040805162461bcd60e51b81526020600482018190526024820152600080516020612219833981519152604482015290519081900360640190fd5b60008111610df15760405162461bcd60e51b815260040161014790611e5f565b604051632e1a7d4d60e01b81526001600160a01b037f00000000000000000000000000000000000000000000000000000000000000001690632e1a7d4d90610e3d90849060040161208b565b600060405180830381600087803b158015610e5757600080fd5b505af1158015610e6b573d6000803e3d6000fd5b505050506000610e79610d1c565b6001600160a01b031682604051610e8f90610d29565b60006040518083038185875af1925050503d8060008114610ecc576040519150601f19603f3d011682016040523d82523d6000602084013e610ed1565b606091505b5050905080610aa85760405162461bcd60e51b815260040161014790611d00565b60028054600160a01b9004900b81565b7f000000000000000000000000000000000000000000000000000000000000000081565b7f000000000000000000000000000000000000000000000000000000000000000081565b610f52611758565b6001600160a01b0316610f63610d1c565b6001600160a01b031614610fac576040805162461bcd60e51b81526020600482018190526024820152600080516020612219833981519152604482015290519081900360640190fd5b6001600160a01b038116610ff15760405162461bcd60e51b81526004018080602001828103825260268152602001806121cd6026913960400191505060405180910390fd5b600080546040516001600160a01b03808516939216917f8be0079c531659141344cd1fd0a4f28419497f9722a3daafe3b4186f6b6457e091a3600080546001600160a01b0319166001600160a01b0392909216919091179055565b600454600160801b900460ff166110755760405162461bcd60e51b815260040161014790611dd9565b60038054600480546000938490556001600160b81b0319811690915560405191926001600160801b03821692600160881b70ffffffffffffffffffffffffffffffffff19909316928304600290810b93600160a01b9004900b9185917f31f74f9e6b20560a12f5ae59e31b36e7cbbcdc6489ca8f40a878f939e2c7d2769161110291819081908190611c9d565b60405180910390a26001546040805160a0810182528681526001600160801b036020820152600081830181905260608201524260808201529051630624e65f60e11b81526001600160a01b0390921691630c49ccbe9161116491600401611ed9565b6040805180830381600087803b15801561117d57600080fd5b505af19250505080156111ad575060408051601f3d908101601f191682019092526111aa91810190611c16565b60015b6111b6576111b9565b50505b600154604080516080810182528681523060208201526001600160801b038183018190526060820152905163fc6f786560e01b81526001600160a01b039092169163fc6f78659161120c91600401611e96565b6040805180830381600087803b15801561122557600080fd5b505af1925050508015611255575060408051601f3d908101601f1916820190925261125291810190611c16565b60015b61125e57611261565b50505b600154604051630852cd8d60e31b81526001600160a01b03909116906342966c689061129190879060040161208b565b600060405180830381600087803b1580156112ab57600080fd5b505af19250505080156112bc575060015b505b50505050565b8060020b8260020b126112e95760405162461bcd60e51b815260040161014790611d47565b6040516370a0823160e01b81526000906001600160a01b037f000000000000000000000000000000000000000000000000000000000000000016906370a0823190611338903090600401611c56565b60206040518083038186803b15801561135057600080fd5b505afa158015611364573d6000803e3d6000fd5b505050506040513d601f19601f820116820180604052508101906113889190611bb6565b905060007f00000000000000000000000000000000000000000000000000000000000000006001600160a01b03166370a08231306040518263ffffffff1660e01b81526004016113d89190611c56565b60206040518083038186803b1580156113f057600080fd5b505afa158015611404573d6000803e3d6000fd5b505050506040513d601f19601f820116820180604052508101906114289190611bb6565b905081158015611436575080155b15611442575050610aa8565b60015460408051610160810182526001600160a01b037f0000000000000000000000000000000000000000000000000000000000000000811682527f0000000000000000000000000000000000000000000000000000000000000000811660208301527f000000000000000000000000000000000000000000000000000000000000000062ffffff1682840152600288810b606084015287900b608083015260a0820186905260c08201859052600060e0830181905261010083015230610120830152426101408301529151634418b22b60e11b815291909216916388316456916115309190600401611f85565b608060405180830381600087803b15801561154a57600080fd5b505af192505050801561157a575060408051601f3d908101601f1916820190925261157791810190611bce565b60015b6115c757611586612112565b8061159157506115ac565b506004805460006003556001600160b81b03191690556115c2565b6004805460006003556001600160b81b03191690555b6112be565b6001600160801b038316156116d157600384905560048054600160801b6fffffffffffffffffffffffffffffffff199091166001600160801b0386161760ff60801b19161762ffffff60881b1916600160881b60028b810b62ffffff908116929092029290921762ffffff60a01b1916600160a01b928b900b919091169190910217905560405184907f31f74f9e6b20560a12f5ae59e31b36e7cbbcdc6489ca8f40a878f939e2c7d27690611684906001908c908c908990611c9d565b60405180910390a2837f34f67c2e2ddfabdd2a86422e31e022f9feb4c50aa683e668a4d1f6857c0fd8c5848a8a86866040516116c4959493929190612047565b60405180910390a261174e565b831561173457600154604051630852cd8d60e31b81526001600160a01b03909116906342966c689061170790879060040161208b565b600060405180830381600087803b15801561172157600080fd5b505af1925050508015611732575060015b505b836003541461174e57600480546001600160b81b03191690555b5050505050505050565b3390565b604080516001600160a01b038416602482015260448082018490528251808303909101815260649091019091526020810180516001600160e01b031663a9059cbb60e01b179052610c3c90849060006117fe826040518060400160405280602081526020017f5361666545524332303a206c6f772d6c6576656c2063616c6c206661696c6564815250856001600160a01b031661185a9092919063ffffffff16565b805190915015610c3c5780806020019051602081101561181d57600080fd5b5051610c3c5760405162461bcd60e51b815260040180806020018281038252602a815260200180612239602a913960400191505060405180910390fd5b60606118698484600085611873565b90505b9392505050565b6060824710156118b45760405162461bcd60e51b81526004018080602001828103825260268152602001806121f36026913960400191505060405180910390fd5b6118bd856119ce565b61190e576040805162461bcd60e51b815260206004820152601d60248201527f416464726573733a2063616c6c20746f206e6f6e2d636f6e7472616374000000604482015290519081900360640190fd5b600080866001600160a01b031685876040518082805190602001908083835b6020831061194c5780518252601f19909201916020918201910161192d565b6001836020036101000a03801982511681845116808217855250505050505090500191505060006040518083038185875af1925050503d80600081146119ae576040519150601f19603f3d011682016040523d82523d6000602084013e6119b3565b606091505b50915091506119c38282866119d8565b979650505050505050565b803b15155b919050565b606083156119e757508161186c565b8251156119f75782518084602001fd5b8160405162461bcd60e51b81526004018080602001828103825283818151815260200191508051906020019080838360005b83811015611a41578181015183820152602001611a29565b50505050905090810190601f168015611a6e5780820380516001836020036101000a031916815260200191505b509250505060405180910390fd5b805161ffff811681146119d357600080fd5b600060208284031215611a9f578081fd5b813561186c816121b7565b600060208284031215611abb578081fd5b815161186c816121b7565b60008060408385031215611ad8578081fd5b8235611ae3816121b7565b91506020830135611af3816121b7565b809150509250929050565b600080600080600080600060e0888a031215611b18578283fd5b8751611b23816121b7565b8097505060208801518060020b8114611b3a578384fd5b9550611b4860408901611a7c565b9450611b5660608901611a7c565b9350611b6460808901611a7c565b925060a088015160ff81168114611b79578283fd5b60c08901519092508015158114611b8e578182fd5b8091505092959891949750929550565b600060208284031215611baf578081fd5b5035919050565b600060208284031215611bc7578081fd5b5051919050565b60008060008060808587031215611be3578384fd5b8451935060208501516001600160801b0381168114611c00578384fd5b6040860151606090960151949790965092505050565b60008060408385031215611c28578182fd5b505080516020909101519092909150565b6001600160a01b03169052565b60020b9052565b62ffffff169052565b6001600160a01b0391909116815260200190565b6001600160a01b03938416815291909216602082015262ffffff909116604082015260600190565b901515815260200190565b9315158452600292830b6020850152910b60408301526001600160801b0316606082015260800190565b60029190910b815260200190565b602080825260119082015270115512081c995cd8dd594819985a5b1959607a1b604082015260600190565b60208082526027908201527f5745544820726573637565206661696c65643a20455448207472616e736665726040820152660819985a5b195960ca1b606082015260800190565b602080825260129082015271496e76616c6964207469636b2072616e676560701b604082015260600190565b60208082526019908201527f496e76616c696420726563697069656e74206164647265737300000000000000604082015260600190565b602080825260159082015274496e76616c696420746f6b656e206164647265737360581b604082015260600190565b6020808252601590820152744e6f20706f736974696f6e20746f2072656d6f766560581b604082015260600190565b6020808252601690820152752a34b1b59031b0b631bab630ba34b7b71032b93937b960511b604082015260600190565b6020808252600d908201526c09aeae6e840e6cadcc8408aa89609b1b604082015260600190565b60208082526017908201527f416d6f756e74206d75737420626520706f736974697665000000000000000000604082015260600190565b815181526020808301516001600160a01b0316908201526040808301516001600160801b0390811691830191909152606092830151169181019190915260800190565b600060a082019050825182526001600160801b03602084015116602083015260408301516040830152606083015160608301526080830151608083015292915050565b81516001600160a01b03908116825260208084015182169083015260408084015162ffffff16908301526060808401518216908301526080808401519083015260a0838101519083015260c0808401519083015260e09283015116918101919091526101000190565b600061016082019050611f99828451611c39565b6020830151611fab6020840182611c39565b506040830151611fbe6040840182611c4d565b506060830151611fd16060840182611c46565b506080830151611fe46080840182611c46565b5060a083015160a083015260c083015160c083015260e083015160e08301526101008084015181840152506101208084015161202282850182611c39565b505061014092830151919092015290565b6001600160801b0391909116815260200190565b6001600160801b03959095168552600293840b60208601529190920b60408401526060830191909152608082015260a00190565b62ffffff91909116815260200190565b90815260200190565b9485529215156020850152600291820b6040850152900b60608301526001600160801b0316608082015260a00190565b9586526001600160a01b03949094166020860152600292830b604086015290820b6060850152900b6080830152151560a082015260c00190565b918252602082015260400190565b60e01c90565b600060443d101561212257610d29565b600481823e6308c379a0612136825161210c565b1461214057610d29565b6040513d600319016004823e80513d67ffffffffffffffff81602484011181841117156121705750505050610d29565b8284019250825191508082111561218a5750505050610d29565b503d830160208284010111156121a257505050610d29565b601f01601f1916810160200160405291505090565b6001600160a01b0381168114610aaa57600080fdfe4f776e61626c653a206e6577206f776e657220697320746865207a65726f2061646472657373416464726573733a20696e73756666696369656e742062616c616e636520666f722063616c6c4f776e61626c653a2063616c6c6572206973206e6f7420746865206f776e65725361666545524332303a204552433230206f7065726174696f6e20646964206e6f742073756363656564a2646970667358221220f96b0d17d81c237252645c2a3b59565cda342244fdf29d11b9ec3d8f409ff42564736f6c63430007060033",
  "linkReferences": {},
  "deployedLinkReferences": {}
}