{
  "_format": "hh-sol-artifact-1",
  "contractName": "PredictiveLiquidityManager",
  "sourceName": "contracts/PredictiveLiquidityManager.sol",
  "abi": [
    {
      "inputs": [
        {
          "internalType": "address",
          "name": "_factory",
          "type": "address"
        },
        {
          "internalType": "address",
          "name": "_positionManager",
          "type": "address"
        },
        {
          "internalType": "address",
          "name": "_token0",
          "type": "address"
        },
        {
          "internalType": "address",
          "name": "_token1",
          "type": "address"
        },
        {
          "internalType": "uint24",
          "name": "_fee",
          "type": "uint24"
        },
        {
          "internalType": "address",
          "name": "_initialOwner",
          "type": "address"
        }
      ],
      "stateMutability": "nonpayable",
      "type": "constructor"
    },
    {
      "anonymous": false,
      "inputs": [
        {
          "indexed": false,
          "internalType": "string",
          "name": "operationType",
          "type": "string"
        },
        {
          "indexed": true,
          "internalType": "uint256",
          "name": "tokenId",
          "type": "uint256"
        },
        {
          "indexed": false,
          "internalType": "int24",
          "name": "tickLower",
          "type": "int24"
        },
        {
          "indexed": false,
          "internalType": "int24",
          "name": "tickUpper",
          "type": "int24"
        },
        {
          "indexed": false,
          "internalType": "uint128",
          "name": "liquidity",
          "type": "uint128"
        },
        {
          "indexed": false,
          "internalType": "uint256",
          "name": "amount0",
          "type": "uint256"
        },
        {
          "indexed": false,
          "internalType": "uint256",
          "name": "amount1",
          "type": "uint256"
        },
        {
          "indexed": false,
          "internalType": "bool",
          "name": "success",
          "type": "bool"
        }
      ],
      "name": "LiquidityOperation",
      "type": "event"
    },
    {
      "anonymous": false,
      "inputs": [
        {
          "indexed": true,
          "internalType": "address",
          "name": "previousOwner",
          "type": "address"
        },
        {
          "indexed": true,
          "internalType": "address",
          "name": "newOwner",
          "type": "address"
        }
      ],
      "name": "OwnershipTransferred",
      "type": "event"
    },
    {
      "anonymous": false,
      "inputs": [
        {
          "indexed": false,
          "internalType": "int24",
          "name": "predictedTick",
          "type": "int24"
        },
        {
          "indexed": false,
          "internalType": "int24",
          "name": "finalTickLower",
          "type": "int24"
        },
        {
          "indexed": false,
          "internalType": "int24",
          "name": "finalTickUpper",
          "type": "int24"
        },
        {
          "indexed": false,
          "internalType": "uint128",
          "name": "liquidity",
          "type": "uint128"
        },
        {
          "indexed": false,
          "internalType": "bool",
          "name": "adjusted",
          "type": "bool"
        }
      ],
      "name": "PredictionAdjustmentMetrics",
      "type": "event"
    },
    {
      "anonymous": false,
      "inputs": [
        {
          "indexed": true,
          "internalType": "string",
          "name": "paramName",
          "type": "string"
        },
        {
          "indexed": false,
          "internalType": "uint256",
          "name": "newValue",
          "type": "uint256"
        }
      ],
      "name": "StrategyParamUpdated",
      "type": "event"
    },
    {
      "inputs": [],
      "name": "currentPosition",
      "outputs": [
        {
          "internalType": "uint256",
          "name": "tokenId",
          "type": "uint256"
        },
        {
          "internalType": "uint128",
          "name": "liquidity",
          "type": "uint128"
        },
        {
          "internalType": "int24",
          "name": "tickLower",
          "type": "int24"
        },
        {
          "internalType": "int24",
          "name": "tickUpper",
          "type": "int24"
        },
        {
          "internalType": "bool",
          "name": "active",
          "type": "bool"
        }
      ],
      "stateMutability": "view",
      "type": "function"
    },
    {
      "inputs": [],
      "name": "factory",
      "outputs": [
        {
          "internalType": "contract IUniswapV3Factory",
          "name": "",
          "type": "address"
        }
      ],
      "stateMutability": "view",
      "type": "function"
    },
    {
      "inputs": [],
      "name": "fee",
      "outputs": [
        {
          "internalType": "uint24",
          "name": "",
          "type": "uint24"
        }
      ],
      "stateMutability": "view",
      "type": "function"
    },
    {
      "inputs": [],
      "name": "owner",
      "outputs": [
        {
          "internalType": "address",
          "name": "",
          "type": "address"
        }
      ],
      "stateMutability": "view",
      "type": "function"
    },
    {
      "inputs": [],
      "name": "positionManager",
      "outputs": [
        {
          "internalType": "contract INonfungiblePositionManager",
          "name": "",
          "type": "address"
        }
      ],
      "stateMutability": "view",
      "type": "function"
    },
    {
      "inputs": [],
      "name": "rangeWidthMultiplier",
      "outputs": [
        {
          "internalType": "uint24",
          "name": "",
          "type": "uint24"
        }
      ],
      "stateMutability": "view",
      "type": "function"
    },
    {
      "inputs": [],
      "name": "renounceOwnership",
      "outputs": [],
      "stateMutability": "nonpayable",
      "type": "function"
    },
    {
      "inputs": [],
      "name": "tickSpacing",
      "outputs": [
        {
          "internalType": "int24",
          "name": "",
          "type": "int24"
        }
      ],
      "stateMutability": "view",
      "type": "function"
    },
    {
      "inputs": [],
      "name": "token0",
      "outputs": [
        {
          "internalType": "address",
          "name": "",
          "type": "address"
        }
      ],
      "stateMutability": "view",
      "type": "function"
    },
    {
      "inputs": [],
      "name": "token0Decimals",
      "outputs": [
        {
          "internalType": "uint8",
          "name": "",
          "type": "uint8"
        }
      ],
      "stateMutability": "view",
      "type": "function"
    },
    {
      "inputs": [],
      "name": "token1",
      "outputs": [
        {
          "internalType": "address",
          "name": "",
          "type": "address"
        }
      ],
      "stateMutability": "view",
      "type": "function"
    },
    {
      "inputs": [],
      "name": "token1Decimals",
      "outputs": [
        {
          "internalType": "uint8",
          "name": "",
          "type": "uint8"
        }
      ],
      "stateMutability": "view",
      "type": "function"
    },
    {
      "inputs": [
        {
          "internalType": "address",
          "name": "newOwner",
          "type": "address"
        }
      ],
      "name": "transferOwnership",
      "outputs": [],
      "stateMutability": "nonpayable",
      "type": "function"
    },
    {
      "inputs": [
        {
          "internalType": "uint256",
          "name": "amount0Owed",
          "type": "uint256"
        },
        {
          "internalType": "uint256",
          "name": "amount1Owed",
          "type": "uint256"
        },
        {
          "internalType": "bytes",
          "name": "data",
          "type": "bytes"
        }
      ],
      "name": "uniswapV3MintCallback",
      "outputs": [],
      "stateMutability": "nonpayable",
      "type": "function"
    },
    {
      "inputs": [
        {
          "internalType": "int24",
          "name": "predictedTick",
          "type": "int24"
        }
      ],
      "name": "updatePredictionAndAdjust",
      "outputs": [],
      "stateMutability": "nonpayable",
      "type": "function"
    }
  ],
  "bytecode": "0x6101806040526004805462ffffff1916811790553480156200002057600080fd5b5060405162002bc838038062002bc8833981016040819052620000439162000928565b60006200004f620003c0565b600080546001600160a01b0319166001600160a01b03831690811782556040519293509160008051602062002b48833981519152908290a350600180556001600160601b0319606087811b821660805286811b821660a05285811b821660c05284901b1660e0526001600160e81b031960e883901b16610140526040805163313ce56760e01b815290516001600160a01b0386169163313ce567916004808301926020929190829003018186803b1580156200010a57600080fd5b505afa9250505080156200013d575060408051601f3d908101601f191682019092526200013a91810190620009d3565b60015b620001655760405162461bcd60e51b81526004016200015c9062000a97565b60405180910390fd5b6001600160f81b031960f89190911b1661010052826001600160a01b031663313ce5676040518163ffffffff1660e01b815260040160206040518083038186803b158015620001b357600080fd5b505afa925050508015620001e6575060408051601f3d908101601f19168201909252620001e391810190620009d3565b60015b620002055760405162461bcd60e51b81526004016200015c9062000a1e565b60f81b6001600160f81b03191661012052604051630b4c774160e11b81526000906001600160a01b03881690631698ee82906200024b90889088908890600401620009f6565b60206040518083038186803b1580156200026457600080fd5b505afa15801562000279573d6000803e3d6000fd5b505050506040513d601f19601f820116820180604052508101906200029f91906200090b565b90506001600160a01b038116620002ca5760405162461bcd60e51b81526004016200015c9062000a60565b806001600160a01b031663d0c93a7c6040518163ffffffff1660e01b815260040160206040518083038186803b1580156200030457600080fd5b505afa15801562000319573d6000803e3d6000fd5b505050506040513d601f19601f820116820180604052508101906200033f9190620009b0565b600290810b900b60e81b61016052620003716001600160a01b03861687600019620003c4602090811b6200074917901c565b6200039886600019866001600160a01b0316620003c460201b62000749179092919060201c565b6001600160a01b03821615620003b357620003b382620004e8565b5050505050505062000ad9565b3390565b8015806200044e575060408051636eb1769f60e11b81523060048201526001600160a01b03848116602483015291519185169163dd62ed3e91604480820192602092909190829003018186803b1580156200041e57600080fd5b505afa15801562000433573d6000803e3d6000fd5b505050506040513d60208110156200044a57600080fd5b5051155b6200048b5760405162461bcd60e51b815260040180806020018281038252603681526020018062002b926036913960400191505060405180910390fd5b604080516001600160a01b038416602482015260448082018490528251808303909101815260649091019091526020810180516001600160e01b0390811663095ea7b360e01b17909152620004e3918591620005f216565b505050565b620004f2620003c0565b6001600160a01b031662000505620006ae565b6001600160a01b03161462000561576040805162461bcd60e51b815260206004820181905260248201527f4f776e61626c653a2063616c6c6572206973206e6f7420746865206f776e6572604482015290519081900360640190fd5b6001600160a01b038116620005a85760405162461bcd60e51b815260040180806020018281038252602681526020018062002afc6026913960400191505060405180910390fd5b600080546040516001600160a01b038085169392169160008051602062002b4883398151915291a3600080546001600160a01b0319166001600160a01b0392909216919091179055565b60006200064e826040518060400160405280602081526020017f5361666545524332303a206c6f772d6c6576656c2063616c6c206661696c6564815250856001600160a01b0316620006bd60201b62000861179092919060201c565b805190915015620004e3578080602001905160208110156200066f57600080fd5b5051620004e35760405162461bcd60e51b815260040180806020018281038252602a81526020018062002b68602a913960400191505060405180910390fd5b6000546001600160a01b031690565b6060620006ce8484600085620006d8565b90505b9392505050565b6060824710156200071b5760405162461bcd60e51b815260040180806020018281038252602681526020018062002b226026913960400191505060405180910390fd5b62000726856200083f565b62000778576040805162461bcd60e51b815260206004820152601d60248201527f416464726573733a2063616c6c20746f206e6f6e2d636f6e7472616374000000604482015290519081900360640190fd5b600080866001600160a01b031685876040518082805190602001908083835b60208310620007b85780518252601f19909201916020918201910162000797565b6001836020036101000a03801982511681845116808217855250505050505090500191505060006040518083038185875af1925050503d80600081146200081c576040519150601f19603f3d011682016040523d82523d6000602084013e62000821565b606091505b5090925090506200083482828662000849565b979650505050505050565b803b15155b919050565b606083156200085a575081620006d1565b8251156200086b5782518084602001fd5b8160405162461bcd60e51b81526004018080602001828103825283818151815260200191508051906020019080838360005b83811015620008b75781810151838201526020016200089d565b50505050905090810190601f168015620008e55780820380516001836020036101000a031916815260200191505b509250505060405180910390fd5b80516001600160a01b03811681146200084457600080fd5b6000602082840312156200091d578081fd5b620006d182620008f3565b60008060008060008060c0878903121562000941578182fd5b6200094c87620008f3565b95506200095c60208801620008f3565b94506200096c60408801620008f3565b93506200097c60608801620008f3565b9250608087015162ffffff8116811462000994578283fd5b9150620009a460a08801620008f3565b90509295509295509295565b600060208284031215620009c2578081fd5b81518060020b8114620006d1578182fd5b600060208284031215620009e5578081fd5b815160ff81168114620006d1578182fd5b6001600160a01b03938416815291909216602082015262ffffff909116604082015260600190565b60208082526022908201527f546f6b656e3120646f6573206e6f7420737570706f727420646563696d616c73604082015261282960f01b606082015260800190565b60208082526013908201527f506f6f6c20646f6573206e6f7420657869737400000000000000000000000000604082015260600190565b60208082526022908201527f546f6b656e3020646f6573206e6f7420737570706f727420646563696d616c73604082015261282960f01b606082015260800190565b60805160601c60a05160601c60c05160601c60e05160601c6101005160f81c6101205160f81c6101405160e81c6101605160e81c611f1762000be5600039806104cb528061088552806108d452806109075280610929528061094a528061098a52806109b652806109e25280610a0a5280610a425280610a755280610ab85280610afb5280610b305280610b6b5280610b935280610bd152508061061352806116175250806101f05250806104835250806104ef52806105af52806110ac52806115e85250806102145280610575528061102152806115b9525080610450528061051c5280611342528061141b52806114c2528061168b52806118515250806104a75250611f176000f3fe608060405234801561001057600080fd5b50600436106100f55760003560e01c8063b31ac6e211610097578063d348799711610066578063d34879971461019c578063d534d636146101af578063ddca3f43146101c8578063f2fde38b146101d0576100f5565b8063b31ac6e21461016f578063c45a015514610177578063d0c93a7c1461017f578063d21220a714610194576100f5565b80631aa1855c116100d35780631aa1855c14610142578063715018a614610157578063791b98bc1461015f5780638da5cb5b14610167576100f5565b806301d31e7c146100fa5780630b77884d146101185780630dfe16811461012d575b600080fd5b6101026101e3565b60405161010f9190611ddc565b60405180910390f35b6101206101ee565b60405161010f9190611e27565b610135610212565b60405161010f9190611aab565b61015561015036600461196f565b610236565b005b610155610390565b61013561044e565b610135610472565b610120610481565b6101356104a5565b6101876104c9565b60405161010f9190611abf565b6101356104ed565b6101556101aa366004611a13565b610511565b6101b76105dc565b60405161010f959493929190611df5565b610102610611565b6101556101de366004611948565b610635565b60045462ffffff1681565b7f000000000000000000000000000000000000000000000000000000000000000081565b7f000000000000000000000000000000000000000000000000000000000000000081565b6002600154141561028e576040805162461bcd60e51b815260206004820152601f60248201527f5265656e7472616e637947756172643a207265656e7472616e742063616c6c00604482015290519081900360640190fd5b600260015561029b61087a565b6001600160a01b03166102ac610472565b6001600160a01b031614610307576040805162461bcd60e51b815260206004820181905260248201527f4f776e61626c653a2063616c6c6572206973206e6f7420746865206f776e6572604482015290519081900360640190fd5b6000806103138361087e565b6003549193509150600090600160b01b900460ff168015610353575060035461035390600160801b8104600290810b91600160981b9004900b8585610bbf565b1561036d576103658484846000610c2e565b505050610389565b6103778383610c9e565b905061038584848484610c2e565b5050505b5060018055565b61039861087a565b6001600160a01b03166103a9610472565b6001600160a01b031614610404576040805162461bcd60e51b815260206004820181905260248201527f4f776e61626c653a2063616c6c6572206973206e6f7420746865206f776e6572604482015290519081900360640190fd5b600080546040516001600160a01b03909116907f8be0079c531659141344cd1fd0a4f28419497f9722a3daafe3b4186f6b6457e0908390a3600080546001600160a01b0319169055565b7f000000000000000000000000000000000000000000000000000000000000000081565b6000546001600160a01b031690565b7f000000000000000000000000000000000000000000000000000000000000000081565b7f000000000000000000000000000000000000000000000000000000000000000081565b7f000000000000000000000000000000000000000000000000000000000000000081565b7f000000000000000000000000000000000000000000000000000000000000000081565b336001600160a01b037f000000000000000000000000000000000000000000000000000000000000000016146105625760405162461bcd60e51b815260040161055990611b03565b60405180910390fd5b831561059c5761059c6001600160a01b037f0000000000000000000000000000000000000000000000000000000000000000163386610d0a565b82156105d6576105d66001600160a01b037f0000000000000000000000000000000000000000000000000000000000000000163385610d0a565b50505050565b6002805460035490916001600160801b03821691600160801b8104820b91600160981b8204900b90600160b01b900460ff1685565b7f000000000000000000000000000000000000000000000000000000000000000081565b61063d61087a565b6001600160a01b031661064e610472565b6001600160a01b0316146106a9576040805162461bcd60e51b815260206004820181905260248201527f4f776e61626c653a2063616c6c6572206973206e6f7420746865206f776e6572604482015290519081900360640190fd5b6001600160a01b0381166106ee5760405162461bcd60e51b8152600401808060200182810382526026815260200180611e366026913960400191505060405180910390fd5b600080546040516001600160a01b03808516939216917f8be0079c531659141344cd1fd0a4f28419497f9722a3daafe3b4186f6b6457e091a3600080546001600160a01b0319166001600160a01b0392909216919091179055565b8015806107cf575060408051636eb1769f60e11b81523060048201526001600160a01b03848116602483015291519185169163dd62ed3e91604480820192602092909190829003018186803b1580156107a157600080fd5b505afa1580156107b5573d6000803e3d6000fd5b505050506040513d60208110156107cb57600080fd5b5051155b61080a5760405162461bcd60e51b8152600401808060200182810382526036815260200180611eac6036913960400191505060405180910390fd5b604080516001600160a01b038416602482015260448082018490528251808303909101815260649091019091526020810180516001600160e01b031663095ea7b360e01b17905261085c908490610d58565b505050565b60606108708484600085610e09565b90505b9392505050565b3390565b60008060007f000000000000000000000000000000000000000000000000000000000000000060020b136108c45760405162461bcd60e51b815260040161055990611bed565b60045460009060029062ffffff167f000000000000000000000000000000000000000000000000000000000000000002810b05905060008160020b1361092757507f00000000000000000000000000000000000000000000000000000000000000005b7f00000000000000000000000000000000000000000000000000000000000000007f000000000000000000000000000000000000000000000000000000000000000060020b8260020b8161097757fe5b050290508060020b600014156109aa57507f00000000000000000000000000000000000000000000000000000000000000005b8084038482016109da827f0000000000000000000000000000000000000000000000000000000000000000610f64565b9450610a06817f0000000000000000000000000000000000000000000000000000000000000000610f64565b93507f000000000000000000000000000000000000000000000000000000000000000060020b8160020b81610a3757fe5b0760020b15610a66577f0000000000000000000000000000000000000000000000000000000000000000840193505b8360020b8560020b12610a99577f0000000000000000000000000000000000000000000000000000000000000000850193505b620d89e719600286900b12610aae5784610adc565b610adc620d89e7197f0000000000000000000000000000000000000000000000000000000000000000610f64565b9450620d89e8600285900b13610af25783610b1f565b610b1f620d89e87f0000000000000000000000000000000000000000000000000000000000000000610f64565b93508360020b8560020b12610bb7577f000000000000000000000000000000000000000000000000000000000000000085019350620d89e8600285900b1315610bb757610b8f620d89e87f0000000000000000000000000000000000000000000000000000000000000000610f64565b93507f0000000000000000000000000000000000000000000000000000000000000000840394505b505050915091565b600454600090819060029062ffffff167f000000000000000000000000000000000000000000000000000000000000000002810b0590508060020b610c05858803610fd3565b60020b128015610c2457508060020b610c1f848703610fd3565b60020b125b9695505050505050565b600354600090600160b01b900460ff16610c49576000610c56565b6003546001600160801b03165b90507f77c6e194647f0870898d23dbb98931e18bf928c62286cc93dd9517c78f8f5ab08585858486604051610c8f959493929190611acd565b60405180910390a15050505050565b600354600090600160b01b900460ff161580610ccc5750600354600284810b600160801b909204810b900b14155b80610ce95750600354600283810b600160981b909204810b900b14155b15610d0057610cf88383610fed565b506001610d04565b5060005b92915050565b604080516001600160a01b038416602482015260448082018490528251808303909101815260649091019091526020810180516001600160e01b031663a9059cbb60e01b17905261085c9084905b6000610dad826040518060400160405280602081526020017f5361666545524332303a206c6f772d6c6576656c2063616c6c206661696c6564815250856001600160a01b03166108619092919063ffffffff16565b80519091501561085c57808060200190516020811015610dcc57600080fd5b505161085c5760405162461bcd60e51b815260040180806020018281038252602a815260200180611e82602a913960400191505060405180910390fd5b606082471015610e4a5760405162461bcd60e51b8152600401808060200182810382526026815260200180611e5c6026913960400191505060405180910390fd5b610e53856111af565b610ea4576040805162461bcd60e51b815260206004820152601d60248201527f416464726573733a2063616c6c20746f206e6f6e2d636f6e7472616374000000604482015290519081900360640190fd5b600080866001600160a01b031685876040518082805190602001908083835b60208310610ee25780518252601f199092019160209182019101610ec3565b6001836020036101000a03801982511681845116808217855250505050505090500191505060006040518083038185875af1925050503d8060008114610f44576040519150601f19603f3d011682016040523d82523d6000602084013e610f49565b606091505b5091509150610f598282866111b5565b979650505050505050565b6000808260020b13610f885760405162461bcd60e51b815260040161055990611c1b565b60008260020b8460020b81610f9957fe5b05905060008460020b128015610fc057508260020b8460020b81610fb957fe5b0760020b15155b15610fca57600019015b90910292915050565b6000808260020b1215610fe95781600003610d04565b5090565b600354600160b01b900460ff161561100757611007611259565b6040516370a0823160e01b81526000906001600160a01b037f000000000000000000000000000000000000000000000000000000000000000016906370a0823190611056903090600401611aab565b60206040518083038186803b15801561106e57600080fd5b505afa158015611082573d6000803e3d6000fd5b505050506040513d601f19601f820116820180604052508101906110a69190611990565b905060007f00000000000000000000000000000000000000000000000000000000000000006001600160a01b03166370a08231306040518263ffffffff1660e01b81526004016110f69190611aab565b60206040518083038186803b15801561110e57600080fd5b505afa158015611122573d6000803e3d6000fd5b505050506040513d601f19601f820116820180604052508101906111469190611990565b905060008211806111575750600081115b1561116d576111688484848461157f565b6105d6565b6040805160a08101825260008082526020820181905291810182905260608101829052608001819052600255600380546001600160b81b031916905550505050565b3b151590565b606083156111c4575081610873565b8251156111d45782518084602001fd5b8160405162461bcd60e51b81526004018080602001828103825283818151815260200191508051906020019080838360005b8381101561121e578181015183820152602001611206565b50505050905090810190601f16801561124b5780820380516001836020036101000a031916815260200191505b509250505060405180910390fd5b600354600160b01b900460ff168015611273575060025415155b61128f5760405162461bcd60e51b815260040161055990611b69565b60028054600380546040805160a081018252600080825260208201819052918101829052606081018290526080018190528085556001600160b81b0319821690925591926001600160801b03831692600160801b8104820b92600160981b90910490910b9080808086156113d4576040805160a0810182528981526001600160801b0389166020820152600081830181905260608201524260808201529051630624e65f60e11b81526001600160a01b037f00000000000000000000000000000000000000000000000000000000000000001691630c49ccbe916113769190600401611ceb565b6040805180830381600087803b15801561138f57600080fd5b505af19250505080156113bf575060408051601f3d908101601f191682019092526113bc918101906119f0565b60015b6113c8576113cf565b5050600193505b6113d9565b600193505b831561152457604080516080810182528981523060208201526001600160801b038183018190526060820152905163fc6f786560e01b81526001600160a01b037f0000000000000000000000000000000000000000000000000000000000000000169163fc6f78659161144f9190600401611ca8565b6040805180830381600087803b15801561146857600080fd5b505af1925050508015611498575060408051601f3d908101601f19168201909252611495918101906119f0565b60015b6114a1576114ab565b6001945090925090505b604051630852cd8d60e31b81526001600160a01b037f000000000000000000000000000000000000000000000000000000000000000016906342966c68906114f7908b90600401611dec565b600060405180830381600087803b15801561151157600080fd5b505af1925050508015611522575060015b505b60008480156115305750835b9050887fdee9c9ac7e4f2757956dfcf228dc427442ec0a77c0020754a5d9c3b2583d9a1488888b87878760405161156c96959493929190611b95565b60405180910390a2505050505050505050565b600354600160b01b900460ff16156115a95760405162461bcd60e51b815260040161055990611b32565b60006040518061016001604052807f00000000000000000000000000000000000000000000000000000000000000006001600160a01b031681526020017f00000000000000000000000000000000000000000000000000000000000000006001600160a01b031681526020017f000000000000000000000000000000000000000000000000000000000000000062ffffff1681526020018660020b81526020018560020b81526020018481526020018381526020016000815260200160008152602001306001600160a01b0316815260200142815250905060008060008060007f00000000000000000000000000000000000000000000000000000000000000006001600160a01b03166388316456876040518263ffffffff1660e01b81526004016116d59190611d2e565b608060405180830381600087803b1580156116ef57600080fd5b505af192505050801561171f575060408051601f3d908101601f1916820190925261171c918101906119a8565b60015b611728576118b8565b8398508297508196508095506000886001600160801b03161115611834576040518060a001604052808a8152602001896001600160801b031681526020018f60020b81526020018e60020b81526020016001151581525060026000820151816000015560208201518160010160006101000a8154816001600160801b0302191690836001600160801b0316021790555060408201518160010160106101000a81548162ffffff021916908360020b62ffffff16021790555060608201518160010160136101000a81548162ffffff021916908360020b62ffffff16021790555060808201518160010160166101000a81548160ff021916908315150217905550905050600194506118b3565b88156118b357604051630852cd8d60e31b81526001600160a01b037f000000000000000000000000000000000000000000000000000000000000000016906342966c6890611886908c90600401611dec565b600060405180830381600087803b1580156118a057600080fd5b505af19250505080156118b1575060015b505b505050505b847fdee9c9ac7e4f2757956dfcf228dc427442ec0a77c0020754a5d9c3b2583d9a148b8b878787876040516118f296959493929190611c52565b60405180910390a28061193c576040805160a08101825260008082526020820181905291810182905260608101829052608001819052600255600380546001600160b81b03191690555b50505050505050505050565b600060208284031215611959578081fd5b81356001600160a01b0381168114610873578182fd5b600060208284031215611980578081fd5b81358060020b8114610873578182fd5b6000602082840312156119a1578081fd5b5051919050565b600080600080608085870312156119bd578283fd5b8451935060208501516001600160801b03811681146119da578384fd5b6040860151606090960151949790965092505050565b60008060408385031215611a02578182fd5b505080516020909101519092909150565b60008060008060608587031215611a28578384fd5b8435935060208501359250604085013567ffffffffffffffff80821115611a4d578384fd5b818701915087601f830112611a60578384fd5b813581811115611a6e578485fd5b886020828501011115611a7f578485fd5b95989497505060200194505050565b6001600160a01b03169052565b60020b9052565b62ffffff169052565b6001600160a01b0391909116815260200190565b60029190910b815260200190565b600295860b815293850b60208501529190930b60408301526001600160801b039092166060820152901515608082015260a00190565b602080825260159082015274556e617574686f72697a65642063616c6c6261636b60581b604082015260600190565b60208082526017908201527f506f736974696f6e20616c726561647920616374697665000000000000000000604082015260600190565b60208082526012908201527127379030b1ba34bb32903837b9b4ba34b7b760711b604082015260600190565b60e08082526006908201526552454d4f564560d01b610100820152600296870b60208201529490950b60408501526001600160801b03929092166060840152608083015260a082015290151560c08201526101200190565b602080825260149082015273496e76616c6964207469636b2073706163696e6760601b604082015260600190565b6020808252601d908201527f5469636b2073706163696e67206d75737420626520706f736974697665000000604082015260600190565b60e0808252600490820152631352539560e21b610100820152600296870b60208201529490950b60408501526001600160801b03929092166060840152608083015260a082015290151560c08201526101200190565b815181526020808301516001600160a01b0316908201526040808301516001600160801b0390811691830191909152606092830151169181019190915260800190565b600060a082019050825182526001600160801b03602084015116602083015260408301516040830152606083015160608301526080830151608083015292915050565b600061016082019050611d42828451611a8e565b6020830151611d546020840182611a8e565b506040830151611d676040840182611aa2565b506060830151611d7a6060840182611a9b565b506080830151611d8d6080840182611a9b565b5060a083015160a083015260c083015160c083015260e083015160e083015261010080840151818401525061012080840151611dcb82850182611a8e565b505061014092830151919092015290565b62ffffff91909116815260200190565b90815260200190565b9485526001600160801b03939093166020850152600291820b6040850152900b60608301521515608082015260a00190565b60ff9190911681526020019056fe4f776e61626c653a206e6577206f776e657220697320746865207a65726f2061646472657373416464726573733a20696e73756666696369656e742062616c616e636520666f722063616c6c5361666545524332303a204552433230206f7065726174696f6e20646964206e6f7420737563636565645361666545524332303a20617070726f76652066726f6d206e6f6e2d7a65726f20746f206e6f6e2d7a65726f20616c6c6f77616e6365a2646970667358221220793ed107a5d6aba4288163702904436d56b2c868dda4cd1aac0c978caaf870f164736f6c634300070600334f776e61626c653a206e6577206f776e657220697320746865207a65726f2061646472657373416464726573733a20696e73756666696369656e742062616c616e636520666f722063616c6c8be0079c531659141344cd1fd0a4f28419497f9722a3daafe3b4186f6b6457e05361666545524332303a204552433230206f7065726174696f6e20646964206e6f7420737563636565645361666545524332303a20617070726f76652066726f6d206e6f6e2d7a65726f20746f206e6f6e2d7a65726f20616c6c6f77616e6365",
  "linkReferences": {},
  "deployedLinkReferences": {}
}