{
  "_format": "hh-sol-artifact-1",
  "contractName": "TokenOperationsManagerOptimized",
  "sourceName": "contracts/TokenOperationsManagerOptimized.sol",
  "abi": [
    {
      "inputs": [
        {
          "internalType": "address",
          "name": "_swapRouter",
          "type": "address"
        },
        {
          "internalType": "address",
          "name": "_weth9",
          "type": "address"
        }
      ],
      "stateMutability": "nonpayable",
      "type": "constructor"
    },
    {
      "anonymous": false,
      "inputs": [
        {
          "indexed": true,
          "internalType": "bytes32",
          "name": "opType",
          "type": "bytes32"
        },
        {
          "indexed": true,
          "internalType": "address",
          "name": "tokenA",
          "type": "address"
        },
        {
          "indexed": true,
          "internalType": "address",
          "name": "tokenB",
          "type": "address"
        },
        {
          "indexed": false,
          "internalType": "uint256",
          "name": "amount",
          "type": "uint256"
        }
      ],
      "name": "Operation",
      "type": "event"
    },
    {
      "anonymous": false,
      "inputs": [
        {
          "indexed": true,
          "internalType": "address",
          "name": "previousOwner",
          "type": "address"
        },
        {
          "indexed": true,
          "internalType": "address",
          "name": "newOwner",
          "type": "address"
        }
      ],
      "name": "OwnershipTransferred",
      "type": "event"
    },
    {
      "inputs": [],
      "name": "WETH9",
      "outputs": [
        {
          "internalType": "address",
          "name": "",
          "type": "address"
        }
      ],
      "stateMutability": "view",
      "type": "function"
    },
    {
      "inputs": [
        {
          "internalType": "address",
          "name": "token",
          "type": "address"
        },
        {
          "internalType": "uint256",
          "name": "amount",
          "type": "uint256"
        }
      ],
      "name": "deposit",
      "outputs": [],
      "stateMutability": "payable",
      "type": "function"
    },
    {
      "inputs": [
        {
          "internalType": "address",
          "name": "token",
          "type": "address"
        }
      ],
      "name": "getBalance",
      "outputs": [
        {
          "internalType": "uint256",
          "name": "",
          "type": "uint256"
        }
      ],
      "stateMutability": "view",
      "type": "function"
    },
    {
      "inputs": [
        {
          "internalType": "bytes32",
          "name": "action",
          "type": "bytes32"
        },
        {
          "internalType": "uint256",
          "name": "minAmount",
          "type": "uint256"
        },
        {
          "internalType": "address",
          "name": "recipient",
          "type": "address"
        }
      ],
      "name": "handleETH",
      "outputs": [],
      "stateMutability": "nonpayable",
      "type": "function"
    },
    {
      "inputs": [],
      "name": "owner",
      "outputs": [
        {
          "internalType": "address",
          "name": "",
          "type": "address"
        }
      ],
      "stateMutability": "view",
      "type": "function"
    },
    {
      "inputs": [],
      "name": "renounceOwnership",
      "outputs": [],
      "stateMutability": "nonpayable",
      "type": "function"
    },
    {
      "inputs": [
        {
          "internalType": "address",
          "name": "tokenIn",
          "type": "address"
        },
        {
          "internalType": "address",
          "name": "tokenOut",
          "type": "address"
        },
        {
          "internalType": "uint24",
          "name": "poolFee",
          "type": "uint24"
        },
        {
          "internalType": "uint256",
          "name": "amountIn",
          "type": "uint256"
        },
        {
          "internalType": "uint256",
          "name": "amountOutMin",
          "type": "uint256"
        }
      ],
      "name": "swap",
      "outputs": [
        {
          "internalType": "uint256",
          "name": "amountOut",
          "type": "uint256"
        }
      ],
      "stateMutability": "nonpayable",
      "type": "function"
    },
    {
      "inputs": [],
      "name": "swapRouter",
      "outputs": [
        {
          "internalType": "contract ISwapRouter",
          "name": "",
          "type": "address"
        }
      ],
      "stateMutability": "view",
      "type": "function"
    },
    {
      "inputs": [
        {
          "internalType": "address",
          "name": "token",
          "type": "address"
        },
        {
          "internalType": "uint256",
          "name": "minAmount",
          "type": "uint256"
        },
        {
          "internalType": "address",
          "name": "recipient",
          "type": "address"
        }
      ],
      "name": "sweepToken",
      "outputs": [],
      "stateMutability": "nonpayable",
      "type": "function"
    },
    {
      "inputs": [
        {
          "internalType": "address",
          "name": "newOwner",
          "type": "address"
        }
      ],
      "name": "transferOwnership",
      "outputs": [],
      "stateMutability": "nonpayable",
      "type": "function"
    },
    {
      "inputs": [
        {
          "internalType": "address",
          "name": "token",
          "type": "address"
        },
        {
          "internalType": "uint256",
          "name": "amount",
          "type": "uint256"
        }
      ],
      "name": "withdraw",
      "outputs": [],
      "stateMutability": "nonpayable",
      "type": "function"
    },
    {
      "stateMutability": "payable",
      "type": "receive"
    }
  ],
  "bytecode": "0x60c06040523480156200001157600080fd5b5060405162001a9238038062001a928339810160408190526200003491620000ca565b600062000040620000a9565b600080546001600160a01b0319166001600160a01b0383169081178255604051929350917f8be0079c531659141344cd1fd0a4f28419497f9722a3daafe3b4186f6b6457e0908290a3506001600160601b0319606092831b8116608052911b1660a05262000101565b3390565b80516001600160a01b0381168114620000c557600080fd5b919050565b60008060408385031215620000dd578182fd5b620000e883620000ad565b9150620000f860208401620000ad565b90509250929050565b60805160601c60a05160601c611930620001626000398061035d528061041b52806104c652806107e1528061083a528061092f5280610d225280610d745280610e325250806105f45280610674528061070c5280610a0e52506119306000f3fe6080604052600436106100a05760003560e01c80638da5cb5b116100645780638da5cb5b1461014e578063c31c9c0714610163578063df2ab5bb14610178578063f2fde38b14610198578063f3fef3a3146101b8578063f8b2cb4f146101d8576100a7565b80632f8b3eed146100ac5780633bf237d5146100ce57806347e7ef24146101045780634aa4a4fc14610117578063715018a614610139576100a7565b366100a757005b600080fd5b3480156100b857600080fd5b506100cc6100c73660046115e3565b6101f8565b005b3480156100da57600080fd5b506100ee6100e9366004611522565b61056c565b6040516100fb9190611805565b60405180910390f35b6100cc61011236600461157f565b61077d565b34801561012357600080fd5b5061012c61092d565b6040516100fb9190611626565b34801561014557600080fd5b506100cc610951565b34801561015a57600080fd5b5061012c6109fd565b34801561016f57600080fd5b5061012c610a0c565b34801561018457600080fd5b506100cc6101933660046115a8565b610a30565b3480156101a457600080fd5b506100cc6101b3366004611508565b610bbc565b3480156101c457600080fd5b506100cc6101d336600461157f565b610cbe565b3480156101e457600080fd5b506100ee6101f3366004611508565b610fc2565b61020061105e565b6001600160a01b03166102116109fd565b6001600160a01b03161461025a576040805162461bcd60e51b8152602060048201819052602482015260008051602061187b833981519152604482015290519081900360640190fd5b60006001600160a01b038216156102715781610273565b335b9050690a48a8caa9c88be8aa8960b31b84141561032d5747838110156102b45760405162461bcd60e51b81526004016102ab9061163a565b60405180910390fd5b6040516001600160a01b0383169082156108fc029083906000818181858888f193505050501580156102ea573d6000803e3d6000fd5b5060006001600160a01b031660006001600160a01b03168660008051602061180f8339815191528460405161031f9190611805565b60405180910390a450610566565b6a0aa9caea482a0beae8aa8960ab1b84141561050c576040516370a0823160e01b81526000906001600160a01b037f000000000000000000000000000000000000000000000000000000000000000016906370a0823190610392903090600401611626565b60206040518083038186803b1580156103aa57600080fd5b505afa1580156103be573d6000803e3d6000fd5b505050506040513d601f19601f820116820180604052508101906103e2919061160e565b9050838110156104045760405162461bcd60e51b81526004016102ab906116e7565b604051632e1a7d4d60e01b81526001600160a01b037f00000000000000000000000000000000000000000000000000000000000000001690632e1a7d4d90610450908490600401611805565b600060405180830381600087803b15801561046a57600080fd5b505af115801561047e573d6000803e3d6000fd5b50506040516001600160a01b038516925083156108fc02915083906000818181858888f193505050501580156104b8573d6000803e3d6000fd5b5060006001600160a01b03167f00000000000000000000000000000000000000000000000000000000000000006001600160a01b03168660008051602061180f8339815191528460405161031f9190611805565b6a29aba2a2a82faa27a5a2a760a91b8414801561053157506001600160a01b03821615155b1561054e5760405162461bcd60e51b81526004016102ab90611765565b60405162461bcd60e51b81526004016102ab90611712565b50505050565b600061057661105e565b6001600160a01b03166105876109fd565b6001600160a01b0316146105d0576040805162461bcd60e51b8152602060048201819052602482015260008051602061187b833981519152604482015290519081900360640190fd5b6105e56001600160a01b038716333086611062565b6106196001600160a01b0387167f0000000000000000000000000000000000000000000000000000000000000000856110bc565b60408051610100810182526001600160a01b038089168252878116602083015262ffffff87168284015230606083015242608083015260a0820186905260c08201859052600060e0830152915163414bf38960e01b815290917f0000000000000000000000000000000000000000000000000000000000000000169063414bf389906106a990849060040161179c565b602060405180830381600087803b1580156106c357600080fd5b505af11580156106d7573d6000803e3d6000fd5b505050506040513d601f19601f820116820180604052508101906106fb919061160e565b91506107326001600160a01b0388167f000000000000000000000000000000000000000000000000000000000000000060006110bc565b856001600160a01b0316876001600160a01b0316630535741560e41b60008051602061180f8339815191528560405161076b9190611805565b60405180910390a45095945050505050565b61078561105e565b6001600160a01b03166107966109fd565b6001600160a01b0316146107df576040805162461bcd60e51b8152602060048201819052602482015260008051602061187b833981519152604482015290519081900360640190fd5b7f00000000000000000000000000000000000000000000000000000000000000006001600160a01b0316826001600160a01b031614156108b1578034146108385760405162461bcd60e51b81526004016102ab90611664565b7f00000000000000000000000000000000000000000000000000000000000000006001600160a01b031663d0e30db0826040518263ffffffff1660e01b81526004016000604051808303818588803b15801561089357600080fd5b505af11580156108a7573d6000803e3d6000fd5b50505050506108e4565b34156108cf5760405162461bcd60e51b81526004016102ab90611691565b6108e46001600160a01b038316333084611062565b60006001600160a01b0316826001600160a01b03166611115413d4d25560ca1b60008051602061180f833981519152846040516109219190611805565b60405180910390a45050565b7f000000000000000000000000000000000000000000000000000000000000000081565b61095961105e565b6001600160a01b031661096a6109fd565b6001600160a01b0316146109b3576040805162461bcd60e51b8152602060048201819052602482015260008051602061187b833981519152604482015290519081900360640190fd5b600080546040516001600160a01b03909116907f8be0079c531659141344cd1fd0a4f28419497f9722a3daafe3b4186f6b6457e0908390a3600080546001600160a01b0319169055565b6000546001600160a01b031690565b7f000000000000000000000000000000000000000000000000000000000000000081565b610a3861105e565b6001600160a01b0316610a496109fd565b6001600160a01b031614610a92576040805162461bcd60e51b8152602060048201819052602482015260008051602061187b833981519152604482015290519081900360640190fd5b6001600160a01b038116610ab85760405162461bcd60e51b81526004016102ab9061173a565b6040516370a0823160e01b81526000906001600160a01b038516906370a0823190610ae7903090600401611626565b60206040518083038186803b158015610aff57600080fd5b505afa158015610b13573d6000803e3d6000fd5b505050506040513d601f19601f82011682018060405250810190610b37919061160e565b905082811015610b595760405162461bcd60e51b81526004016102ab906116b9565b610b6d6001600160a01b03851683836111d4565b60006001600160a01b0316846001600160a01b03166a29aba2a2a82faa27a5a2a760a91b60008051602061180f83398151915284604051610bae9190611805565b60405180910390a450505050565b610bc461105e565b6001600160a01b0316610bd56109fd565b6001600160a01b031614610c1e576040805162461bcd60e51b8152602060048201819052602482015260008051602061187b833981519152604482015290519081900360640190fd5b6001600160a01b038116610c635760405162461bcd60e51b815260040180806020018281038252602681526020018061182f6026913960400191505060405180910390fd5b600080546040516001600160a01b03808516939216917f8be0079c531659141344cd1fd0a4f28419497f9722a3daafe3b4186f6b6457e091a3600080546001600160a01b0319166001600160a01b0392909216919091179055565b610cc661105e565b6001600160a01b0316610cd76109fd565b6001600160a01b031614610d20576040805162461bcd60e51b8152602060048201819052602482015260008051602061187b833981519152604482015290519081900360640190fd5b7f00000000000000000000000000000000000000000000000000000000000000006001600160a01b0316826001600160a01b03161415610ecd576040516370a0823160e01b81526000906001600160a01b037f000000000000000000000000000000000000000000000000000000000000000016906370a0823190610da9903090600401611626565b60206040518083038186803b158015610dc157600080fd5b505afa158015610dd5573d6000803e3d6000fd5b505050506040513d601f19601f82011682018060405250810190610df9919061160e565b905081811015610e1b5760405162461bcd60e51b81526004016102ab906116e7565b604051632e1a7d4d60e01b81526001600160a01b037f00000000000000000000000000000000000000000000000000000000000000001690632e1a7d4d90610e67908590600401611805565b600060405180830381600087803b158015610e8157600080fd5b505af1158015610e95573d6000803e3d6000fd5b505060405133925084156108fc02915084906000818181858888f19350505050158015610ec6573d6000803e3d6000fd5b5050610f84565b6040516370a0823160e01b81526000906001600160a01b038416906370a0823190610efc903090600401611626565b60206040518083038186803b158015610f1457600080fd5b505afa158015610f28573d6000803e3d6000fd5b505050506040513d601f19601f82011682018060405250810190610f4c919061160e565b905081811015610f6e5760405162461bcd60e51b81526004016102ab906116b9565b610f826001600160a01b03841633846111d4565b505b60006001600160a01b0316826001600160a01b031667574954484452415760c01b60008051602061180f833981519152846040516109219190611805565b60006001600160a01b03821615611054576040516370a0823160e01b81526001600160a01b038316906370a0823190610fff903090600401611626565b60206040518083038186803b15801561101757600080fd5b505afa15801561102b573d6000803e3d6000fd5b505050506040513d601f19601f8201168201806040525081019061104f919061160e565b611056565b475b90505b919050565b3390565b604080516001600160a01b0380861660248301528416604482015260648082018490528251808303909101815260849091019091526020810180516001600160e01b03166323b872dd60e01b179052610566908590611222565b801580611142575060408051636eb1769f60e11b81523060048201526001600160a01b03848116602483015291519185169163dd62ed3e91604480820192602092909190829003018186803b15801561111457600080fd5b505afa158015611128573d6000803e3d6000fd5b505050506040513d602081101561113e57600080fd5b5051155b61117d5760405162461bcd60e51b81526004018080602001828103825260368152602001806118c56036913960400191505060405180910390fd5b604080516001600160a01b038416602482015260448082018490528251808303909101815260649091019091526020810180516001600160e01b031663095ea7b360e01b1790526111cf908490611222565b505050565b604080516001600160a01b038416602482015260448082018490528251808303909101815260649091019091526020810180516001600160e01b031663a9059cbb60e01b1790526111cf9084905b6000611277826040518060400160405280602081526020017f5361666545524332303a206c6f772d6c6576656c2063616c6c206661696c6564815250856001600160a01b03166112d39092919063ffffffff16565b8051909150156111cf5780806020019051602081101561129657600080fd5b50516111cf5760405162461bcd60e51b815260040180806020018281038252602a81526020018061189b602a913960400191505060405180910390fd5b60606112e284846000856112ec565b90505b9392505050565b60608247101561132d5760405162461bcd60e51b81526004018080602001828103825260268152602001806118556026913960400191505060405180910390fd5b61133685611447565b611387576040805162461bcd60e51b815260206004820152601d60248201527f416464726573733a2063616c6c20746f206e6f6e2d636f6e7472616374000000604482015290519081900360640190fd5b600080866001600160a01b031685876040518082805190602001908083835b602083106113c55780518252601f1990920191602091820191016113a6565b6001836020036101000a03801982511681845116808217855250505050505090500191505060006040518083038185875af1925050503d8060008114611427576040519150601f19603f3d011682016040523d82523d6000602084013e61142c565b606091505b509150915061143c82828661144d565b979650505050505050565b3b151590565b6060831561145c5750816112e5565b82511561146c5782518084602001fd5b8160405162461bcd60e51b81526004018080602001828103825283818151815260200191508051906020019080838360005b838110156114b657818101518382015260200161149e565b50505050905090810190601f1680156114e35780820380516001836020036101000a031916815260200191505b509250505060405180910390fd5b80356001600160a01b038116811461105957600080fd5b600060208284031215611519578081fd5b6112e5826114f1565b600080600080600060a08688031215611539578081fd5b611542866114f1565b9450611550602087016114f1565b9350604086013562ffffff81168114611567578182fd5b94979396509394606081013594506080013592915050565b60008060408385031215611591578182fd5b61159a836114f1565b946020939093013593505050565b6000806000606084860312156115bc578283fd5b6115c5846114f1565b9250602084013591506115da604085016114f1565b90509250925092565b6000806000606084860312156115f7578283fd5b83359250602084013591506115da604085016114f1565b60006020828403121561161f578081fd5b5051919050565b6001600160a01b0391909116815260200190565b60208082526010908201526f092dce6eaccccd2c6d2cadce8408aa8960831b604082015260600190565b602080825260139082015272115512081d985b1d5948084f48185b5bdd5b9d606a1b604082015260600190565b6020808252600e908201526d115512081b9bdd081b995959195960921b604082015260600190565b602080825260149082015273496e73756666696369656e742062616c616e636560601b604082015260600190565b602080825260119082015270092dce6eaccccd2c6d2cadce840ae8aa89607b1b604082015260600190565b6020808252600e908201526d24b73b30b634b21030b1ba34b7b760911b604082015260600190565b602080825260119082015270125b9d985b1a59081c9958da5c1a595b9d607a1b604082015260600190565b60208082526017908201527f557365207377656570546f6b656e2066756e6374696f6e000000000000000000604082015260600190565b81516001600160a01b03908116825260208084015182169083015260408084015162ffffff16908301526060808401518216908301526080808401519083015260a0838101519083015260c0808401519083015260e09283015116918101919091526101000190565b9081526020019056fe3ff326c9f9e47cf4dd5cc18acb5f11594345ca27574799f6172a584dab8da09e4f776e61626c653a206e6577206f776e657220697320746865207a65726f2061646472657373416464726573733a20696e73756666696369656e742062616c616e636520666f722063616c6c4f776e61626c653a2063616c6c6572206973206e6f7420746865206f776e65725361666545524332303a204552433230206f7065726174696f6e20646964206e6f7420737563636565645361666545524332303a20617070726f76652066726f6d206e6f6e2d7a65726f20746f206e6f6e2d7a65726f20616c6c6f77616e6365a26469706673582212200437947e439ff85b2f80f847e69c0cc3dc43df72e77ec43dc47c86f9587a799d64736f6c63430007060033",
  "linkReferences": {},
  "deployedLinkReferences": {}
}