{"contracts/PredictiveLiquidityManager.sol":{"PredictiveLiquidityManager":{"abi":[{"inputs":[{"internalType":"address","name":"_factory","type":"address"},{"internalType":"address","name":"_positionManager","type":"address"},{"internalType":"address","name":"_token0","type":"address"},{"internalType":"address","name":"_token1","type":"address"},{"internalType":"uint24","name":"_fee","type":"uint24"},{"internalType":"address","name":"_initialOwner","type":"address"}],"stateMutability":"nonpayable","type":"constructor"},{"anonymous":false,"inputs":[{"indexed":false,"internalType":"string","name":"operationType","type":"string"},{"indexed":true,"internalType":"uint256","name":"tokenId","type":"uint256"},{"indexed":false,"internalType":"int24","name":"tickLower","type":"int24"},{"indexed":false,"internalType":"int24","name":"tickUpper","type":"int24"},{"indexed":false,"internalType":"uint128","name":"liquidity","type":"uint128"},{"indexed":false,"internalType":"uint256","name":"amount0","type":"uint256"},{"indexed":false,"internalType":"uint256","name":"amount1","type":"uint256"},{"indexed":false,"internalType":"bool","name":"success","type":"bool"}],"name":"LiquidityOperation","type":"event"},{"anonymous":false,"inputs":[{"indexed":true,"internalType":"address","name":"previousOwner","type":"address"},{"indexed":true,"internalType":"address","name":"newOwner","type":"address"}],"name":"OwnershipTransferred","type":"event"},{"anonymous":false,"inputs":[{"indexed":false,"internalType":"int24","name":"predictedTick","type":"int24"},{"indexed":false,"internalType":"int24","name":"finalTickLower","type":"int24"},{"indexed":false,"internalType":"int24","name":"finalTickUpper","type":"int24"},{"indexed":false,"internalType":"uint128","name":"liquidity","type":"uint128"},{"indexed":false,"internalType":"bool","name":"adjusted","type":"bool"}],"name":"PredictionAdjustmentMetrics","type":"event"},{"anonymous":false,"inputs":[{"indexed":true,"internalType":"string","name":"paramName","type":"string"},{"indexed":false,"internalType":"uint256","name":"newValue","type":"uint256"}],"name":"StrategyParamUpdated","type":"event"},{"inputs":[],"name":"currentPosition","outputs":[{"internalType":"uint256","name":"tokenId","type":"uint256"},{"internalType":"uint128","name":"liquidity","type":"uint128"},{"internalType":"int24","name":"tickLower","type":"int24"},{"internalType":"int24","name":"tickUpper","type":"int24"},{"internalType":"bool","name":"active","type":"bool"}],"stateMutability":"view","type":"function"},{"inputs":[],"name":"factory","outputs":[{"internalType":"contract IUniswapV3Factory","name":"","type":"address"}],"stateMutability":"view","type":"function"},{"inputs":[],"name":"fee","outputs":[{"internalType":"uint24","name":"","type":"uint24"}],"stateMutability":"view","type":"function"},{"inputs":[],"name":"owner","outputs":[{"internalType":"address","name":"","type":"address"}],"stateMutability":"view","type":"function"},{"inputs":[],"name":"positionManager","outputs":[{"internalType":"contract INonfungiblePositionManager","name":"","type":"address"}],"stateMutability":"view","type":"function"},{"inputs":[],"name":"rangeWidthMultiplier","outputs":[{"internalType":"uint24","name":"","type":"uint24"}],"stateMutability":"view","type":"function"},{"inputs":[],"name":"renounceOwnership","outputs":[],"stateMutability":"nonpayable","type":"function"},{"inputs":[],"name":"tickSpacing","outputs":[{"internalType":"int24","name":"","type":"int24"}],"stateMutability":"view","type":"function"},{"inputs":[],"name":"token0","outputs":[{"internalType":"address","name":"","type":"address"}],"stateMutability":"view","type":"function"},{"inputs":[],"name":"token0Decimals","outputs":[{"internalType":"uint8","name":"","type":"uint8"}],"stateMutability":"view","type":"function"},{"inputs":[],"name":"token1","outputs":[{"internalType":"address","name":"","type":"address"}],"stateMutability":"view","type":"function"},{"inputs":[],"name":"token1Decimals","outputs":[{"internalType":"uint8","name":"","type":"uint8"}],"stateMutability":"view","type":"function"},{"inputs":[{"internalType":"address","name":"newOwner","type":"address"}],"name":"transferOwnership","outputs":[],"stateMutability":"nonpayable","type":"function"},{"inputs":[{"internalType":"uint256","name":"amount0Owed","type":"uint256"},{"internalType":"uint256","name":"amount1Owed","type":"uint256"},{"internalType":"bytes","name":"data","type":"bytes"}],"name":"uniswapV3MintCallback","outputs":[],"stateMutability":"nonpayable","type":"function"},{"inputs":[{"internalType":"int24","name":"predictedTick","type":"int24"}],"name":"updatePredictionAndAdjust","outputs":[],"stateMutability":"nonpayable","type":"function"}],"devdoc":{"kind":"dev","methods":{"owner()":{"details":"Returns the address of the current owner."},"renounceOwnership()":{"details":"Leaves the contract without owner. It will not be possible to call `onlyOwner` functions anymore. Can only be called by the current owner. NOTE: Renouncing ownership will leave the contract without an owner, thereby removing any functionality that is only available to the owner."},"transferOwnership(address)":{"details":"Transfers ownership of the contract to a new account (`newOwner`). Can only be called by the current owner."},"uniswapV3MintCallback(uint256,uint256,bytes)":{"details":"In the implementation you must pay the pool tokens owed for the minted liquidity. The caller of this method must be checked to be a UniswapV3Pool deployed by the canonical UniswapV3Factory.","params":{"amount0Owed":"The amount of token0 due to the pool for the minted liquidity","amount1Owed":"The amount of token1 due to the pool for the minted liquidity","data":"Any data passed through by the caller via the IUniswapV3PoolActions#mint call"}}},"title":"PredictiveLiquidityManager","version":1},"evm":{"bytecode":{"linkReferences":{},"object":"6101806040526004805462ffffff1916811790553480156200002057600080fd5b5060405162002bc838038062002bc8833981016040819052620000439162000928565b60006200004f620003c0565b600080546001600160a01b0319166001600160a01b03831690811782556040519293509160008051602062002b48833981519152908290a350600180556001600160601b0319606087811b821660805286811b821660a05285811b821660c05284901b1660e0526001600160e81b031960e883901b16610140526040805163313ce56760e01b815290516001600160a01b0386169163313ce567916004808301926020929190829003018186803b1580156200010a57600080fd5b505afa9250505080156200013d575060408051601f3d908101601f191682019092526200013a91810190620009d3565b60015b620001655760405162461bcd60e51b81526004016200015c9062000a97565b60405180910390fd5b6001600160f81b031960f89190911b1661010052826001600160a01b031663313ce5676040518163ffffffff1660e01b815260040160206040518083038186803b158015620001b357600080fd5b505afa925050508015620001e6575060408051601f3d908101601f19168201909252620001e391810190620009d3565b60015b620002055760405162461bcd60e51b81526004016200015c9062000a1e565b60f81b6001600160f81b03191661012052604051630b4c774160e11b81526000906001600160a01b03881690631698ee82906200024b90889088908890600401620009f6565b60206040518083038186803b1580156200026457600080fd5b505afa15801562000279573d6000803e3d6000fd5b505050506040513d601f19601f820116820180604052508101906200029f91906200090b565b90506001600160a01b038116620002ca5760405162461bcd60e51b81526004016200015c9062000a60565b806001600160a01b031663d0c93a7c6040518163ffffffff1660e01b815260040160206040518083038186803b1580156200030457600080fd5b505afa15801562000319573d6000803e3d6000fd5b505050506040513d601f19601f820116820180604052508101906200033f9190620009b0565b600290810b900b60e81b61016052620003716001600160a01b03861687600019620003c4602090811b6200074917901c565b6200039886600019866001600160a01b0316620003c460201b62000749179092919060201c565b6001600160a01b03821615620003b357620003b382620004e8565b5050505050505062000ad9565b3390565b8015806200044e575060408051636eb1769f60e11b81523060048201526001600160a01b03848116602483015291519185169163dd62ed3e91604480820192602092909190829003018186803b1580156200041e57600080fd5b505afa15801562000433573d6000803e3d6000fd5b505050506040513d60208110156200044a57600080fd5b5051155b6200048b5760405162461bcd60e51b815260040180806020018281038252603681526020018062002b926036913960400191505060405180910390fd5b604080516001600160a01b038416602482015260448082018490528251808303909101815260649091019091526020810180516001600160e01b0390811663095ea7b360e01b17909152620004e3918591620005f216565b505050565b620004f2620003c0565b6001600160a01b031662000505620006ae565b6001600160a01b03161462000561576040805162461bcd60e51b815260206004820181905260248201527f4f776e61626c653a2063616c6c6572206973206e6f7420746865206f776e6572604482015290519081900360640190fd5b6001600160a01b038116620005a85760405162461bcd60e51b815260040180806020018281038252602681526020018062002afc6026913960400191505060405180910390fd5b600080546040516001600160a01b038085169392169160008051602062002b4883398151915291a3600080546001600160a01b0319166001600160a01b0392909216919091179055565b60006200064e826040518060400160405280602081526020017f5361666545524332303a206c6f772d6c6576656c2063616c6c206661696c6564815250856001600160a01b0316620006bd60201b62000861179092919060201c565b805190915015620004e3578080602001905160208110156200066f57600080fd5b5051620004e35760405162461bcd60e51b815260040180806020018281038252602a81526020018062002b68602a913960400191505060405180910390fd5b6000546001600160a01b031690565b6060620006ce8484600085620006d8565b90505b9392505050565b6060824710156200071b5760405162461bcd60e51b815260040180806020018281038252602681526020018062002b226026913960400191505060405180910390fd5b62000726856200083f565b62000778576040805162461bcd60e51b815260206004820152601d60248201527f416464726573733a2063616c6c20746f206e6f6e2d636f6e7472616374000000604482015290519081900360640190fd5b600080866001600160a01b031685876040518082805190602001908083835b60208310620007b85780518252601f19909201916020918201910162000797565b6001836020036101000a03801982511681845116808217855250505050505090500191505060006040518083038185875af1925050503d80600081146200081c576040519150601f19603f3d011682016040523d82523d6000602084013e62000821565b606091505b5090925090506200083482828662000849565b979650505050505050565b803b15155b919050565b606083156200085a575081620006d1565b8251156200086b5782518084602001fd5b8160405162461bcd60e51b81526004018080602001828103825283818151815260200191508051906020019080838360005b83811015620008b75781810151838201526020016200089d565b50505050905090810190601f168015620008e55780820380516001836020036101000a031916815260200191505b509250505060405180910390fd5b80516001600160a01b03811681146200084457600080fd5b6000602082840312156200091d578081fd5b620006d182620008f3565b60008060008060008060c0878903121562000941578182fd5b6200094c87620008f3565b95506200095c60208801620008f3565b94506200096c60408801620008f3565b93506200097c60608801620008f3565b9250608087015162ffffff8116811462000994578283fd5b9150620009a460a08801620008f3565b90509295509295509295565b600060208284031215620009c2578081fd5b81518060020b8114620006d1578182fd5b600060208284031215620009e5578081fd5b815160ff81168114620006d1578182fd5b6001600160a01b03938416815291909216602082015262ffffff909116604082015260600190565b60208082526022908201527f546f6b656e3120646f6573206e6f7420737570706f727420646563696d616c73604082015261282960f01b606082015260800190565b60208082526013908201527f506f6f6c20646f6573206e6f7420657869737400000000000000000000000000604082015260600190565b60208082526022908201527f546f6b656e3020646f6573206e6f7420737570706f727420646563696d616c73604082015261282960f01b606082015260800190565b60805160601c60a05160601c60c05160601c60e05160601c6101005160f81c6101205160f81c6101405160e81c6101605160e81c611f1762000be5600039806104cb528061088552806108d452806109075280610929528061094a528061098a52806109b652806109e25280610a0a5280610a425280610a755280610ab85280610afb5280610b305280610b6b5280610b935280610bd152508061061352806116175250806101f05250806104835250806104ef52806105af52806110ac52806115e85250806102145280610575528061102152806115b9525080610450528061051c5280611342528061141b52806114c2528061168b52806118515250806104a75250611f176000f3fe608060405234801561001057600080fd5b50600436106100f55760003560e01c8063b31ac6e211610097578063d348799711610066578063d34879971461019c578063d534d636146101af578063ddca3f43146101c8578063f2fde38b146101d0576100f5565b8063b31ac6e21461016f578063c45a015514610177578063d0c93a7c1461017f578063d21220a714610194576100f5565b80631aa1855c116100d35780631aa1855c14610142578063715018a614610157578063791b98bc1461015f5780638da5cb5b14610167576100f5565b806301d31e7c146100fa5780630b77884d146101185780630dfe16811461012d575b600080fd5b6101026101e3565b60405161010f9190611ddc565b60405180910390f35b6101206101ee565b60405161010f9190611e27565b610135610212565b60405161010f9190611aab565b61015561015036600461196f565b610236565b005b610155610390565b61013561044e565b610135610472565b610120610481565b6101356104a5565b6101876104c9565b60405161010f9190611abf565b6101356104ed565b6101556101aa366004611a13565b610511565b6101b76105dc565b60405161010f959493929190611df5565b610102610611565b6101556101de366004611948565b610635565b60045462ffffff1681565b7f000000000000000000000000000000000000000000000000000000000000000081565b7f000000000000000000000000000000000000000000000000000000000000000081565b6002600154141561028e576040805162461bcd60e51b815260206004820152601f60248201527f5265656e7472616e637947756172643a207265656e7472616e742063616c6c00604482015290519081900360640190fd5b600260015561029b61087a565b6001600160a01b03166102ac610472565b6001600160a01b031614610307576040805162461bcd60e51b815260206004820181905260248201527f4f776e61626c653a2063616c6c6572206973206e6f7420746865206f776e6572604482015290519081900360640190fd5b6000806103138361087e565b6003549193509150600090600160b01b900460ff168015610353575060035461035390600160801b8104600290810b91600160981b9004900b8585610bbf565b1561036d576103658484846000610c2e565b505050610389565b6103778383610c9e565b905061038584848484610c2e565b5050505b5060018055565b61039861087a565b6001600160a01b03166103a9610472565b6001600160a01b031614610404576040805162461bcd60e51b815260206004820181905260248201527f4f776e61626c653a2063616c6c6572206973206e6f7420746865206f776e6572604482015290519081900360640190fd5b600080546040516001600160a01b03909116907f8be0079c531659141344cd1fd0a4f28419497f9722a3daafe3b4186f6b6457e0908390a3600080546001600160a01b0319169055565b7f000000000000000000000000000000000000000000000000000000000000000081565b6000546001600160a01b031690565b7f000000000000000000000000000000000000000000000000000000000000000081565b7f000000000000000000000000000000000000000000000000000000000000000081565b7f000000000000000000000000000000000000000000000000000000000000000081565b7f000000000000000000000000000000000000000000000000000000000000000081565b336001600160a01b037f000000000000000000000000000000000000000000000000000000000000000016146105625760405162461bcd60e51b815260040161055990611b03565b60405180910390fd5b831561059c5761059c6001600160a01b037f0000000000000000000000000000000000000000000000000000000000000000163386610d0a565b82156105d6576105d66001600160a01b037f0000000000000000000000000000000000000000000000000000000000000000163385610d0a565b50505050565b6002805460035490916001600160801b03821691600160801b8104820b91600160981b8204900b90600160b01b900460ff1685565b7f000000000000000000000000000000000000000000000000000000000000000081565b61063d61087a565b6001600160a01b031661064e610472565b6001600160a01b0316146106a9576040805162461bcd60e51b815260206004820181905260248201527f4f776e61626c653a2063616c6c6572206973206e6f7420746865206f776e6572604482015290519081900360640190fd5b6001600160a01b0381166106ee5760405162461bcd60e51b8152600401808060200182810382526026815260200180611e366026913960400191505060405180910390fd5b600080546040516001600160a01b03808516939216917f8be0079c531659141344cd1fd0a4f28419497f9722a3daafe3b4186f6b6457e091a3600080546001600160a01b0319166001600160a01b0392909216919091179055565b8015806107cf575060408051636eb1769f60e11b81523060048201526001600160a01b03848116602483015291519185169163dd62ed3e91604480820192602092909190829003018186803b1580156107a157600080fd5b505afa1580156107b5573d6000803e3d6000fd5b505050506040513d60208110156107cb57600080fd5b5051155b61080a5760405162461bcd60e51b8152600401808060200182810382526036815260200180611eac6036913960400191505060405180910390fd5b604080516001600160a01b038416602482015260448082018490528251808303909101815260649091019091526020810180516001600160e01b031663095ea7b360e01b17905261085c908490610d58565b505050565b60606108708484600085610e09565b90505b9392505050565b3390565b60008060007f000000000000000000000000000000000000000000000000000000000000000060020b136108c45760405162461bcd60e51b815260040161055990611bed565b60045460009060029062ffffff167f000000000000000000000000000000000000000000000000000000000000000002810b05905060008160020b1361092757507f00000000000000000000000000000000000000000000000000000000000000005b7f00000000000000000000000000000000000000000000000000000000000000007f000000000000000000000000000000000000000000000000000000000000000060020b8260020b8161097757fe5b050290508060020b600014156109aa57507f00000000000000000000000000000000000000000000000000000000000000005b8084038482016109da827f0000000000000000000000000000000000000000000000000000000000000000610f64565b9450610a06817f0000000000000000000000000000000000000000000000000000000000000000610f64565b93507f000000000000000000000000000000000000000000000000000000000000000060020b8160020b81610a3757fe5b0760020b15610a66577f0000000000000000000000000000000000000000000000000000000000000000840193505b8360020b8560020b12610a99577f0000000000000000000000000000000000000000000000000000000000000000850193505b620d89e719600286900b12610aae5784610adc565b610adc620d89e7197f0000000000000000000000000000000000000000000000000000000000000000610f64565b9450620d89e8600285900b13610af25783610b1f565b610b1f620d89e87f0000000000000000000000000000000000000000000000000000000000000000610f64565b93508360020b8560020b12610bb7577f000000000000000000000000000000000000000000000000000000000000000085019350620d89e8600285900b1315610bb757610b8f620d89e87f0000000000000000000000000000000000000000000000000000000000000000610f64565b93507f0000000000000000000000000000000000000000000000000000000000000000840394505b505050915091565b600454600090819060029062ffffff167f000000000000000000000000000000000000000000000000000000000000000002810b0590508060020b610c05858803610fd3565b60020b128015610c2457508060020b610c1f848703610fd3565b60020b125b9695505050505050565b600354600090600160b01b900460ff16610c49576000610c56565b6003546001600160801b03165b90507f77c6e194647f0870898d23dbb98931e18bf928c62286cc93dd9517c78f8f5ab08585858486604051610c8f959493929190611acd565b60405180910390a15050505050565b600354600090600160b01b900460ff161580610ccc5750600354600284810b600160801b909204810b900b14155b80610ce95750600354600283810b600160981b909204810b900b14155b15610d0057610cf88383610fed565b506001610d04565b5060005b92915050565b604080516001600160a01b038416602482015260448082018490528251808303909101815260649091019091526020810180516001600160e01b031663a9059cbb60e01b17905261085c9084905b6000610dad826040518060400160405280602081526020017f5361666545524332303a206c6f772d6c6576656c2063616c6c206661696c6564815250856001600160a01b03166108619092919063ffffffff16565b80519091501561085c57808060200190516020811015610dcc57600080fd5b505161085c5760405162461bcd60e51b815260040180806020018281038252602a815260200180611e82602a913960400191505060405180910390fd5b606082471015610e4a5760405162461bcd60e51b8152600401808060200182810382526026815260200180611e5c6026913960400191505060405180910390fd5b610e53856111af565b610ea4576040805162461bcd60e51b815260206004820152601d60248201527f416464726573733a2063616c6c20746f206e6f6e2d636f6e7472616374000000604482015290519081900360640190fd5b600080866001600160a01b031685876040518082805190602001908083835b60208310610ee25780518252601f199092019160209182019101610ec3565b6001836020036101000a03801982511681845116808217855250505050505090500191505060006040518083038185875af1925050503d8060008114610f44576040519150601f19603f3d011682016040523d82523d6000602084013e610f49565b606091505b5091509150610f598282866111b5565b979650505050505050565b6000808260020b13610f885760405162461bcd60e51b815260040161055990611c1b565b60008260020b8460020b81610f9957fe5b05905060008460020b128015610fc057508260020b8460020b81610fb957fe5b0760020b15155b15610fca57600019015b90910292915050565b6000808260020b1215610fe95781600003610d04565b5090565b600354600160b01b900460ff161561100757611007611259565b6040516370a0823160e01b81526000906001600160a01b037f000000000000000000000000000000000000000000000000000000000000000016906370a0823190611056903090600401611aab565b60206040518083038186803b15801561106e57600080fd5b505afa158015611082573d6000803e3d6000fd5b505050506040513d601f19601f820116820180604052508101906110a69190611990565b905060007f00000000000000000000000000000000000000000000000000000000000000006001600160a01b03166370a08231306040518263ffffffff1660e01b81526004016110f69190611aab565b60206040518083038186803b15801561110e57600080fd5b505afa158015611122573d6000803e3d6000fd5b505050506040513d601f19601f820116820180604052508101906111469190611990565b905060008211806111575750600081115b1561116d576111688484848461157f565b6105d6565b6040805160a08101825260008082526020820181905291810182905260608101829052608001819052600255600380546001600160b81b031916905550505050565b3b151590565b606083156111c4575081610873565b8251156111d45782518084602001fd5b8160405162461bcd60e51b81526004018080602001828103825283818151815260200191508051906020019080838360005b8381101561121e578181015183820152602001611206565b50505050905090810190601f16801561124b5780820380516001836020036101000a031916815260200191505b509250505060405180910390fd5b600354600160b01b900460ff168015611273575060025415155b61128f5760405162461bcd60e51b815260040161055990611b69565b60028054600380546040805160a081018252600080825260208201819052918101829052606081018290526080018190528085556001600160b81b0319821690925591926001600160801b03831692600160801b8104820b92600160981b90910490910b9080808086156113d4576040805160a0810182528981526001600160801b0389166020820152600081830181905260608201524260808201529051630624e65f60e11b81526001600160a01b037f00000000000000000000000000000000000000000000000000000000000000001691630c49ccbe916113769190600401611ceb565b6040805180830381600087803b15801561138f57600080fd5b505af19250505080156113bf575060408051601f3d908101601f191682019092526113bc918101906119f0565b60015b6113c8576113cf565b5050600193505b6113d9565b600193505b831561152457604080516080810182528981523060208201526001600160801b038183018190526060820152905163fc6f786560e01b81526001600160a01b037f0000000000000000000000000000000000000000000000000000000000000000169163fc6f78659161144f9190600401611ca8565b6040805180830381600087803b15801561146857600080fd5b505af1925050508015611498575060408051601f3d908101601f19168201909252611495918101906119f0565b60015b6114a1576114ab565b6001945090925090505b604051630852cd8d60e31b81526001600160a01b037f000000000000000000000000000000000000000000000000000000000000000016906342966c68906114f7908b90600401611dec565b600060405180830381600087803b15801561151157600080fd5b505af1925050508015611522575060015b505b60008480156115305750835b9050887fdee9c9ac7e4f2757956dfcf228dc427442ec0a77c0020754a5d9c3b2583d9a1488888b87878760405161156c96959493929190611b95565b60405180910390a2505050505050505050565b600354600160b01b900460ff16156115a95760405162461bcd60e51b815260040161055990611b32565b60006040518061016001604052807f00000000000000000000000000000000000000000000000000000000000000006001600160a01b031681526020017f00000000000000000000000000000000000000000000000000000000000000006001600160a01b031681526020017f000000000000000000000000000000000000000000000000000000000000000062ffffff1681526020018660020b81526020018560020b81526020018481526020018381526020016000815260200160008152602001306001600160a01b0316815260200142815250905060008060008060007f00000000000000000000000000000000000000000000000000000000000000006001600160a01b03166388316456876040518263ffffffff1660e01b81526004016116d59190611d2e565b608060405180830381600087803b1580156116ef57600080fd5b505af192505050801561171f575060408051601f3d908101601f1916820190925261171c918101906119a8565b60015b611728576118b8565b8398508297508196508095506000886001600160801b03161115611834576040518060a001604052808a8152602001896001600160801b031681526020018f60020b81526020018e60020b81526020016001151581525060026000820151816000015560208201518160010160006101000a8154816001600160801b0302191690836001600160801b0316021790555060408201518160010160106101000a81548162ffffff021916908360020b62ffffff16021790555060608201518160010160136101000a81548162ffffff021916908360020b62ffffff16021790555060808201518160010160166101000a81548160ff021916908315150217905550905050600194506118b3565b88156118b357604051630852cd8d60e31b81526001600160a01b037f000000000000000000000000000000000000000000000000000000000000000016906342966c6890611886908c90600401611dec565b600060405180830381600087803b1580156118a057600080fd5b505af19250505080156118b1575060015b505b505050505b847fdee9c9ac7e4f2757956dfcf228dc427442ec0a77c0020754a5d9c3b2583d9a148b8b878787876040516118f296959493929190611c52565b60405180910390a28061193c576040805160a08101825260008082526020820181905291810182905260608101829052608001819052600255600380546001600160b81b03191690555b50505050505050505050565b600060208284031215611959578081fd5b81356001600160a01b0381168114610873578182fd5b600060208284031215611980578081fd5b81358060020b8114610873578182fd5b6000602082840312156119a1578081fd5b5051919050565b600080600080608085870312156119bd578283fd5b8451935060208501516001600160801b03811681146119da578384fd5b6040860151606090960151949790965092505050565b60008060408385031215611a02578182fd5b505080516020909101519092909150565b60008060008060608587031215611a28578384fd5b8435935060208501359250604085013567ffffffffffffffff80821115611a4d578384fd5b818701915087601f830112611a60578384fd5b813581811115611a6e578485fd5b886020828501011115611a7f578485fd5b95989497505060200194505050565b6001600160a01b03169052565b60020b9052565b62ffffff169052565b6001600160a01b0391909116815260200190565b60029190910b815260200190565b600295860b815293850b60208501529190930b60408301526001600160801b039092166060820152901515608082015260a00190565b602080825260159082015274556e617574686f72697a65642063616c6c6261636b60581b604082015260600190565b60208082526017908201527f506f736974696f6e20616c726561647920616374697665000000000000000000604082015260600190565b60208082526012908201527127379030b1ba34bb32903837b9b4ba34b7b760711b604082015260600190565b60e08082526006908201526552454d4f564560d01b610100820152600296870b60208201529490950b60408501526001600160801b03929092166060840152608083015260a082015290151560c08201526101200190565b602080825260149082015273496e76616c6964207469636b2073706163696e6760601b604082015260600190565b6020808252601d908201527f5469636b2073706163696e67206d75737420626520706f736974697665000000604082015260600190565b60e0808252600490820152631352539560e21b610100820152600296870b60208201529490950b60408501526001600160801b03929092166060840152608083015260a082015290151560c08201526101200190565b815181526020808301516001600160a01b0316908201526040808301516001600160801b0390811691830191909152606092830151169181019190915260800190565b600060a082019050825182526001600160801b03602084015116602083015260408301516040830152606083015160608301526080830151608083015292915050565b600061016082019050611d42828451611a8e565b6020830151611d546020840182611a8e565b506040830151611d676040840182611aa2565b506060830151611d7a6060840182611a9b565b506080830151611d8d6080840182611a9b565b5060a083015160a083015260c083015160c083015260e083015160e083015261010080840151818401525061012080840151611dcb82850182611a8e565b505061014092830151919092015290565b62ffffff91909116815260200190565b90815260200190565b9485526001600160801b03939093166020850152600291820b6040850152900b60608301521515608082015260a00190565b60ff9190911681526020019056fe4f776e61626c653a206e6577206f776e657220697320746865207a65726f2061646472657373416464726573733a20696e73756666696369656e742062616c616e636520666f722063616c6c5361666545524332303a204552433230206f7065726174696f6e20646964206e6f7420737563636565645361666545524332303a20617070726f76652066726f6d206e6f6e2d7a65726f20746f206e6f6e2d7a65726f20616c6c6f77616e6365a2646970667358221220793ed107a5d6aba4288163702904436d56b2c868dda4cd1aac0c978caaf870f164736f6c634300070600334f776e61626c653a206e6577206f776e657220697320746865207a65726f2061646472657373416464726573733a20696e73756666696369656e742062616c616e636520666f722063616c6c8be0079c531659141344cd1fd0a4f28419497f9722a3daafe3b4186f6b6457e05361666545524332303a204552433230206f7065726174696f6e20646964206e6f7420737563636565645361666545524332303a20617070726f76652066726f6d206e6f6e2d7a65726f20746f206e6f6e2d7a65726f20616c6c6f77616e6365","opcodes":"PUSH2 0x180 PUSH1 0x40 MSTORE PUSH1 0x4 DUP1 SLOAD PUSH3 0xFFFFFF NOT AND DUP2 OR SWAP1 SSTORE CALLVALUE DUP1 ISZERO PUSH3 0x20 JUMPI PUSH1 0x0 DUP1 REVERT JUMPDEST POP PUSH1 0x40 MLOAD PUSH3 0x2BC8 CODESIZE SUB DUP1 PUSH3 0x2BC8 DUP4 CODECOPY DUP2 ADD PUSH1 0x40 DUP2 SWAP1 MSTORE PUSH3 0x43 SWAP2 PUSH3 0x928 JUMP JUMPDEST PUSH1 0x0 PUSH3 0x4F PUSH3 0x3C0 JUMP JUMPDEST PUSH1 0x0 DUP1 SLOAD PUSH1 0x1 PUSH1 0x1 PUSH1 0xA0 SHL SUB NOT AND PUSH1 0x1 PUSH1 0x1 PUSH1 0xA0 SHL SUB DUP4 AND SWAP1 DUP2 OR DUP3 SSTORE PUSH1 0x40 MLOAD SWAP3 SWAP4 POP SWAP2 PUSH1 0x0 DUP1 MLOAD PUSH1 0x20 PUSH3 0x2B48 DUP4 CODECOPY DUP2 MLOAD SWAP2 MSTORE SWAP1 DUP3 SWAP1 LOG3 POP PUSH1 0x1 DUP1 SSTORE PUSH1 0x1 PUSH1 0x1 PUSH1 0x60 SHL SUB NOT PUSH1 0x60 DUP8 DUP2 SHL DUP3 AND PUSH1 0x80 MSTORE DUP7 DUP2 SHL DUP3 AND PUSH1 0xA0 MSTORE DUP6 DUP2 SHL DUP3 AND PUSH1 0xC0 MSTORE DUP5 SWAP1 SHL AND PUSH1 0xE0 MSTORE PUSH1 0x1 PUSH1 0x1 PUSH1 0xE8 SHL SUB NOT PUSH1 0xE8 DUP4 SWAP1 SHL AND PUSH2 0x140 MSTORE PUSH1 0x40 DUP1 MLOAD PUSH4 0x313CE567 PUSH1 0xE0 SHL DUP2 MSTORE SWAP1 MLOAD PUSH1 0x1 PUSH1 0x1 PUSH1 0xA0 SHL SUB DUP7 AND SWAP2 PUSH4 0x313CE567 SWAP2 PUSH1 0x4 DUP1 DUP4 ADD SWAP3 PUSH1 0x20 SWAP3 SWAP2 SWAP1 DUP3 SWAP1 SUB ADD DUP2 DUP7 DUP1 EXTCODESIZE ISZERO DUP1 ISZERO PUSH3 0x10A JUMPI PUSH1 0x0 DUP1 REVERT JUMPDEST POP GAS STATICCALL SWAP3 POP POP POP DUP1 ISZERO PUSH3 0x13D JUMPI POP PUSH1 0x40 DUP1 MLOAD PUSH1 0x1F RETURNDATASIZE SWAP1 DUP2 ADD PUSH1 0x1F NOT AND DUP3 ADD SWAP1 SWAP3 MSTORE PUSH3 0x13A SWAP2 DUP2 ADD SWAP1 PUSH3 0x9D3 JUMP JUMPDEST PUSH1 0x1 JUMPDEST PUSH3 0x165 JUMPI PUSH1 0x40 MLOAD PUSH3 0x461BCD PUSH1 0xE5 SHL DUP2 MSTORE PUSH1 0x4 ADD PUSH3 0x15C SWAP1 PUSH3 0xA97 JUMP JUMPDEST PUSH1 0x40 MLOAD DUP1 SWAP2 SUB SWAP1 REVERT JUMPDEST PUSH1 0x1 PUSH1 0x1 PUSH1 0xF8 SHL SUB NOT PUSH1 0xF8 SWAP2 SWAP1 SWAP2 SHL AND PUSH2 0x100 MSTORE DUP3 PUSH1 0x1 PUSH1 0x1 PUSH1 0xA0 SHL SUB AND PUSH4 0x313CE567 PUSH1 0x40 MLOAD DUP2 PUSH4 0xFFFFFFFF AND PUSH1 0xE0 SHL DUP2 MSTORE PUSH1 0x4 ADD PUSH1 0x20 PUSH1 0x40 MLOAD DUP1 DUP4 SUB DUP2 DUP7 DUP1 EXTCODESIZE ISZERO DUP1 ISZERO PUSH3 0x1B3 JUMPI PUSH1 0x0 DUP1 REVERT JUMPDEST POP GAS STATICCALL SWAP3 POP POP POP DUP1 ISZERO PUSH3 0x1E6 JUMPI POP PUSH1 0x40 DUP1 MLOAD PUSH1 0x1F RETURNDATASIZE SWAP1 DUP2 ADD PUSH1 0x1F NOT AND DUP3 ADD SWAP1 SWAP3 MSTORE PUSH3 0x1E3 SWAP2 DUP2 ADD SWAP1 PUSH3 0x9D3 JUMP JUMPDEST PUSH1 0x1 JUMPDEST PUSH3 0x205 JUMPI PUSH1 0x40 MLOAD PUSH3 0x461BCD PUSH1 0xE5 SHL DUP2 MSTORE PUSH1 0x4 ADD PUSH3 0x15C SWAP1 PUSH3 0xA1E JUMP JUMPDEST PUSH1 0xF8 SHL PUSH1 0x1 PUSH1 0x1 PUSH1 0xF8 SHL SUB NOT AND PUSH2 0x120 MSTORE PUSH1 0x40 MLOAD PUSH4 0xB4C7741 PUSH1 0xE1 SHL DUP2 MSTORE PUSH1 0x0 SWAP1 PUSH1 0x1 PUSH1 0x1 PUSH1 0xA0 SHL SUB DUP9 AND SWAP1 PUSH4 0x1698EE82 SWAP1 PUSH3 0x24B SWAP1 DUP9 SWAP1 DUP9 SWAP1 DUP9 SWAP1 PUSH1 0x4 ADD PUSH3 0x9F6 JUMP JUMPDEST PUSH1 0x20 PUSH1 0x40 MLOAD DUP1 DUP4 SUB DUP2 DUP7 DUP1 EXTCODESIZE ISZERO DUP1 ISZERO PUSH3 0x264 JUMPI PUSH1 0x0 DUP1 REVERT JUMPDEST POP GAS STATICCALL ISZERO DUP1 ISZERO PUSH3 0x279 JUMPI RETURNDATASIZE PUSH1 0x0 DUP1 RETURNDATACOPY RETURNDATASIZE PUSH1 0x0 REVERT JUMPDEST POP POP POP POP PUSH1 0x40 MLOAD RETURNDATASIZE PUSH1 0x1F NOT PUSH1 0x1F DUP3 ADD AND DUP3 ADD DUP1 PUSH1 0x40 MSTORE POP DUP2 ADD SWAP1 PUSH3 0x29F SWAP2 SWAP1 PUSH3 0x90B JUMP JUMPDEST SWAP1 POP PUSH1 0x1 PUSH1 0x1 PUSH1 0xA0 SHL SUB DUP2 AND PUSH3 0x2CA JUMPI PUSH1 0x40 MLOAD PUSH3 0x461BCD PUSH1 0xE5 SHL DUP2 MSTORE PUSH1 0x4 ADD PUSH3 0x15C SWAP1 PUSH3 0xA60 JUMP JUMPDEST DUP1 PUSH1 0x1 PUSH1 0x1 PUSH1 0xA0 SHL SUB AND PUSH4 0xD0C93A7C PUSH1 0x40 MLOAD DUP2 PUSH4 0xFFFFFFFF AND PUSH1 0xE0 SHL DUP2 MSTORE PUSH1 0x4 ADD PUSH1 0x20 PUSH1 0x40 MLOAD DUP1 DUP4 SUB DUP2 DUP7 DUP1 EXTCODESIZE ISZERO DUP1 ISZERO PUSH3 0x304 JUMPI PUSH1 0x0 DUP1 REVERT JUMPDEST POP GAS STATICCALL ISZERO DUP1 ISZERO PUSH3 0x319 JUMPI RETURNDATASIZE PUSH1 0x0 DUP1 RETURNDATACOPY RETURNDATASIZE PUSH1 0x0 REVERT JUMPDEST POP POP POP POP PUSH1 0x40 MLOAD RETURNDATASIZE PUSH1 0x1F NOT PUSH1 0x1F DUP3 ADD AND DUP3 ADD DUP1 PUSH1 0x40 MSTORE POP DUP2 ADD SWAP1 PUSH3 0x33F SWAP2 SWAP1 PUSH3 0x9B0 JUMP JUMPDEST PUSH1 0x2 SWAP1 DUP2 SIGNEXTEND SWAP1 SIGNEXTEND PUSH1 0xE8 SHL PUSH2 0x160 MSTORE PUSH3 0x371 PUSH1 0x1 PUSH1 0x1 PUSH1 0xA0 SHL SUB DUP7 AND DUP8 PUSH1 0x0 NOT PUSH3 0x3C4 PUSH1 0x20 SWAP1 DUP2 SHL PUSH3 0x749 OR SWAP1 SHR JUMP JUMPDEST PUSH3 0x398 DUP7 PUSH1 0x0 NOT DUP7 PUSH1 0x1 PUSH1 0x1 PUSH1 0xA0 SHL SUB AND PUSH3 0x3C4 PUSH1 0x20 SHL PUSH3 0x749 OR SWAP1 SWAP3 SWAP2 SWAP1 PUSH1 0x20 SHR JUMP JUMPDEST PUSH1 0x1 PUSH1 0x1 PUSH1 0xA0 SHL SUB DUP3 AND ISZERO PUSH3 0x3B3 JUMPI PUSH3 0x3B3 DUP3 PUSH3 0x4E8 JUMP JUMPDEST POP POP POP POP POP POP POP PUSH3 0xAD9 JUMP JUMPDEST CALLER SWAP1 JUMP JUMPDEST DUP1 ISZERO DUP1 PUSH3 0x44E JUMPI POP PUSH1 0x40 DUP1 MLOAD PUSH4 0x6EB1769F PUSH1 0xE1 SHL DUP2 MSTORE ADDRESS PUSH1 0x4 DUP3 ADD MSTORE PUSH1 0x1 PUSH1 0x1 PUSH1 0xA0 SHL SUB DUP5 DUP2 AND PUSH1 0x24 DUP4 ADD MSTORE SWAP2 MLOAD SWAP2 DUP6 AND SWAP2 PUSH4 0xDD62ED3E SWAP2 PUSH1 0x44 DUP1 DUP3 ADD SWAP3 PUSH1 0x20 SWAP3 SWAP1 SWAP2 SWAP1 DUP3 SWAP1 SUB ADD DUP2 DUP7 DUP1 EXTCODESIZE ISZERO DUP1 ISZERO PUSH3 0x41E JUMPI PUSH1 0x0 DUP1 REVERT JUMPDEST POP GAS STATICCALL ISZERO DUP1 ISZERO PUSH3 0x433 JUMPI RETURNDATASIZE PUSH1 0x0 DUP1 RETURNDATACOPY RETURNDATASIZE PUSH1 0x0 REVERT JUMPDEST POP POP POP POP PUSH1 0x40 MLOAD RETURNDATASIZE PUSH1 0x20 DUP2 LT ISZERO PUSH3 0x44A JUMPI PUSH1 0x0 DUP1 REVERT JUMPDEST POP MLOAD ISZERO JUMPDEST PUSH3 0x48B JUMPI PUSH1 0x40 MLOAD PUSH3 0x461BCD PUSH1 0xE5 SHL DUP2 MSTORE PUSH1 0x4 ADD DUP1 DUP1 PUSH1 0x20 ADD DUP3 DUP2 SUB DUP3 MSTORE PUSH1 0x36 DUP2 MSTORE PUSH1 0x20 ADD DUP1 PUSH3 0x2B92 PUSH1 0x36 SWAP2 CODECOPY PUSH1 0x40 ADD SWAP2 POP POP PUSH1 0x40 MLOAD DUP1 SWAP2 SUB SWAP1 REVERT JUMPDEST PUSH1 0x40 DUP1 MLOAD PUSH1 0x1 PUSH1 0x1 PUSH1 0xA0 SHL SUB DUP5 AND PUSH1 0x24 DUP3 ADD MSTORE PUSH1 0x44 DUP1 DUP3 ADD DUP5 SWAP1 MSTORE DUP3 MLOAD DUP1 DUP4 SUB SWAP1 SWAP2 ADD DUP2 MSTORE PUSH1 0x64 SWAP1 SWAP2 ADD SWAP1 SWAP2 MSTORE PUSH1 0x20 DUP2 ADD DUP1 MLOAD PUSH1 0x1 PUSH1 0x1 PUSH1 0xE0 SHL SUB SWAP1 DUP2 AND PUSH4 0x95EA7B3 PUSH1 0xE0 SHL OR SWAP1 SWAP2 MSTORE PUSH3 0x4E3 SWAP2 DUP6 SWAP2 PUSH3 0x5F2 AND JUMP JUMPDEST POP POP POP JUMP JUMPDEST PUSH3 0x4F2 PUSH3 0x3C0 JUMP JUMPDEST PUSH1 0x1 PUSH1 0x1 PUSH1 0xA0 SHL SUB AND PUSH3 0x505 PUSH3 0x6AE JUMP JUMPDEST PUSH1 0x1 PUSH1 0x1 PUSH1 0xA0 SHL SUB AND EQ PUSH3 0x561 JUMPI PUSH1 0x40 DUP1 MLOAD PUSH3 0x461BCD PUSH1 0xE5 SHL DUP2 MSTORE PUSH1 0x20 PUSH1 0x4 DUP3 ADD DUP2 SWAP1 MSTORE PUSH1 0x24 DUP3 ADD MSTORE PUSH32 0x4F776E61626C653A2063616C6C6572206973206E6F7420746865206F776E6572 PUSH1 0x44 DUP3 ADD MSTORE SWAP1 MLOAD SWAP1 DUP2 SWAP1 SUB PUSH1 0x64 ADD SWAP1 REVERT JUMPDEST PUSH1 0x1 PUSH1 0x1 PUSH1 0xA0 SHL SUB DUP2 AND PUSH3 0x5A8 JUMPI PUSH1 0x40 MLOAD PUSH3 0x461BCD PUSH1 0xE5 SHL DUP2 MSTORE PUSH1 0x4 ADD DUP1 DUP1 PUSH1 0x20 ADD DUP3 DUP2 SUB DUP3 MSTORE PUSH1 0x26 DUP2 MSTORE PUSH1 0x20 ADD DUP1 PUSH3 0x2AFC PUSH1 0x26 SWAP2 CODECOPY PUSH1 0x40 ADD SWAP2 POP POP PUSH1 0x40 MLOAD DUP1 SWAP2 SUB SWAP1 REVERT JUMPDEST PUSH1 0x0 DUP1 SLOAD PUSH1 0x40 MLOAD PUSH1 0x1 PUSH1 0x1 PUSH1 0xA0 SHL SUB DUP1 DUP6 AND SWAP4 SWAP3 AND SWAP2 PUSH1 0x0 DUP1 MLOAD PUSH1 0x20 PUSH3 0x2B48 DUP4 CODECOPY DUP2 MLOAD SWAP2 MSTORE SWAP2 LOG3 PUSH1 0x0 DUP1 SLOAD PUSH1 0x1 PUSH1 0x1 PUSH1 0xA0 SHL SUB NOT AND PUSH1 0x1 PUSH1 0x1 PUSH1 0xA0 SHL SUB SWAP3 SWAP1 SWAP3 AND SWAP2 SWAP1 SWAP2 OR SWAP1 SSTORE JUMP JUMPDEST PUSH1 0x0 PUSH3 0x64E DUP3 PUSH1 0x40 MLOAD DUP1 PUSH1 0x40 ADD PUSH1 0x40 MSTORE DUP1 PUSH1 0x20 DUP2 MSTORE PUSH1 0x20 ADD PUSH32 0x5361666545524332303A206C6F772D6C6576656C2063616C6C206661696C6564 DUP2 MSTORE POP DUP6 PUSH1 0x1 PUSH1 0x1 PUSH1 0xA0 SHL SUB AND PUSH3 0x6BD PUSH1 0x20 SHL PUSH3 0x861 OR SWAP1 SWAP3 SWAP2 SWAP1 PUSH1 0x20 SHR JUMP JUMPDEST DUP1 MLOAD SWAP1 SWAP2 POP ISZERO PUSH3 0x4E3 JUMPI DUP1 DUP1 PUSH1 0x20 ADD SWAP1 MLOAD PUSH1 0x20 DUP2 LT ISZERO PUSH3 0x66F JUMPI PUSH1 0x0 DUP1 REVERT JUMPDEST POP MLOAD PUSH3 0x4E3 JUMPI PUSH1 0x40 MLOAD PUSH3 0x461BCD PUSH1 0xE5 SHL DUP2 MSTORE PUSH1 0x4 ADD DUP1 DUP1 PUSH1 0x20 ADD DUP3 DUP2 SUB DUP3 MSTORE PUSH1 0x2A DUP2 MSTORE PUSH1 0x20 ADD DUP1 PUSH3 0x2B68 PUSH1 0x2A SWAP2 CODECOPY PUSH1 0x40 ADD SWAP2 POP POP PUSH1 0x40 MLOAD DUP1 SWAP2 SUB SWAP1 REVERT JUMPDEST PUSH1 0x0 SLOAD PUSH1 0x1 PUSH1 0x1 PUSH1 0xA0 SHL SUB AND SWAP1 JUMP JUMPDEST PUSH1 0x60 PUSH3 0x6CE DUP5 DUP5 PUSH1 0x0 DUP6 PUSH3 0x6D8 JUMP JUMPDEST SWAP1 POP JUMPDEST SWAP4 SWAP3 POP POP POP JUMP JUMPDEST PUSH1 0x60 DUP3 SELFBALANCE LT ISZERO PUSH3 0x71B JUMPI PUSH1 0x40 MLOAD PUSH3 0x461BCD PUSH1 0xE5 SHL DUP2 MSTORE PUSH1 0x4 ADD DUP1 DUP1 PUSH1 0x20 ADD DUP3 DUP2 SUB DUP3 MSTORE PUSH1 0x26 DUP2 MSTORE PUSH1 0x20 ADD DUP1 PUSH3 0x2B22 PUSH1 0x26 SWAP2 CODECOPY PUSH1 0x40 ADD SWAP2 POP POP PUSH1 0x40 MLOAD DUP1 SWAP2 SUB SWAP1 REVERT JUMPDEST PUSH3 0x726 DUP6 PUSH3 0x83F JUMP JUMPDEST PUSH3 0x778 JUMPI PUSH1 0x40 DUP1 MLOAD PUSH3 0x461BCD PUSH1 0xE5 SHL DUP2 MSTORE PUSH1 0x20 PUSH1 0x4 DUP3 ADD MSTORE PUSH1 0x1D PUSH1 0x24 DUP3 ADD MSTORE PUSH32 0x416464726573733A2063616C6C20746F206E6F6E2D636F6E7472616374000000 PUSH1 0x44 DUP3 ADD MSTORE SWAP1 MLOAD SWAP1 DUP2 SWAP1 SUB PUSH1 0x64 ADD SWAP1 REVERT JUMPDEST PUSH1 0x0 DUP1 DUP7 PUSH1 0x1 PUSH1 0x1 PUSH1 0xA0 SHL SUB AND DUP6 DUP8 PUSH1 0x40 MLOAD DUP1 DUP3 DUP1 MLOAD SWAP1 PUSH1 0x20 ADD SWAP1 DUP1 DUP4 DUP4 JUMPDEST PUSH1 0x20 DUP4 LT PUSH3 0x7B8 JUMPI DUP1 MLOAD DUP3 MSTORE PUSH1 0x1F NOT SWAP1 SWAP3 ADD SWAP2 PUSH1 0x20 SWAP2 DUP3 ADD SWAP2 ADD PUSH3 0x797 JUMP JUMPDEST PUSH1 0x1 DUP4 PUSH1 0x20 SUB PUSH2 0x100 EXP SUB DUP1 NOT DUP3 MLOAD AND DUP2 DUP5 MLOAD AND DUP1 DUP3 OR DUP6 MSTORE POP POP POP POP POP POP SWAP1 POP ADD SWAP2 POP POP PUSH1 0x0 PUSH1 0x40 MLOAD DUP1 DUP4 SUB DUP2 DUP6 DUP8 GAS CALL SWAP3 POP POP POP RETURNDATASIZE DUP1 PUSH1 0x0 DUP2 EQ PUSH3 0x81C JUMPI PUSH1 0x40 MLOAD SWAP2 POP PUSH1 0x1F NOT PUSH1 0x3F RETURNDATASIZE ADD AND DUP3 ADD PUSH1 0x40 MSTORE RETURNDATASIZE DUP3 MSTORE RETURNDATASIZE PUSH1 0x0 PUSH1 0x20 DUP5 ADD RETURNDATACOPY PUSH3 0x821 JUMP JUMPDEST PUSH1 0x60 SWAP2 POP JUMPDEST POP SWAP1 SWAP3 POP SWAP1 POP PUSH3 0x834 DUP3 DUP3 DUP7 PUSH3 0x849 JUMP JUMPDEST SWAP8 SWAP7 POP POP POP POP POP POP POP JUMP JUMPDEST DUP1 EXTCODESIZE ISZERO ISZERO JUMPDEST SWAP2 SWAP1 POP JUMP JUMPDEST PUSH1 0x60 DUP4 ISZERO PUSH3 0x85A JUMPI POP DUP2 PUSH3 0x6D1 JUMP JUMPDEST DUP3 MLOAD ISZERO PUSH3 0x86B JUMPI DUP3 MLOAD DUP1 DUP5 PUSH1 0x20 ADD REVERT JUMPDEST DUP2 PUSH1 0x40 MLOAD PUSH3 0x461BCD PUSH1 0xE5 SHL DUP2 MSTORE PUSH1 0x4 ADD DUP1 DUP1 PUSH1 0x20 ADD DUP3 DUP2 SUB DUP3 MSTORE DUP4 DUP2 DUP2 MLOAD DUP2 MSTORE PUSH1 0x20 ADD SWAP2 POP DUP1 MLOAD SWAP1 PUSH1 0x20 ADD SWAP1 DUP1 DUP4 DUP4 PUSH1 0x0 JUMPDEST DUP4 DUP2 LT ISZERO PUSH3 0x8B7 JUMPI DUP2 DUP2 ADD MLOAD DUP4 DUP3 ADD MSTORE PUSH1 0x20 ADD PUSH3 0x89D JUMP JUMPDEST POP POP POP POP SWAP1 POP SWAP1 DUP2 ADD SWAP1 PUSH1 0x1F AND DUP1 ISZERO PUSH3 0x8E5 JUMPI DUP1 DUP3 SUB DUP1 MLOAD PUSH1 0x1 DUP4 PUSH1 0x20 SUB PUSH2 0x100 EXP SUB NOT AND DUP2 MSTORE PUSH1 0x20 ADD SWAP2 POP JUMPDEST POP SWAP3 POP POP POP PUSH1 0x40 MLOAD DUP1 SWAP2 SUB SWAP1 REVERT JUMPDEST DUP1 MLOAD PUSH1 0x1 PUSH1 0x1 PUSH1 0xA0 SHL SUB DUP2 AND DUP2 EQ PUSH3 0x844 JUMPI PUSH1 0x0 DUP1 REVERT JUMPDEST PUSH1 0x0 PUSH1 0x20 DUP3 DUP5 SUB SLT ISZERO PUSH3 0x91D JUMPI DUP1 DUP2 REVERT JUMPDEST PUSH3 0x6D1 DUP3 PUSH3 0x8F3 JUMP JUMPDEST PUSH1 0x0 DUP1 PUSH1 0x0 DUP1 PUSH1 0x0 DUP1 PUSH1 0xC0 DUP8 DUP10 SUB SLT ISZERO PUSH3 0x941 JUMPI DUP2 DUP3 REVERT JUMPDEST PUSH3 0x94C DUP8 PUSH3 0x8F3 JUMP JUMPDEST SWAP6 POP PUSH3 0x95C PUSH1 0x20 DUP9 ADD PUSH3 0x8F3 JUMP JUMPDEST SWAP5 POP PUSH3 0x96C PUSH1 0x40 DUP9 ADD PUSH3 0x8F3 JUMP JUMPDEST SWAP4 POP PUSH3 0x97C PUSH1 0x60 DUP9 ADD PUSH3 0x8F3 JUMP JUMPDEST SWAP3 POP PUSH1 0x80 DUP8 ADD MLOAD PUSH3 0xFFFFFF DUP2 AND DUP2 EQ PUSH3 0x994 JUMPI DUP3 DUP4 REVERT JUMPDEST SWAP2 POP PUSH3 0x9A4 PUSH1 0xA0 DUP9 ADD PUSH3 0x8F3 JUMP JUMPDEST SWAP1 POP SWAP3 SWAP6 POP SWAP3 SWAP6 POP SWAP3 SWAP6 JUMP JUMPDEST PUSH1 0x0 PUSH1 0x20 DUP3 DUP5 SUB SLT ISZERO PUSH3 0x9C2 JUMPI DUP1 DUP2 REVERT JUMPDEST DUP2 MLOAD DUP1 PUSH1 0x2 SIGNEXTEND DUP2 EQ PUSH3 0x6D1 JUMPI DUP2 DUP3 REVERT JUMPDEST PUSH1 0x0 PUSH1 0x20 DUP3 DUP5 SUB SLT ISZERO PUSH3 0x9E5 JUMPI DUP1 DUP2 REVERT JUMPDEST DUP2 MLOAD PUSH1 0xFF DUP2 AND DUP2 EQ PUSH3 0x6D1 JUMPI DUP2 DUP3 REVERT JUMPDEST PUSH1 0x1 PUSH1 0x1 PUSH1 0xA0 SHL SUB SWAP4 DUP5 AND DUP2 MSTORE SWAP2 SWAP1 SWAP3 AND PUSH1 0x20 DUP3 ADD MSTORE PUSH3 0xFFFFFF SWAP1 SWAP2 AND PUSH1 0x40 DUP3 ADD MSTORE PUSH1 0x60 ADD SWAP1 JUMP JUMPDEST PUSH1 0x20 DUP1 DUP3 MSTORE PUSH1 0x22 SWAP1 DUP3 ADD MSTORE PUSH32 0x546F6B656E3120646F6573206E6F7420737570706F727420646563696D616C73 PUSH1 0x40 DUP3 ADD MSTORE PUSH2 0x2829 PUSH1 0xF0 SHL PUSH1 0x60 DUP3 ADD MSTORE PUSH1 0x80 ADD SWAP1 JUMP JUMPDEST PUSH1 0x20 DUP1 DUP3 MSTORE PUSH1 0x13 SWAP1 DUP3 ADD MSTORE PUSH32 0x506F6F6C20646F6573206E6F7420657869737400000000000000000000000000 PUSH1 0x40 DUP3 ADD MSTORE PUSH1 0x60 ADD SWAP1 JUMP JUMPDEST PUSH1 0x20 DUP1 DUP3 MSTORE PUSH1 0x22 SWAP1 DUP3 ADD MSTORE PUSH32 0x546F6B656E3020646F6573206E6F7420737570706F727420646563696D616C73 PUSH1 0x40 DUP3 ADD MSTORE PUSH2 0x2829 PUSH1 0xF0 SHL PUSH1 0x60 DUP3 ADD MSTORE PUSH1 0x80 ADD SWAP1 JUMP JUMPDEST PUSH1 0x80 MLOAD PUSH1 0x60 SHR PUSH1 0xA0 MLOAD PUSH1 0x60 SHR PUSH1 0xC0 MLOAD PUSH1 0x60 SHR PUSH1 0xE0 MLOAD PUSH1 0x60 SHR PUSH2 0x100 MLOAD PUSH1 0xF8 SHR PUSH2 0x120 MLOAD PUSH1 0xF8 SHR PUSH2 0x140 MLOAD PUSH1 0xE8 SHR PUSH2 0x160 MLOAD PUSH1 0xE8 SHR PUSH2 0x1F17 PUSH3 0xBE5 PUSH1 0x0 CODECOPY DUP1 PUSH2 0x4CB MSTORE DUP1 PUSH2 0x885 MSTORE DUP1 PUSH2 0x8D4 MSTORE DUP1 PUSH2 0x907 MSTORE DUP1 PUSH2 0x929 MSTORE DUP1 PUSH2 0x94A MSTORE DUP1 PUSH2 0x98A MSTORE DUP1 PUSH2 0x9B6 MSTORE DUP1 PUSH2 0x9E2 MSTORE DUP1 PUSH2 0xA0A MSTORE DUP1 PUSH2 0xA42 MSTORE DUP1 PUSH2 0xA75 MSTORE DUP1 PUSH2 0xAB8 MSTORE DUP1 PUSH2 0xAFB MSTORE DUP1 PUSH2 0xB30 MSTORE DUP1 PUSH2 0xB6B MSTORE DUP1 PUSH2 0xB93 MSTORE DUP1 PUSH2 0xBD1 MSTORE POP DUP1 PUSH2 0x613 MSTORE DUP1 PUSH2 0x1617 MSTORE POP DUP1 PUSH2 0x1F0 MSTORE POP DUP1 PUSH2 0x483 MSTORE POP DUP1 PUSH2 0x4EF MSTORE DUP1 PUSH2 0x5AF MSTORE DUP1 PUSH2 0x10AC MSTORE DUP1 PUSH2 0x15E8 MSTORE POP DUP1 PUSH2 0x214 MSTORE DUP1 PUSH2 0x575 MSTORE DUP1 PUSH2 0x1021 MSTORE DUP1 PUSH2 0x15B9 MSTORE POP DUP1 PUSH2 0x450 MSTORE DUP1 PUSH2 0x51C MSTORE DUP1 PUSH2 0x1342 MSTORE DUP1 PUSH2 0x141B MSTORE DUP1 PUSH2 0x14C2 MSTORE DUP1 PUSH2 0x168B MSTORE DUP1 PUSH2 0x1851 MSTORE POP DUP1 PUSH2 0x4A7 MSTORE POP PUSH2 0x1F17 PUSH1 0x0 RETURN INVALID PUSH1 0x80 PUSH1 0x40 MSTORE CALLVALUE DUP1 ISZERO PUSH2 0x10 JUMPI PUSH1 0x0 DUP1 REVERT JUMPDEST POP PUSH1 0x4 CALLDATASIZE LT PUSH2 0xF5 JUMPI PUSH1 0x0 CALLDATALOAD PUSH1 0xE0 SHR DUP1 PUSH4 0xB31AC6E2 GT PUSH2 0x97 JUMPI DUP1 PUSH4 0xD3487997 GT PUSH2 0x66 JUMPI DUP1 PUSH4 0xD3487997 EQ PUSH2 0x19C JUMPI DUP1 PUSH4 0xD534D636 EQ PUSH2 0x1AF JUMPI DUP1 PUSH4 0xDDCA3F43 EQ PUSH2 0x1C8 JUMPI DUP1 PUSH4 0xF2FDE38B EQ PUSH2 0x1D0 JUMPI PUSH2 0xF5 JUMP JUMPDEST DUP1 PUSH4 0xB31AC6E2 EQ PUSH2 0x16F JUMPI DUP1 PUSH4 0xC45A0155 EQ PUSH2 0x177 JUMPI DUP1 PUSH4 0xD0C93A7C EQ PUSH2 0x17F JUMPI DUP1 PUSH4 0xD21220A7 EQ PUSH2 0x194 JUMPI PUSH2 0xF5 JUMP JUMPDEST DUP1 PUSH4 0x1AA1855C GT PUSH2 0xD3 JUMPI DUP1 PUSH4 0x1AA1855C EQ PUSH2 0x142 JUMPI DUP1 PUSH4 0x715018A6 EQ PUSH2 0x157 JUMPI DUP1 PUSH4 0x791B98BC EQ PUSH2 0x15F JUMPI DUP1 PUSH4 0x8DA5CB5B EQ PUSH2 0x167 JUMPI PUSH2 0xF5 JUMP JUMPDEST DUP1 PUSH4 0x1D31E7C EQ PUSH2 0xFA JUMPI DUP1 PUSH4 0xB77884D EQ PUSH2 0x118 JUMPI DUP1 PUSH4 0xDFE1681 EQ PUSH2 0x12D JUMPI JUMPDEST PUSH1 0x0 DUP1 REVERT JUMPDEST PUSH2 0x102 PUSH2 0x1E3 JUMP JUMPDEST PUSH1 0x40 MLOAD PUSH2 0x10F SWAP2 SWAP1 PUSH2 0x1DDC JUMP JUMPDEST PUSH1 0x40 MLOAD DUP1 SWAP2 SUB SWAP1 RETURN JUMPDEST PUSH2 0x120 PUSH2 0x1EE JUMP JUMPDEST PUSH1 0x40 MLOAD PUSH2 0x10F SWAP2 SWAP1 PUSH2 0x1E27 JUMP JUMPDEST PUSH2 0x135 PUSH2 0x212 JUMP JUMPDEST PUSH1 0x40 MLOAD PUSH2 0x10F SWAP2 SWAP1 PUSH2 0x1AAB JUMP JUMPDEST PUSH2 0x155 PUSH2 0x150 CALLDATASIZE PUSH1 0x4 PUSH2 0x196F JUMP JUMPDEST PUSH2 0x236 JUMP JUMPDEST STOP JUMPDEST PUSH2 0x155 PUSH2 0x390 JUMP JUMPDEST PUSH2 0x135 PUSH2 0x44E JUMP JUMPDEST PUSH2 0x135 PUSH2 0x472 JUMP JUMPDEST PUSH2 0x120 PUSH2 0x481 JUMP JUMPDEST PUSH2 0x135 PUSH2 0x4A5 JUMP JUMPDEST PUSH2 0x187 PUSH2 0x4C9 JUMP JUMPDEST PUSH1 0x40 MLOAD PUSH2 0x10F SWAP2 SWAP1 PUSH2 0x1ABF JUMP JUMPDEST PUSH2 0x135 PUSH2 0x4ED JUMP JUMPDEST PUSH2 0x155 PUSH2 0x1AA CALLDATASIZE PUSH1 0x4 PUSH2 0x1A13 JUMP JUMPDEST PUSH2 0x511 JUMP JUMPDEST PUSH2 0x1B7 PUSH2 0x5DC JUMP JUMPDEST PUSH1 0x40 MLOAD PUSH2 0x10F SWAP6 SWAP5 SWAP4 SWAP3 SWAP2 SWAP1 PUSH2 0x1DF5 JUMP JUMPDEST PUSH2 0x102 PUSH2 0x611 JUMP JUMPDEST PUSH2 0x155 PUSH2 0x1DE CALLDATASIZE PUSH1 0x4 PUSH2 0x1948 JUMP JUMPDEST PUSH2 0x635 JUMP JUMPDEST PUSH1 0x4 SLOAD PUSH3 0xFFFFFF AND DUP2 JUMP JUMPDEST PUSH32 0x0 DUP2 JUMP JUMPDEST PUSH32 0x0 DUP2 JUMP JUMPDEST PUSH1 0x2 PUSH1 0x1 SLOAD EQ ISZERO PUSH2 0x28E JUMPI PUSH1 0x40 DUP1 MLOAD PUSH3 0x461BCD PUSH1 0xE5 SHL DUP2 MSTORE PUSH1 0x20 PUSH1 0x4 DUP3 ADD MSTORE PUSH1 0x1F PUSH1 0x24 DUP3 ADD MSTORE PUSH32 0x5265656E7472616E637947756172643A207265656E7472616E742063616C6C00 PUSH1 0x44 DUP3 ADD MSTORE SWAP1 MLOAD SWAP1 DUP2 SWAP1 SUB PUSH1 0x64 ADD SWAP1 REVERT JUMPDEST PUSH1 0x2 PUSH1 0x1 SSTORE PUSH2 0x29B PUSH2 0x87A JUMP JUMPDEST PUSH1 0x1 PUSH1 0x1 PUSH1 0xA0 SHL SUB AND PUSH2 0x2AC PUSH2 0x472 JUMP JUMPDEST PUSH1 0x1 PUSH1 0x1 PUSH1 0xA0 SHL SUB AND EQ PUSH2 0x307 JUMPI PUSH1 0x40 DUP1 MLOAD PUSH3 0x461BCD PUSH1 0xE5 SHL DUP2 MSTORE PUSH1 0x20 PUSH1 0x4 DUP3 ADD DUP2 SWAP1 MSTORE PUSH1 0x24 DUP3 ADD MSTORE PUSH32 0x4F776E61626C653A2063616C6C6572206973206E6F7420746865206F776E6572 PUSH1 0x44 DUP3 ADD MSTORE SWAP1 MLOAD SWAP1 DUP2 SWAP1 SUB PUSH1 0x64 ADD SWAP1 REVERT JUMPDEST PUSH1 0x0 DUP1 PUSH2 0x313 DUP4 PUSH2 0x87E JUMP JUMPDEST PUSH1 0x3 SLOAD SWAP2 SWAP4 POP SWAP2 POP PUSH1 0x0 SWAP1 PUSH1 0x1 PUSH1 0xB0 SHL SWAP1 DIV PUSH1 0xFF AND DUP1 ISZERO PUSH2 0x353 JUMPI POP PUSH1 0x3 SLOAD PUSH2 0x353 SWAP1 PUSH1 0x1 PUSH1 0x80 SHL DUP2 DIV PUSH1 0x2 SWAP1 DUP2 SIGNEXTEND SWAP2 PUSH1 0x1 PUSH1 0x98 SHL SWAP1 DIV SWAP1 SIGNEXTEND DUP6 DUP6 PUSH2 0xBBF JUMP JUMPDEST ISZERO PUSH2 0x36D JUMPI PUSH2 0x365 DUP5 DUP5 DUP5 PUSH1 0x0 PUSH2 0xC2E JUMP JUMPDEST POP POP POP PUSH2 0x389 JUMP JUMPDEST PUSH2 0x377 DUP4 DUP4 PUSH2 0xC9E JUMP JUMPDEST SWAP1 POP PUSH2 0x385 DUP5 DUP5 DUP5 DUP5 PUSH2 0xC2E JUMP JUMPDEST POP POP POP JUMPDEST POP PUSH1 0x1 DUP1 SSTORE JUMP JUMPDEST PUSH2 0x398 PUSH2 0x87A JUMP JUMPDEST PUSH1 0x1 PUSH1 0x1 PUSH1 0xA0 SHL SUB AND PUSH2 0x3A9 PUSH2 0x472 JUMP JUMPDEST PUSH1 0x1 PUSH1 0x1 PUSH1 0xA0 SHL SUB AND EQ PUSH2 0x404 JUMPI PUSH1 0x40 DUP1 MLOAD PUSH3 0x461BCD PUSH1 0xE5 SHL DUP2 MSTORE PUSH1 0x20 PUSH1 0x4 DUP3 ADD DUP2 SWAP1 MSTORE PUSH1 0x24 DUP3 ADD MSTORE PUSH32 0x4F776E61626C653A2063616C6C6572206973206E6F7420746865206F776E6572 PUSH1 0x44 DUP3 ADD MSTORE SWAP1 MLOAD SWAP1 DUP2 SWAP1 SUB PUSH1 0x64 ADD SWAP1 REVERT JUMPDEST PUSH1 0x0 DUP1 SLOAD PUSH1 0x40 MLOAD PUSH1 0x1 PUSH1 0x1 PUSH1 0xA0 SHL SUB SWAP1 SWAP2 AND SWAP1 PUSH32 0x8BE0079C531659141344CD1FD0A4F28419497F9722A3DAAFE3B4186F6B6457E0 SWAP1 DUP4 SWAP1 LOG3 PUSH1 0x0 DUP1 SLOAD PUSH1 0x1 PUSH1 0x1 PUSH1 0xA0 SHL SUB NOT AND SWAP1 SSTORE JUMP JUMPDEST PUSH32 0x0 DUP2 JUMP JUMPDEST PUSH1 0x0 SLOAD PUSH1 0x1 PUSH1 0x1 PUSH1 0xA0 SHL SUB AND SWAP1 JUMP JUMPDEST PUSH32 0x0 DUP2 JUMP JUMPDEST PUSH32 0x0 DUP2 JUMP JUMPDEST PUSH32 0x0 DUP2 JUMP JUMPDEST PUSH32 0x0 DUP2 JUMP JUMPDEST CALLER PUSH1 0x1 PUSH1 0x1 PUSH1 0xA0 SHL SUB PUSH32 0x0 AND EQ PUSH2 0x562 JUMPI PUSH1 0x40 MLOAD PUSH3 0x461BCD PUSH1 0xE5 SHL DUP2 MSTORE PUSH1 0x4 ADD PUSH2 0x559 SWAP1 PUSH2 0x1B03 JUMP JUMPDEST PUSH1 0x40 MLOAD DUP1 SWAP2 SUB SWAP1 REVERT JUMPDEST DUP4 ISZERO PUSH2 0x59C JUMPI PUSH2 0x59C PUSH1 0x1 PUSH1 0x1 PUSH1 0xA0 SHL SUB PUSH32 0x0 AND CALLER DUP7 PUSH2 0xD0A JUMP JUMPDEST DUP3 ISZERO PUSH2 0x5D6 JUMPI PUSH2 0x5D6 PUSH1 0x1 PUSH1 0x1 PUSH1 0xA0 SHL SUB PUSH32 0x0 AND CALLER DUP6 PUSH2 0xD0A JUMP JUMPDEST POP POP POP POP JUMP JUMPDEST PUSH1 0x2 DUP1 SLOAD PUSH1 0x3 SLOAD SWAP1 SWAP2 PUSH1 0x1 PUSH1 0x1 PUSH1 0x80 SHL SUB DUP3 AND SWAP2 PUSH1 0x1 PUSH1 0x80 SHL DUP2 DIV DUP3 SIGNEXTEND SWAP2 PUSH1 0x1 PUSH1 0x98 SHL DUP3 DIV SWAP1 SIGNEXTEND SWAP1 PUSH1 0x1 PUSH1 0xB0 SHL SWAP1 DIV PUSH1 0xFF AND DUP6 JUMP JUMPDEST PUSH32 0x0 DUP2 JUMP JUMPDEST PUSH2 0x63D PUSH2 0x87A JUMP JUMPDEST PUSH1 0x1 PUSH1 0x1 PUSH1 0xA0 SHL SUB AND PUSH2 0x64E PUSH2 0x472 JUMP JUMPDEST PUSH1 0x1 PUSH1 0x1 PUSH1 0xA0 SHL SUB AND EQ PUSH2 0x6A9 JUMPI PUSH1 0x40 DUP1 MLOAD PUSH3 0x461BCD PUSH1 0xE5 SHL DUP2 MSTORE PUSH1 0x20 PUSH1 0x4 DUP3 ADD DUP2 SWAP1 MSTORE PUSH1 0x24 DUP3 ADD MSTORE PUSH32 0x4F776E61626C653A2063616C6C6572206973206E6F7420746865206F776E6572 PUSH1 0x44 DUP3 ADD MSTORE SWAP1 MLOAD SWAP1 DUP2 SWAP1 SUB PUSH1 0x64 ADD SWAP1 REVERT JUMPDEST PUSH1 0x1 PUSH1 0x1 PUSH1 0xA0 SHL SUB DUP2 AND PUSH2 0x6EE JUMPI PUSH1 0x40 MLOAD PUSH3 0x461BCD PUSH1 0xE5 SHL DUP2 MSTORE PUSH1 0x4 ADD DUP1 DUP1 PUSH1 0x20 ADD DUP3 DUP2 SUB DUP3 MSTORE PUSH1 0x26 DUP2 MSTORE PUSH1 0x20 ADD DUP1 PUSH2 0x1E36 PUSH1 0x26 SWAP2 CODECOPY PUSH1 0x40 ADD SWAP2 POP POP PUSH1 0x40 MLOAD DUP1 SWAP2 SUB SWAP1 REVERT JUMPDEST PUSH1 0x0 DUP1 SLOAD PUSH1 0x40 MLOAD PUSH1 0x1 PUSH1 0x1 PUSH1 0xA0 SHL SUB DUP1 DUP6 AND SWAP4 SWAP3 AND SWAP2 PUSH32 0x8BE0079C531659141344CD1FD0A4F28419497F9722A3DAAFE3B4186F6B6457E0 SWAP2 LOG3 PUSH1 0x0 DUP1 SLOAD PUSH1 0x1 PUSH1 0x1 PUSH1 0xA0 SHL SUB NOT AND PUSH1 0x1 PUSH1 0x1 PUSH1 0xA0 SHL SUB SWAP3 SWAP1 SWAP3 AND SWAP2 SWAP1 SWAP2 OR SWAP1 SSTORE JUMP JUMPDEST DUP1 ISZERO DUP1 PUSH2 0x7CF JUMPI POP PUSH1 0x40 DUP1 MLOAD PUSH4 0x6EB1769F PUSH1 0xE1 SHL DUP2 MSTORE ADDRESS PUSH1 0x4 DUP3 ADD MSTORE PUSH1 0x1 PUSH1 0x1 PUSH1 0xA0 SHL SUB DUP5 DUP2 AND PUSH1 0x24 DUP4 ADD MSTORE SWAP2 MLOAD SWAP2 DUP6 AND SWAP2 PUSH4 0xDD62ED3E SWAP2 PUSH1 0x44 DUP1 DUP3 ADD SWAP3 PUSH1 0x20 SWAP3 SWAP1 SWAP2 SWAP1 DUP3 SWAP1 SUB ADD DUP2 DUP7 DUP1 EXTCODESIZE ISZERO DUP1 ISZERO PUSH2 0x7A1 JUMPI PUSH1 0x0 DUP1 REVERT JUMPDEST POP GAS STATICCALL ISZERO DUP1 ISZERO PUSH2 0x7B5 JUMPI RETURNDATASIZE PUSH1 0x0 DUP1 RETURNDATACOPY RETURNDATASIZE PUSH1 0x0 REVERT JUMPDEST POP POP POP POP PUSH1 0x40 MLOAD RETURNDATASIZE PUSH1 0x20 DUP2 LT ISZERO PUSH2 0x7CB JUMPI PUSH1 0x0 DUP1 REVERT JUMPDEST POP MLOAD ISZERO JUMPDEST PUSH2 0x80A JUMPI PUSH1 0x40 MLOAD PUSH3 0x461BCD PUSH1 0xE5 SHL DUP2 MSTORE PUSH1 0x4 ADD DUP1 DUP1 PUSH1 0x20 ADD DUP3 DUP2 SUB DUP3 MSTORE PUSH1 0x36 DUP2 MSTORE PUSH1 0x20 ADD DUP1 PUSH2 0x1EAC PUSH1 0x36 SWAP2 CODECOPY PUSH1 0x40 ADD SWAP2 POP POP PUSH1 0x40 MLOAD DUP1 SWAP2 SUB SWAP1 REVERT JUMPDEST PUSH1 0x40 DUP1 MLOAD PUSH1 0x1 PUSH1 0x1 PUSH1 0xA0 SHL SUB DUP5 AND PUSH1 0x24 DUP3 ADD MSTORE PUSH1 0x44 DUP1 DUP3 ADD DUP5 SWAP1 MSTORE DUP3 MLOAD DUP1 DUP4 SUB SWAP1 SWAP2 ADD DUP2 MSTORE PUSH1 0x64 SWAP1 SWAP2 ADD SWAP1 SWAP2 MSTORE PUSH1 0x20 DUP2 ADD DUP1 MLOAD PUSH1 0x1 PUSH1 0x1 PUSH1 0xE0 SHL SUB AND PUSH4 0x95EA7B3 PUSH1 0xE0 SHL OR SWAP1 MSTORE PUSH2 0x85C SWAP1 DUP5 SWAP1 PUSH2 0xD58 JUMP JUMPDEST POP POP POP JUMP JUMPDEST PUSH1 0x60 PUSH2 0x870 DUP5 DUP5 PUSH1 0x0 DUP6 PUSH2 0xE09 JUMP JUMPDEST SWAP1 POP JUMPDEST SWAP4 SWAP3 POP POP POP JUMP JUMPDEST CALLER SWAP1 JUMP JUMPDEST PUSH1 0x0 DUP1 PUSH1 0x0 PUSH32 0x0 PUSH1 0x2 SIGNEXTEND SGT PUSH2 0x8C4 JUMPI PUSH1 0x40 MLOAD PUSH3 0x461BCD PUSH1 0xE5 SHL DUP2 MSTORE PUSH1 0x4 ADD PUSH2 0x559 SWAP1 PUSH2 0x1BED JUMP JUMPDEST PUSH1 0x4 SLOAD PUSH1 0x0 SWAP1 PUSH1 0x2 SWAP1 PUSH3 0xFFFFFF AND PUSH32 0x0 MUL DUP2 SIGNEXTEND SDIV SWAP1 POP PUSH1 0x0 DUP2 PUSH1 0x2 SIGNEXTEND SGT PUSH2 0x927 JUMPI POP PUSH32 0x0 JUMPDEST PUSH32 0x0 PUSH32 0x0 PUSH1 0x2 SIGNEXTEND DUP3 PUSH1 0x2 SIGNEXTEND DUP2 PUSH2 0x977 JUMPI INVALID JUMPDEST SDIV MUL SWAP1 POP DUP1 PUSH1 0x2 SIGNEXTEND PUSH1 0x0 EQ ISZERO PUSH2 0x9AA JUMPI POP PUSH32 0x0 JUMPDEST DUP1 DUP5 SUB DUP5 DUP3 ADD PUSH2 0x9DA DUP3 PUSH32 0x0 PUSH2 0xF64 JUMP JUMPDEST SWAP5 POP PUSH2 0xA06 DUP2 PUSH32 0x0 PUSH2 0xF64 JUMP JUMPDEST SWAP4 POP PUSH32 0x0 PUSH1 0x2 SIGNEXTEND DUP2 PUSH1 0x2 SIGNEXTEND DUP2 PUSH2 0xA37 JUMPI INVALID JUMPDEST SMOD PUSH1 0x2 SIGNEXTEND ISZERO PUSH2 0xA66 JUMPI PUSH32 0x0 DUP5 ADD SWAP4 POP JUMPDEST DUP4 PUSH1 0x2 SIGNEXTEND DUP6 PUSH1 0x2 SIGNEXTEND SLT PUSH2 0xA99 JUMPI PUSH32 0x0 DUP6 ADD SWAP4 POP JUMPDEST PUSH3 0xD89E7 NOT PUSH1 0x2 DUP7 SWAP1 SIGNEXTEND SLT PUSH2 0xAAE JUMPI DUP5 PUSH2 0xADC JUMP JUMPDEST PUSH2 0xADC PUSH3 0xD89E7 NOT PUSH32 0x0 PUSH2 0xF64 JUMP JUMPDEST SWAP5 POP PUSH3 0xD89E8 PUSH1 0x2 DUP6 SWAP1 SIGNEXTEND SGT PUSH2 0xAF2 JUMPI DUP4 PUSH2 0xB1F JUMP JUMPDEST PUSH2 0xB1F PUSH3 0xD89E8 PUSH32 0x0 PUSH2 0xF64 JUMP JUMPDEST SWAP4 POP DUP4 PUSH1 0x2 SIGNEXTEND DUP6 PUSH1 0x2 SIGNEXTEND SLT PUSH2 0xBB7 JUMPI PUSH32 0x0 DUP6 ADD SWAP4 POP PUSH3 0xD89E8 PUSH1 0x2 DUP6 SWAP1 SIGNEXTEND SGT ISZERO PUSH2 0xBB7 JUMPI PUSH2 0xB8F PUSH3 0xD89E8 PUSH32 0x0 PUSH2 0xF64 JUMP JUMPDEST SWAP4 POP PUSH32 0x0 DUP5 SUB SWAP5 POP JUMPDEST POP POP POP SWAP2 POP SWAP2 JUMP JUMPDEST PUSH1 0x4 SLOAD PUSH1 0x0 SWAP1 DUP2 SWAP1 PUSH1 0x2 SWAP1 PUSH3 0xFFFFFF AND PUSH32 0x0 MUL DUP2 SIGNEXTEND SDIV SWAP1 POP DUP1 PUSH1 0x2 SIGNEXTEND PUSH2 0xC05 DUP6 DUP9 SUB PUSH2 0xFD3 JUMP JUMPDEST PUSH1 0x2 SIGNEXTEND SLT DUP1 ISZERO PUSH2 0xC24 JUMPI POP DUP1 PUSH1 0x2 SIGNEXTEND PUSH2 0xC1F DUP5 DUP8 SUB PUSH2 0xFD3 JUMP JUMPDEST PUSH1 0x2 SIGNEXTEND SLT JUMPDEST SWAP7 SWAP6 POP POP POP POP POP POP JUMP JUMPDEST PUSH1 0x3 SLOAD PUSH1 0x0 SWAP1 PUSH1 0x1 PUSH1 0xB0 SHL SWAP1 DIV PUSH1 0xFF AND PUSH2 0xC49 JUMPI PUSH1 0x0 PUSH2 0xC56 JUMP JUMPDEST PUSH1 0x3 SLOAD PUSH1 0x1 PUSH1 0x1 PUSH1 0x80 SHL SUB AND JUMPDEST SWAP1 POP PUSH32 0x77C6E194647F0870898D23DBB98931E18BF928C62286CC93DD9517C78F8F5AB0 DUP6 DUP6 DUP6 DUP5 DUP7 PUSH1 0x40 MLOAD PUSH2 0xC8F SWAP6 SWAP5 SWAP4 SWAP3 SWAP2 SWAP1 PUSH2 0x1ACD JUMP JUMPDEST PUSH1 0x40 MLOAD DUP1 SWAP2 SUB SWAP1 LOG1 POP POP POP POP POP JUMP JUMPDEST PUSH1 0x3 SLOAD PUSH1 0x0 SWAP1 PUSH1 0x1 PUSH1 0xB0 SHL SWAP1 DIV PUSH1 0xFF AND ISZERO DUP1 PUSH2 0xCCC JUMPI POP PUSH1 0x3 SLOAD PUSH1 0x2 DUP5 DUP2 SIGNEXTEND PUSH1 0x1 PUSH1 0x80 SHL SWAP1 SWAP3 DIV DUP2 SIGNEXTEND SWAP1 SIGNEXTEND EQ ISZERO JUMPDEST DUP1 PUSH2 0xCE9 JUMPI POP PUSH1 0x3 SLOAD PUSH1 0x2 DUP4 DUP2 SIGNEXTEND PUSH1 0x1 PUSH1 0x98 SHL SWAP1 SWAP3 DIV DUP2 SIGNEXTEND SWAP1 SIGNEXTEND EQ ISZERO JUMPDEST ISZERO PUSH2 0xD00 JUMPI PUSH2 0xCF8 DUP4 DUP4 PUSH2 0xFED JUMP JUMPDEST POP PUSH1 0x1 PUSH2 0xD04 JUMP JUMPDEST POP PUSH1 0x0 JUMPDEST SWAP3 SWAP2 POP POP JUMP JUMPDEST PUSH1 0x40 DUP1 MLOAD PUSH1 0x1 PUSH1 0x1 PUSH1 0xA0 SHL SUB DUP5 AND PUSH1 0x24 DUP3 ADD MSTORE PUSH1 0x44 DUP1 DUP3 ADD DUP5 SWAP1 MSTORE DUP3 MLOAD DUP1 DUP4 SUB SWAP1 SWAP2 ADD DUP2 MSTORE PUSH1 0x64 SWAP1 SWAP2 ADD SWAP1 SWAP2 MSTORE PUSH1 0x20 DUP2 ADD DUP1 MLOAD PUSH1 0x1 PUSH1 0x1 PUSH1 0xE0 SHL SUB AND PUSH4 0xA9059CBB PUSH1 0xE0 SHL OR SWAP1 MSTORE PUSH2 0x85C SWAP1 DUP5 SWAP1 JUMPDEST PUSH1 0x0 PUSH2 0xDAD DUP3 PUSH1 0x40 MLOAD DUP1 PUSH1 0x40 ADD PUSH1 0x40 MSTORE DUP1 PUSH1 0x20 DUP2 MSTORE PUSH1 0x20 ADD PUSH32 0x5361666545524332303A206C6F772D6C6576656C2063616C6C206661696C6564 DUP2 MSTORE POP DUP6 PUSH1 0x1 PUSH1 0x1 PUSH1 0xA0 SHL SUB AND PUSH2 0x861 SWAP1 SWAP3 SWAP2 SWAP1 PUSH4 0xFFFFFFFF AND JUMP JUMPDEST DUP1 MLOAD SWAP1 SWAP2 POP ISZERO PUSH2 0x85C JUMPI DUP1 DUP1 PUSH1 0x20 ADD SWAP1 MLOAD PUSH1 0x20 DUP2 LT ISZERO PUSH2 0xDCC JUMPI PUSH1 0x0 DUP1 REVERT JUMPDEST POP MLOAD PUSH2 0x85C JUMPI PUSH1 0x40 MLOAD PUSH3 0x461BCD PUSH1 0xE5 SHL DUP2 MSTORE PUSH1 0x4 ADD DUP1 DUP1 PUSH1 0x20 ADD DUP3 DUP2 SUB DUP3 MSTORE PUSH1 0x2A DUP2 MSTORE PUSH1 0x20 ADD DUP1 PUSH2 0x1E82 PUSH1 0x2A SWAP2 CODECOPY PUSH1 0x40 ADD SWAP2 POP POP PUSH1 0x40 MLOAD DUP1 SWAP2 SUB SWAP1 REVERT JUMPDEST PUSH1 0x60 DUP3 SELFBALANCE LT ISZERO PUSH2 0xE4A JUMPI PUSH1 0x40 MLOAD PUSH3 0x461BCD PUSH1 0xE5 SHL DUP2 MSTORE PUSH1 0x4 ADD DUP1 DUP1 PUSH1 0x20 ADD DUP3 DUP2 SUB DUP3 MSTORE PUSH1 0x26 DUP2 MSTORE PUSH1 0x20 ADD DUP1 PUSH2 0x1E5C PUSH1 0x26 SWAP2 CODECOPY PUSH1 0x40 ADD SWAP2 POP POP PUSH1 0x40 MLOAD DUP1 SWAP2 SUB SWAP1 REVERT JUMPDEST PUSH2 0xE53 DUP6 PUSH2 0x11AF JUMP JUMPDEST PUSH2 0xEA4 JUMPI PUSH1 0x40 DUP1 MLOAD PUSH3 0x461BCD PUSH1 0xE5 SHL DUP2 MSTORE PUSH1 0x20 PUSH1 0x4 DUP3 ADD MSTORE PUSH1 0x1D PUSH1 0x24 DUP3 ADD MSTORE PUSH32 0x416464726573733A2063616C6C20746F206E6F6E2D636F6E7472616374000000 PUSH1 0x44 DUP3 ADD MSTORE SWAP1 MLOAD SWAP1 DUP2 SWAP1 SUB PUSH1 0x64 ADD SWAP1 REVERT JUMPDEST PUSH1 0x0 DUP1 DUP7 PUSH1 0x1 PUSH1 0x1 PUSH1 0xA0 SHL SUB AND DUP6 DUP8 PUSH1 0x40 MLOAD DUP1 DUP3 DUP1 MLOAD SWAP1 PUSH1 0x20 ADD SWAP1 DUP1 DUP4 DUP4 JUMPDEST PUSH1 0x20 DUP4 LT PUSH2 0xEE2 JUMPI DUP1 MLOAD DUP3 MSTORE PUSH1 0x1F NOT SWAP1 SWAP3 ADD SWAP2 PUSH1 0x20 SWAP2 DUP3 ADD SWAP2 ADD PUSH2 0xEC3 JUMP JUMPDEST PUSH1 0x1 DUP4 PUSH1 0x20 SUB PUSH2 0x100 EXP SUB DUP1 NOT DUP3 MLOAD AND DUP2 DUP5 MLOAD AND DUP1 DUP3 OR DUP6 MSTORE POP POP POP POP POP POP SWAP1 POP ADD SWAP2 POP POP PUSH1 0x0 PUSH1 0x40 MLOAD DUP1 DUP4 SUB DUP2 DUP6 DUP8 GAS CALL SWAP3 POP POP POP RETURNDATASIZE DUP1 PUSH1 0x0 DUP2 EQ PUSH2 0xF44 JUMPI PUSH1 0x40 MLOAD SWAP2 POP PUSH1 0x1F NOT PUSH1 0x3F RETURNDATASIZE ADD AND DUP3 ADD PUSH1 0x40 MSTORE RETURNDATASIZE DUP3 MSTORE RETURNDATASIZE PUSH1 0x0 PUSH1 0x20 DUP5 ADD RETURNDATACOPY PUSH2 0xF49 JUMP JUMPDEST PUSH1 0x60 SWAP2 POP JUMPDEST POP SWAP2 POP SWAP2 POP PUSH2 0xF59 DUP3 DUP3 DUP7 PUSH2 0x11B5 JUMP JUMPDEST SWAP8 SWAP7 POP POP POP POP POP POP POP JUMP JUMPDEST PUSH1 0x0 DUP1 DUP3 PUSH1 0x2 SIGNEXTEND SGT PUSH2 0xF88 JUMPI PUSH1 0x40 MLOAD PUSH3 0x461BCD PUSH1 0xE5 SHL DUP2 MSTORE PUSH1 0x4 ADD PUSH2 0x559 SWAP1 PUSH2 0x1C1B JUMP JUMPDEST PUSH1 0x0 DUP3 PUSH1 0x2 SIGNEXTEND DUP5 PUSH1 0x2 SIGNEXTEND DUP2 PUSH2 0xF99 JUMPI INVALID JUMPDEST SDIV SWAP1 POP PUSH1 0x0 DUP5 PUSH1 0x2 SIGNEXTEND SLT DUP1 ISZERO PUSH2 0xFC0 JUMPI POP DUP3 PUSH1 0x2 SIGNEXTEND DUP5 PUSH1 0x2 SIGNEXTEND DUP2 PUSH2 0xFB9 JUMPI INVALID JUMPDEST SMOD PUSH1 0x2 SIGNEXTEND ISZERO ISZERO JUMPDEST ISZERO PUSH2 0xFCA JUMPI PUSH1 0x0 NOT ADD JUMPDEST SWAP1 SWAP2 MUL SWAP3 SWAP2 POP POP JUMP JUMPDEST PUSH1 0x0 DUP1 DUP3 PUSH1 0x2 SIGNEXTEND SLT ISZERO PUSH2 0xFE9 JUMPI DUP2 PUSH1 0x0 SUB PUSH2 0xD04 JUMP JUMPDEST POP SWAP1 JUMP JUMPDEST PUSH1 0x3 SLOAD PUSH1 0x1 PUSH1 0xB0 SHL SWAP1 DIV PUSH1 0xFF AND ISZERO PUSH2 0x1007 JUMPI PUSH2 0x1007 PUSH2 0x1259 JUMP JUMPDEST PUSH1 0x40 MLOAD PUSH4 0x70A08231 PUSH1 0xE0 SHL DUP2 MSTORE PUSH1 0x0 SWAP1 PUSH1 0x1 PUSH1 0x1 PUSH1 0xA0 SHL SUB PUSH32 0x0 AND SWAP1 PUSH4 0x70A08231 SWAP1 PUSH2 0x1056 SWAP1 ADDRESS SWAP1 PUSH1 0x4 ADD PUSH2 0x1AAB JUMP JUMPDEST PUSH1 0x20 PUSH1 0x40 MLOAD DUP1 DUP4 SUB DUP2 DUP7 DUP1 EXTCODESIZE ISZERO DUP1 ISZERO PUSH2 0x106E JUMPI PUSH1 0x0 DUP1 REVERT JUMPDEST POP GAS STATICCALL ISZERO DUP1 ISZERO PUSH2 0x1082 JUMPI RETURNDATASIZE PUSH1 0x0 DUP1 RETURNDATACOPY RETURNDATASIZE PUSH1 0x0 REVERT JUMPDEST POP POP POP POP PUSH1 0x40 MLOAD RETURNDATASIZE PUSH1 0x1F NOT PUSH1 0x1F DUP3 ADD AND DUP3 ADD DUP1 PUSH1 0x40 MSTORE POP DUP2 ADD SWAP1 PUSH2 0x10A6 SWAP2 SWAP1 PUSH2 0x1990 JUMP JUMPDEST SWAP1 POP PUSH1 0x0 PUSH32 0x0 PUSH1 0x1 PUSH1 0x1 PUSH1 0xA0 SHL SUB AND PUSH4 0x70A08231 ADDRESS PUSH1 0x40 MLOAD DUP3 PUSH4 0xFFFFFFFF AND PUSH1 0xE0 SHL DUP2 MSTORE PUSH1 0x4 ADD PUSH2 0x10F6 SWAP2 SWAP1 PUSH2 0x1AAB JUMP JUMPDEST PUSH1 0x20 PUSH1 0x40 MLOAD DUP1 DUP4 SUB DUP2 DUP7 DUP1 EXTCODESIZE ISZERO DUP1 ISZERO PUSH2 0x110E JUMPI PUSH1 0x0 DUP1 REVERT JUMPDEST POP GAS STATICCALL ISZERO DUP1 ISZERO PUSH2 0x1122 JUMPI RETURNDATASIZE PUSH1 0x0 DUP1 RETURNDATACOPY RETURNDATASIZE PUSH1 0x0 REVERT JUMPDEST POP POP POP POP PUSH1 0x40 MLOAD RETURNDATASIZE PUSH1 0x1F NOT PUSH1 0x1F DUP3 ADD AND DUP3 ADD DUP1 PUSH1 0x40 MSTORE POP DUP2 ADD SWAP1 PUSH2 0x1146 SWAP2 SWAP1 PUSH2 0x1990 JUMP JUMPDEST SWAP1 POP PUSH1 0x0 DUP3 GT DUP1 PUSH2 0x1157 JUMPI POP PUSH1 0x0 DUP2 GT JUMPDEST ISZERO PUSH2 0x116D JUMPI PUSH2 0x1168 DUP5 DUP5 DUP5 DUP5 PUSH2 0x157F JUMP JUMPDEST PUSH2 0x5D6 JUMP JUMPDEST PUSH1 0x40 DUP1 MLOAD PUSH1 0xA0 DUP2 ADD DUP3 MSTORE PUSH1 0x0 DUP1 DUP3 MSTORE PUSH1 0x20 DUP3 ADD DUP2 SWAP1 MSTORE SWAP2 DUP2 ADD DUP3 SWAP1 MSTORE PUSH1 0x60 DUP2 ADD DUP3 SWAP1 MSTORE PUSH1 0x80 ADD DUP2 SWAP1 MSTORE PUSH1 0x2 SSTORE PUSH1 0x3 DUP1 SLOAD PUSH1 0x1 PUSH1 0x1 PUSH1 0xB8 SHL SUB NOT AND SWAP1 SSTORE POP POP POP POP JUMP JUMPDEST EXTCODESIZE ISZERO ISZERO SWAP1 JUMP JUMPDEST PUSH1 0x60 DUP4 ISZERO PUSH2 0x11C4 JUMPI POP DUP2 PUSH2 0x873 JUMP JUMPDEST DUP3 MLOAD ISZERO PUSH2 0x11D4 JUMPI DUP3 MLOAD DUP1 DUP5 PUSH1 0x20 ADD REVERT JUMPDEST DUP2 PUSH1 0x40 MLOAD PUSH3 0x461BCD PUSH1 0xE5 SHL DUP2 MSTORE PUSH1 0x4 ADD DUP1 DUP1 PUSH1 0x20 ADD DUP3 DUP2 SUB DUP3 MSTORE DUP4 DUP2 DUP2 MLOAD DUP2 MSTORE PUSH1 0x20 ADD SWAP2 POP DUP1 MLOAD SWAP1 PUSH1 0x20 ADD SWAP1 DUP1 DUP4 DUP4 PUSH1 0x0 JUMPDEST DUP4 DUP2 LT ISZERO PUSH2 0x121E JUMPI DUP2 DUP2 ADD MLOAD DUP4 DUP3 ADD MSTORE PUSH1 0x20 ADD PUSH2 0x1206 JUMP JUMPDEST POP POP POP POP SWAP1 POP SWAP1 DUP2 ADD SWAP1 PUSH1 0x1F AND DUP1 ISZERO PUSH2 0x124B JUMPI DUP1 DUP3 SUB DUP1 MLOAD PUSH1 0x1 DUP4 PUSH1 0x20 SUB PUSH2 0x100 EXP SUB NOT AND DUP2 MSTORE PUSH1 0x20 ADD SWAP2 POP JUMPDEST POP SWAP3 POP POP POP PUSH1 0x40 MLOAD DUP1 SWAP2 SUB SWAP1 REVERT JUMPDEST PUSH1 0x3 SLOAD PUSH1 0x1 PUSH1 0xB0 SHL SWAP1 DIV PUSH1 0xFF AND DUP1 ISZERO PUSH2 0x1273 JUMPI POP PUSH1 0x2 SLOAD ISZERO ISZERO JUMPDEST PUSH2 0x128F JUMPI PUSH1 0x40 MLOAD PUSH3 0x461BCD PUSH1 0xE5 SHL DUP2 MSTORE PUSH1 0x4 ADD PUSH2 0x559 SWAP1 PUSH2 0x1B69 JUMP JUMPDEST PUSH1 0x2 DUP1 SLOAD PUSH1 0x3 DUP1 SLOAD PUSH1 0x40 DUP1 MLOAD PUSH1 0xA0 DUP2 ADD DUP3 MSTORE PUSH1 0x0 DUP1 DUP3 MSTORE PUSH1 0x20 DUP3 ADD DUP2 SWAP1 MSTORE SWAP2 DUP2 ADD DUP3 SWAP1 MSTORE PUSH1 0x60 DUP2 ADD DUP3 SWAP1 MSTORE PUSH1 0x80 ADD DUP2 SWAP1 MSTORE DUP1 DUP6 SSTORE PUSH1 0x1 PUSH1 0x1 PUSH1 0xB8 SHL SUB NOT DUP3 AND SWAP1 SWAP3 SSTORE SWAP2 SWAP3 PUSH1 0x1 PUSH1 0x1 PUSH1 0x80 SHL SUB DUP4 AND SWAP3 PUSH1 0x1 PUSH1 0x80 SHL DUP2 DIV DUP3 SIGNEXTEND SWAP3 PUSH1 0x1 PUSH1 0x98 SHL SWAP1 SWAP2 DIV SWAP1 SWAP2 SIGNEXTEND SWAP1 DUP1 DUP1 DUP1 DUP7 ISZERO PUSH2 0x13D4 JUMPI PUSH1 0x40 DUP1 MLOAD PUSH1 0xA0 DUP2 ADD DUP3 MSTORE DUP10 DUP2 MSTORE PUSH1 0x1 PUSH1 0x1 PUSH1 0x80 SHL SUB DUP10 AND PUSH1 0x20 DUP3 ADD MSTORE PUSH1 0x0 DUP2 DUP4 ADD DUP2 SWAP1 MSTORE PUSH1 0x60 DUP3 ADD MSTORE TIMESTAMP PUSH1 0x80 DUP3 ADD MSTORE SWAP1 MLOAD PUSH4 0x624E65F PUSH1 0xE1 SHL DUP2 MSTORE PUSH1 0x1 PUSH1 0x1 PUSH1 0xA0 SHL SUB PUSH32 0x0 AND SWAP2 PUSH4 0xC49CCBE SWAP2 PUSH2 0x1376 SWAP2 SWAP1 PUSH1 0x4 ADD PUSH2 0x1CEB JUMP JUMPDEST PUSH1 0x40 DUP1 MLOAD DUP1 DUP4 SUB DUP2 PUSH1 0x0 DUP8 DUP1 EXTCODESIZE ISZERO DUP1 ISZERO PUSH2 0x138F JUMPI PUSH1 0x0 DUP1 REVERT JUMPDEST POP GAS CALL SWAP3 POP POP POP DUP1 ISZERO PUSH2 0x13BF JUMPI POP PUSH1 0x40 DUP1 MLOAD PUSH1 0x1F RETURNDATASIZE SWAP1 DUP2 ADD PUSH1 0x1F NOT AND DUP3 ADD SWAP1 SWAP3 MSTORE PUSH2 0x13BC SWAP2 DUP2 ADD SWAP1 PUSH2 0x19F0 JUMP JUMPDEST PUSH1 0x1 JUMPDEST PUSH2 0x13C8 JUMPI PUSH2 0x13CF JUMP JUMPDEST POP POP PUSH1 0x1 SWAP4 POP JUMPDEST PUSH2 0x13D9 JUMP JUMPDEST PUSH1 0x1 SWAP4 POP JUMPDEST DUP4 ISZERO PUSH2 0x1524 JUMPI PUSH1 0x40 DUP1 MLOAD PUSH1 0x80 DUP2 ADD DUP3 MSTORE DUP10 DUP2 MSTORE ADDRESS PUSH1 0x20 DUP3 ADD MSTORE PUSH1 0x1 PUSH1 0x1 PUSH1 0x80 SHL SUB DUP2 DUP4 ADD DUP2 SWAP1 MSTORE PUSH1 0x60 DUP3 ADD MSTORE SWAP1 MLOAD PUSH4 0xFC6F7865 PUSH1 0xE0 SHL DUP2 MSTORE PUSH1 0x1 PUSH1 0x1 PUSH1 0xA0 SHL SUB PUSH32 0x0 AND SWAP2 PUSH4 0xFC6F7865 SWAP2 PUSH2 0x144F SWAP2 SWAP1 PUSH1 0x4 ADD PUSH2 0x1CA8 JUMP JUMPDEST PUSH1 0x40 DUP1 MLOAD DUP1 DUP4 SUB DUP2 PUSH1 0x0 DUP8 DUP1 EXTCODESIZE ISZERO DUP1 ISZERO PUSH2 0x1468 JUMPI PUSH1 0x0 DUP1 REVERT JUMPDEST POP GAS CALL SWAP3 POP POP POP DUP1 ISZERO PUSH2 0x1498 JUMPI POP PUSH1 0x40 DUP1 MLOAD PUSH1 0x1F RETURNDATASIZE SWAP1 DUP2 ADD PUSH1 0x1F NOT AND DUP3 ADD SWAP1 SWAP3 MSTORE PUSH2 0x1495 SWAP2 DUP2 ADD SWAP1 PUSH2 0x19F0 JUMP JUMPDEST PUSH1 0x1 JUMPDEST PUSH2 0x14A1 JUMPI PUSH2 0x14AB JUMP JUMPDEST PUSH1 0x1 SWAP5 POP SWAP1 SWAP3 POP SWAP1 POP JUMPDEST PUSH1 0x40 MLOAD PUSH4 0x852CD8D PUSH1 0xE3 SHL DUP2 MSTORE PUSH1 0x1 PUSH1 0x1 PUSH1 0xA0 SHL SUB PUSH32 0x0 AND SWAP1 PUSH4 0x42966C68 SWAP1 PUSH2 0x14F7 SWAP1 DUP12 SWAP1 PUSH1 0x4 ADD PUSH2 0x1DEC JUMP JUMPDEST PUSH1 0x0 PUSH1 0x40 MLOAD DUP1 DUP4 SUB DUP2 PUSH1 0x0 DUP8 DUP1 EXTCODESIZE ISZERO DUP1 ISZERO PUSH2 0x1511 JUMPI PUSH1 0x0 DUP1 REVERT JUMPDEST POP GAS CALL SWAP3 POP POP POP DUP1 ISZERO PUSH2 0x1522 JUMPI POP PUSH1 0x1 JUMPDEST POP JUMPDEST PUSH1 0x0 DUP5 DUP1 ISZERO PUSH2 0x1530 JUMPI POP DUP4 JUMPDEST SWAP1 POP DUP9 PUSH32 0xDEE9C9AC7E4F2757956DFCF228DC427442EC0A77C0020754A5D9C3B2583D9A14 DUP9 DUP9 DUP12 DUP8 DUP8 DUP8 PUSH1 0x40 MLOAD PUSH2 0x156C SWAP7 SWAP6 SWAP5 SWAP4 SWAP3 SWAP2 SWAP1 PUSH2 0x1B95 JUMP JUMPDEST PUSH1 0x40 MLOAD DUP1 SWAP2 SUB SWAP1 LOG2 POP POP POP POP POP POP POP POP POP JUMP JUMPDEST PUSH1 0x3 SLOAD PUSH1 0x1 PUSH1 0xB0 SHL SWAP1 DIV PUSH1 0xFF AND ISZERO PUSH2 0x15A9 JUMPI PUSH1 0x40 MLOAD PUSH3 0x461BCD PUSH1 0xE5 SHL DUP2 MSTORE PUSH1 0x4 ADD PUSH2 0x559 SWAP1 PUSH2 0x1B32 JUMP JUMPDEST PUSH1 0x0 PUSH1 0x40 MLOAD DUP1 PUSH2 0x160 ADD PUSH1 0x40 MSTORE DUP1 PUSH32 0x0 PUSH1 0x1 PUSH1 0x1 PUSH1 0xA0 SHL SUB AND DUP2 MSTORE PUSH1 0x20 ADD PUSH32 0x0 PUSH1 0x1 PUSH1 0x1 PUSH1 0xA0 SHL SUB AND DUP2 MSTORE PUSH1 0x20 ADD PUSH32 0x0 PUSH3 0xFFFFFF AND DUP2 MSTORE PUSH1 0x20 ADD DUP7 PUSH1 0x2 SIGNEXTEND DUP2 MSTORE PUSH1 0x20 ADD DUP6 PUSH1 0x2 SIGNEXTEND DUP2 MSTORE PUSH1 0x20 ADD DUP5 DUP2 MSTORE PUSH1 0x20 ADD DUP4 DUP2 MSTORE PUSH1 0x20 ADD PUSH1 0x0 DUP2 MSTORE PUSH1 0x20 ADD PUSH1 0x0 DUP2 MSTORE PUSH1 0x20 ADD ADDRESS PUSH1 0x1 PUSH1 0x1 PUSH1 0xA0 SHL SUB AND DUP2 MSTORE PUSH1 0x20 ADD TIMESTAMP DUP2 MSTORE POP SWAP1 POP PUSH1 0x0 DUP1 PUSH1 0x0 DUP1 PUSH1 0x0 PUSH32 0x0 PUSH1 0x1 PUSH1 0x1 PUSH1 0xA0 SHL SUB AND PUSH4 0x88316456 DUP8 PUSH1 0x40 MLOAD DUP3 PUSH4 0xFFFFFFFF AND PUSH1 0xE0 SHL DUP2 MSTORE PUSH1 0x4 ADD PUSH2 0x16D5 SWAP2 SWAP1 PUSH2 0x1D2E JUMP JUMPDEST PUSH1 0x80 PUSH1 0x40 MLOAD DUP1 DUP4 SUB DUP2 PUSH1 0x0 DUP8 DUP1 EXTCODESIZE ISZERO DUP1 ISZERO PUSH2 0x16EF JUMPI PUSH1 0x0 DUP1 REVERT JUMPDEST POP GAS CALL SWAP3 POP POP POP DUP1 ISZERO PUSH2 0x171F JUMPI POP PUSH1 0x40 DUP1 MLOAD PUSH1 0x1F RETURNDATASIZE SWAP1 DUP2 ADD PUSH1 0x1F NOT AND DUP3 ADD SWAP1 SWAP3 MSTORE PUSH2 0x171C SWAP2 DUP2 ADD SWAP1 PUSH2 0x19A8 JUMP JUMPDEST PUSH1 0x1 JUMPDEST PUSH2 0x1728 JUMPI PUSH2 0x18B8 JUMP JUMPDEST DUP4 SWAP9 POP DUP3 SWAP8 POP DUP2 SWAP7 POP DUP1 SWAP6 POP PUSH1 0x0 DUP9 PUSH1 0x1 PUSH1 0x1 PUSH1 0x80 SHL SUB AND GT ISZERO PUSH2 0x1834 JUMPI PUSH1 0x40 MLOAD DUP1 PUSH1 0xA0 ADD PUSH1 0x40 MSTORE DUP1 DUP11 DUP2 MSTORE PUSH1 0x20 ADD DUP10 PUSH1 0x1 PUSH1 0x1 PUSH1 0x80 SHL SUB AND DUP2 MSTORE PUSH1 0x20 ADD DUP16 PUSH1 0x2 SIGNEXTEND DUP2 MSTORE PUSH1 0x20 ADD DUP15 PUSH1 0x2 SIGNEXTEND DUP2 MSTORE PUSH1 0x20 ADD PUSH1 0x1 ISZERO ISZERO DUP2 MSTORE POP PUSH1 0x2 PUSH1 0x0 DUP3 ADD MLOAD DUP2 PUSH1 0x0 ADD SSTORE PUSH1 0x20 DUP3 ADD MLOAD DUP2 PUSH1 0x1 ADD PUSH1 0x0 PUSH2 0x100 EXP DUP2 SLOAD DUP2 PUSH1 0x1 PUSH1 0x1 PUSH1 0x80 SHL SUB MUL NOT AND SWAP1 DUP4 PUSH1 0x1 PUSH1 0x1 PUSH1 0x80 SHL SUB AND MUL OR SWAP1 SSTORE POP PUSH1 0x40 DUP3 ADD MLOAD DUP2 PUSH1 0x1 ADD PUSH1 0x10 PUSH2 0x100 EXP DUP2 SLOAD DUP2 PUSH3 0xFFFFFF MUL NOT AND SWAP1 DUP4 PUSH1 0x2 SIGNEXTEND PUSH3 0xFFFFFF AND MUL OR SWAP1 SSTORE POP PUSH1 0x60 DUP3 ADD MLOAD DUP2 PUSH1 0x1 ADD PUSH1 0x13 PUSH2 0x100 EXP DUP2 SLOAD DUP2 PUSH3 0xFFFFFF MUL NOT AND SWAP1 DUP4 PUSH1 0x2 SIGNEXTEND PUSH3 0xFFFFFF AND MUL OR SWAP1 SSTORE POP PUSH1 0x80 DUP3 ADD MLOAD DUP2 PUSH1 0x1 ADD PUSH1 0x16 PUSH2 0x100 EXP DUP2 SLOAD DUP2 PUSH1 0xFF MUL NOT AND SWAP1 DUP4 ISZERO ISZERO MUL OR SWAP1 SSTORE POP SWAP1 POP POP PUSH1 0x1 SWAP5 POP PUSH2 0x18B3 JUMP JUMPDEST DUP9 ISZERO PUSH2 0x18B3 JUMPI PUSH1 0x40 MLOAD PUSH4 0x852CD8D PUSH1 0xE3 SHL DUP2 MSTORE PUSH1 0x1 PUSH1 0x1 PUSH1 0xA0 SHL SUB PUSH32 0x0 AND SWAP1 PUSH4 0x42966C68 SWAP1 PUSH2 0x1886 SWAP1 DUP13 SWAP1 PUSH1 0x4 ADD PUSH2 0x1DEC JUMP JUMPDEST PUSH1 0x0 PUSH1 0x40 MLOAD DUP1 DUP4 SUB DUP2 PUSH1 0x0 DUP8 DUP1 EXTCODESIZE ISZERO DUP1 ISZERO PUSH2 0x18A0 JUMPI PUSH1 0x0 DUP1 REVERT JUMPDEST POP GAS CALL SWAP3 POP POP POP DUP1 ISZERO PUSH2 0x18B1 JUMPI POP PUSH1 0x1 JUMPDEST POP JUMPDEST POP POP POP POP JUMPDEST DUP5 PUSH32 0xDEE9C9AC7E4F2757956DFCF228DC427442EC0A77C0020754A5D9C3B2583D9A14 DUP12 DUP12 DUP8 DUP8 DUP8 DUP8 PUSH1 0x40 MLOAD PUSH2 0x18F2 SWAP7 SWAP6 SWAP5 SWAP4 SWAP3 SWAP2 SWAP1 PUSH2 0x1C52 JUMP JUMPDEST PUSH1 0x40 MLOAD DUP1 SWAP2 SUB SWAP1 LOG2 DUP1 PUSH2 0x193C JUMPI PUSH1 0x40 DUP1 MLOAD PUSH1 0xA0 DUP2 ADD DUP3 MSTORE PUSH1 0x0 DUP1 DUP3 MSTORE PUSH1 0x20 DUP3 ADD DUP2 SWAP1 MSTORE SWAP2 DUP2 ADD DUP3 SWAP1 MSTORE PUSH1 0x60 DUP2 ADD DUP3 SWAP1 MSTORE PUSH1 0x80 ADD DUP2 SWAP1 MSTORE PUSH1 0x2 SSTORE PUSH1 0x3 DUP1 SLOAD PUSH1 0x1 PUSH1 0x1 PUSH1 0xB8 SHL SUB NOT AND SWAP1 SSTORE JUMPDEST POP POP POP POP POP POP POP POP POP POP JUMP JUMPDEST PUSH1 0x0 PUSH1 0x20 DUP3 DUP5 SUB SLT ISZERO PUSH2 0x1959 JUMPI DUP1 DUP2 REVERT JUMPDEST DUP2 CALLDATALOAD PUSH1 0x1 PUSH1 0x1 PUSH1 0xA0 SHL SUB DUP2 AND DUP2 EQ PUSH2 0x873 JUMPI DUP2 DUP3 REVERT JUMPDEST PUSH1 0x0 PUSH1 0x20 DUP3 DUP5 SUB SLT ISZERO PUSH2 0x1980 JUMPI DUP1 DUP2 REVERT JUMPDEST DUP2 CALLDATALOAD DUP1 PUSH1 0x2 SIGNEXTEND DUP2 EQ PUSH2 0x873 JUMPI DUP2 DUP3 REVERT JUMPDEST PUSH1 0x0 PUSH1 0x20 DUP3 DUP5 SUB SLT ISZERO PUSH2 0x19A1 JUMPI DUP1 DUP2 REVERT JUMPDEST POP MLOAD SWAP2 SWAP1 POP JUMP JUMPDEST PUSH1 0x0 DUP1 PUSH1 0x0 DUP1 PUSH1 0x80 DUP6 DUP8 SUB SLT ISZERO PUSH2 0x19BD JUMPI DUP3 DUP4 REVERT JUMPDEST DUP5 MLOAD SWAP4 POP PUSH1 0x20 DUP6 ADD MLOAD PUSH1 0x1 PUSH1 0x1 PUSH1 0x80 SHL SUB DUP2 AND DUP2 EQ PUSH2 0x19DA JUMPI DUP4 DUP5 REVERT JUMPDEST PUSH1 0x40 DUP7 ADD MLOAD PUSH1 0x60 SWAP1 SWAP7 ADD MLOAD SWAP5 SWAP8 SWAP1 SWAP7 POP SWAP3 POP POP POP JUMP JUMPDEST PUSH1 0x0 DUP1 PUSH1 0x40 DUP4 DUP6 SUB SLT ISZERO PUSH2 0x1A02 JUMPI DUP2 DUP3 REVERT JUMPDEST POP POP DUP1 MLOAD PUSH1 0x20 SWAP1 SWAP2 ADD MLOAD SWAP1 SWAP3 SWAP1 SWAP2 POP JUMP JUMPDEST PUSH1 0x0 DUP1 PUSH1 0x0 DUP1 PUSH1 0x60 DUP6 DUP8 SUB SLT ISZERO PUSH2 0x1A28 JUMPI DUP4 DUP5 REVERT JUMPDEST DUP5 CALLDATALOAD SWAP4 POP PUSH1 0x20 DUP6 ADD CALLDATALOAD SWAP3 POP PUSH1 0x40 DUP6 ADD CALLDATALOAD PUSH8 0xFFFFFFFFFFFFFFFF DUP1 DUP3 GT ISZERO PUSH2 0x1A4D JUMPI DUP4 DUP5 REVERT JUMPDEST DUP2 DUP8 ADD SWAP2 POP DUP8 PUSH1 0x1F DUP4 ADD SLT PUSH2 0x1A60 JUMPI DUP4 DUP5 REVERT JUMPDEST DUP2 CALLDATALOAD DUP2 DUP2 GT ISZERO PUSH2 0x1A6E JUMPI DUP5 DUP6 REVERT JUMPDEST DUP9 PUSH1 0x20 DUP3 DUP6 ADD ADD GT ISZERO PUSH2 0x1A7F JUMPI DUP5 DUP6 REVERT JUMPDEST SWAP6 SWAP9 SWAP5 SWAP8 POP POP PUSH1 0x20 ADD SWAP5 POP POP POP JUMP JUMPDEST PUSH1 0x1 PUSH1 0x1 PUSH1 0xA0 SHL SUB AND SWAP1 MSTORE JUMP JUMPDEST PUSH1 0x2 SIGNEXTEND SWAP1 MSTORE JUMP JUMPDEST PUSH3 0xFFFFFF AND SWAP1 MSTORE JUMP JUMPDEST PUSH1 0x1 PUSH1 0x1 PUSH1 0xA0 SHL SUB SWAP2 SWAP1 SWAP2 AND DUP2 MSTORE PUSH1 0x20 ADD SWAP1 JUMP JUMPDEST PUSH1 0x2 SWAP2 SWAP1 SWAP2 SIGNEXTEND DUP2 MSTORE PUSH1 0x20 ADD SWAP1 JUMP JUMPDEST PUSH1 0x2 SWAP6 DUP7 SIGNEXTEND DUP2 MSTORE SWAP4 DUP6 SIGNEXTEND PUSH1 0x20 DUP6 ADD MSTORE SWAP2 SWAP1 SWAP4 SIGNEXTEND PUSH1 0x40 DUP4 ADD MSTORE PUSH1 0x1 PUSH1 0x1 PUSH1 0x80 SHL SUB SWAP1 SWAP3 AND PUSH1 0x60 DUP3 ADD MSTORE SWAP1 ISZERO ISZERO PUSH1 0x80 DUP3 ADD MSTORE PUSH1 0xA0 ADD SWAP1 JUMP JUMPDEST PUSH1 0x20 DUP1 DUP3 MSTORE PUSH1 0x15 SWAP1 DUP3 ADD MSTORE PUSH21 0x556E617574686F72697A65642063616C6C6261636B PUSH1 0x58 SHL PUSH1 0x40 DUP3 ADD MSTORE PUSH1 0x60 ADD SWAP1 JUMP JUMPDEST PUSH1 0x20 DUP1 DUP3 MSTORE PUSH1 0x17 SWAP1 DUP3 ADD MSTORE PUSH32 0x506F736974696F6E20616C726561647920616374697665000000000000000000 PUSH1 0x40 DUP3 ADD MSTORE PUSH1 0x60 ADD SWAP1 JUMP JUMPDEST PUSH1 0x20 DUP1 DUP3 MSTORE PUSH1 0x12 SWAP1 DUP3 ADD MSTORE PUSH18 0x27379030B1BA34BB32903837B9B4BA34B7B7 PUSH1 0x71 SHL PUSH1 0x40 DUP3 ADD MSTORE PUSH1 0x60 ADD SWAP1 JUMP JUMPDEST PUSH1 0xE0 DUP1 DUP3 MSTORE PUSH1 0x6 SWAP1 DUP3 ADD MSTORE PUSH6 0x52454D4F5645 PUSH1 0xD0 SHL PUSH2 0x100 DUP3 ADD MSTORE PUSH1 0x2 SWAP7 DUP8 SIGNEXTEND PUSH1 0x20 DUP3 ADD MSTORE SWAP5 SWAP1 SWAP6 SIGNEXTEND PUSH1 0x40 DUP6 ADD MSTORE PUSH1 0x1 PUSH1 0x1 PUSH1 0x80 SHL SUB SWAP3 SWAP1 SWAP3 AND PUSH1 0x60 DUP5 ADD MSTORE PUSH1 0x80 DUP4 ADD MSTORE PUSH1 0xA0 DUP3 ADD MSTORE SWAP1 ISZERO ISZERO PUSH1 0xC0 DUP3 ADD MSTORE PUSH2 0x120 ADD SWAP1 JUMP JUMPDEST PUSH1 0x20 DUP1 DUP3 MSTORE PUSH1 0x14 SWAP1 DUP3 ADD MSTORE PUSH20 0x496E76616C6964207469636B2073706163696E67 PUSH1 0x60 SHL PUSH1 0x40 DUP3 ADD MSTORE PUSH1 0x60 ADD SWAP1 JUMP JUMPDEST PUSH1 0x20 DUP1 DUP3 MSTORE PUSH1 0x1D SWAP1 DUP3 ADD MSTORE PUSH32 0x5469636B2073706163696E67206D75737420626520706F736974697665000000 PUSH1 0x40 DUP3 ADD MSTORE PUSH1 0x60 ADD SWAP1 JUMP JUMPDEST PUSH1 0xE0 DUP1 DUP3 MSTORE PUSH1 0x4 SWAP1 DUP3 ADD MSTORE PUSH4 0x13525395 PUSH1 0xE2 SHL PUSH2 0x100 DUP3 ADD MSTORE PUSH1 0x2 SWAP7 DUP8 SIGNEXTEND PUSH1 0x20 DUP3 ADD MSTORE SWAP5 SWAP1 SWAP6 SIGNEXTEND PUSH1 0x40 DUP6 ADD MSTORE PUSH1 0x1 PUSH1 0x1 PUSH1 0x80 SHL SUB SWAP3 SWAP1 SWAP3 AND PUSH1 0x60 DUP5 ADD MSTORE PUSH1 0x80 DUP4 ADD MSTORE PUSH1 0xA0 DUP3 ADD MSTORE SWAP1 ISZERO ISZERO PUSH1 0xC0 DUP3 ADD MSTORE PUSH2 0x120 ADD SWAP1 JUMP JUMPDEST DUP2 MLOAD DUP2 MSTORE PUSH1 0x20 DUP1 DUP4 ADD MLOAD PUSH1 0x1 PUSH1 0x1 PUSH1 0xA0 SHL SUB AND SWAP1 DUP3 ADD MSTORE PUSH1 0x40 DUP1 DUP4 ADD MLOAD PUSH1 0x1 PUSH1 0x1 PUSH1 0x80 SHL SUB SWAP1 DUP2 AND SWAP2 DUP4 ADD SWAP2 SWAP1 SWAP2 MSTORE PUSH1 0x60 SWAP3 DUP4 ADD MLOAD AND SWAP2 DUP2 ADD SWAP2 SWAP1 SWAP2 MSTORE PUSH1 0x80 ADD SWAP1 JUMP JUMPDEST PUSH1 0x0 PUSH1 0xA0 DUP3 ADD SWAP1 POP DUP3 MLOAD DUP3 MSTORE PUSH1 0x1 PUSH1 0x1 PUSH1 0x80 SHL SUB PUSH1 0x20 DUP5 ADD MLOAD AND PUSH1 0x20 DUP4 ADD MSTORE PUSH1 0x40 DUP4 ADD MLOAD PUSH1 0x40 DUP4 ADD MSTORE PUSH1 0x60 DUP4 ADD MLOAD PUSH1 0x60 DUP4 ADD MSTORE PUSH1 0x80 DUP4 ADD MLOAD PUSH1 0x80 DUP4 ADD MSTORE SWAP3 SWAP2 POP POP JUMP JUMPDEST PUSH1 0x0 PUSH2 0x160 DUP3 ADD SWAP1 POP PUSH2 0x1D42 DUP3 DUP5 MLOAD PUSH2 0x1A8E JUMP JUMPDEST PUSH1 0x20 DUP4 ADD MLOAD PUSH2 0x1D54 PUSH1 0x20 DUP5 ADD DUP3 PUSH2 0x1A8E JUMP JUMPDEST POP PUSH1 0x40 DUP4 ADD MLOAD PUSH2 0x1D67 PUSH1 0x40 DUP5 ADD DUP3 PUSH2 0x1AA2 JUMP JUMPDEST POP PUSH1 0x60 DUP4 ADD MLOAD PUSH2 0x1D7A PUSH1 0x60 DUP5 ADD DUP3 PUSH2 0x1A9B JUMP JUMPDEST POP PUSH1 0x80 DUP4 ADD MLOAD PUSH2 0x1D8D PUSH1 0x80 DUP5 ADD DUP3 PUSH2 0x1A9B JUMP JUMPDEST POP PUSH1 0xA0 DUP4 ADD MLOAD PUSH1 0xA0 DUP4 ADD MSTORE PUSH1 0xC0 DUP4 ADD MLOAD PUSH1 0xC0 DUP4 ADD MSTORE PUSH1 0xE0 DUP4 ADD MLOAD PUSH1 0xE0 DUP4 ADD MSTORE PUSH2 0x100 DUP1 DUP5 ADD MLOAD DUP2 DUP5 ADD MSTORE POP PUSH2 0x120 DUP1 DUP5 ADD MLOAD PUSH2 0x1DCB DUP3 DUP6 ADD DUP3 PUSH2 0x1A8E JUMP JUMPDEST POP POP PUSH2 0x140 SWAP3 DUP4 ADD MLOAD SWAP2 SWAP1 SWAP3 ADD MSTORE SWAP1 JUMP JUMPDEST PUSH3 0xFFFFFF SWAP2 SWAP1 SWAP2 AND DUP2 MSTORE PUSH1 0x20 ADD SWAP1 JUMP JUMPDEST SWAP1 DUP2 MSTORE PUSH1 0x20 ADD SWAP1 JUMP JUMPDEST SWAP5 DUP6 MSTORE PUSH1 0x1 PUSH1 0x1 PUSH1 0x80 SHL SUB SWAP4 SWAP1 SWAP4 AND PUSH1 0x20 DUP6 ADD MSTORE PUSH1 0x2 SWAP2 DUP3 SIGNEXTEND PUSH1 0x40 DUP6 ADD MSTORE SWAP1 SIGNEXTEND PUSH1 0x60 DUP4 ADD MSTORE ISZERO ISZERO PUSH1 0x80 DUP3 ADD MSTORE PUSH1 0xA0 ADD SWAP1 JUMP JUMPDEST PUSH1 0xFF SWAP2 SWAP1 SWAP2 AND DUP2 MSTORE PUSH1 0x20 ADD SWAP1 JUMP INVALID 0x4F PUSH24 0x6E61626C653A206E6577206F776E65722069732074686520 PUSH27 0x65726F2061646472657373416464726573733A20696E7375666669 PUSH4 0x69656E74 KECCAK256 PUSH3 0x616C61 PUSH15 0x636520666F722063616C6C53616665 GASLIMIT MSTORE NUMBER ORIGIN ADDRESS GASPRICE KECCAK256 GASLIMIT MSTORE NUMBER ORIGIN ADDRESS KECCAK256 PUSH16 0x7065726174696F6E20646964206E6F74 KECCAK256 PUSH20 0x7563636565645361666545524332303A20617070 PUSH19 0x6F76652066726F6D206E6F6E2D7A65726F2074 PUSH16 0x206E6F6E2D7A65726F20616C6C6F7761 PUSH15 0x6365A2646970667358221220793ED1 SMOD 0xA5 0xD6 0xAB LOG4 0x28 DUP2 PUSH4 0x70290443 PUSH14 0x56B2C868DDA4CD1AAC0C978CAAF8 PUSH17 0xF164736F6C634300070600334F776E6162 PUSH13 0x653A206E6577206F776E657220 PUSH10 0x7320746865207A65726F KECCAK256 PUSH2 0x6464 PUSH19 0x657373416464726573733A20696E7375666669 PUSH4 0x69656E74 KECCAK256 PUSH3 0x616C61 PUSH15 0x636520666F722063616C6C8BE0079C MSTORE8 AND MSIZE EQ SGT DIFFICULTY 0xCD 0x1F 0xD0 LOG4 CALLCODE DUP5 NOT 0x49 PUSH32 0x9722A3DAAFE3B4186F6B6457E05361666545524332303A204552433230206F70 PUSH6 0x726174696F6E KECCAK256 PUSH5 0x6964206E6F PUSH21 0x20737563636565645361666545524332303A206170 PUSH17 0x726F76652066726F6D206E6F6E2D7A6572 PUSH16 0x20746F206E6F6E2D7A65726F20616C6C PUSH16 0x77616E63650000000000000000000000 "},"gasEstimates":{"creation":{"codeDepositCost":"1591800","executionCost":"infinite","totalCost":"infinite"},"external":{"currentPosition()":"2114","factory()":"infinite","fee()":"infinite","owner()":"1159","positionManager()":"infinite","rangeWidthMultiplier()":"1070","renounceOwnership()":"24300","tickSpacing()":"infinite","token0()":"infinite","token0Decimals()":"infinite","token1()":"infinite","token1Decimals()":"infinite","transferOwnership(address)":"infinite","uniswapV3MintCallback(uint256,uint256,bytes)":"infinite","updatePredictionAndAdjust(int24)":"infinite"},"internal":{"_abs(int24)":"76","_adjustLiquidity(int24,int24)":"infinite","_calculateTicks(int24)":"infinite","_emitPredictionMetrics(int24,int24,int24,bool)":"infinite","_isTickRangeClose(int24,int24,int24,int24)":"infinite","_mintLiquidity(int24,int24,uint256,uint256)":"infinite","_removeLiquidity()":"infinite","_updatePositionIfNeeded(int24,int24)":"infinite","floorToTickSpacing(int24,int24)":"infinite"}},"methodIdentifiers":{"currentPosition()":"d534d636","factory()":"c45a0155","fee()":"ddca3f43","owner()":"8da5cb5b","positionManager()":"791b98bc","rangeWidthMultiplier()":"01d31e7c","renounceOwnership()":"715018a6","tickSpacing()":"d0c93a7c","token0()":"0dfe1681","token0Decimals()":"b31ac6e2","token1()":"d21220a7","token1Decimals()":"0b77884d","transferOwnership(address)":"f2fde38b","uniswapV3MintCallback(uint256,uint256,bytes)":"d3487997","updatePredictionAndAdjust(int24)":"1aa1855c"}},"storageLayout":{"storage":[{"astId":7,"contract":"contracts/PredictiveLiquidityManager.sol:PredictiveLiquidityManager","label":"_owner","offset":0,"slot":"0","type":"t_address"},{"astId":1271,"contract":"contracts/PredictiveLiquidityManager.sol:PredictiveLiquidityManager","label":"_status","offset":0,"slot":"1","type":"t_uint256"},{"astId":4003,"contract":"contracts/PredictiveLiquidityManager.sol:PredictiveLiquidityManager","label":"currentPosition","offset":0,"slot":"2","type":"t_struct(Position)4001_storage"},{"astId":4006,"contract":"contracts/PredictiveLiquidityManager.sol:PredictiveLiquidityManager","label":"rangeWidthMultiplier","offset":0,"slot":"4","type":"t_uint24"}],"types":{"t_address":{"encoding":"inplace","label":"address","numberOfBytes":"20"},"t_bool":{"encoding":"inplace","label":"bool","numberOfBytes":"1"},"t_int24":{"encoding":"inplace","label":"int24","numberOfBytes":"3"},"t_struct(Position)4001_storage":{"encoding":"inplace","label":"struct PredictiveLiquidityManager.Position","members":[{"astId":3992,"contract":"contracts/PredictiveLiquidityManager.sol:PredictiveLiquidityManager","label":"tokenId","offset":0,"slot":"0","type":"t_uint256"},{"astId":3994,"contract":"contracts/PredictiveLiquidityManager.sol:PredictiveLiquidityManager","label":"liquidity","offset":0,"slot":"1","type":"t_uint128"},{"astId":3996,"contract":"contracts/PredictiveLiquidityManager.sol:PredictiveLiquidityManager","label":"tickLower","offset":16,"slot":"1","type":"t_int24"},{"astId":3998,"contract":"contracts/PredictiveLiquidityManager.sol:PredictiveLiquidityManager","label":"tickUpper","offset":19,"slot":"1","type":"t_int24"},{"astId":4000,"contract":"contracts/PredictiveLiquidityManager.sol:PredictiveLiquidityManager","label":"active","offset":22,"slot":"1","type":"t_bool"}],"numberOfBytes":"64"},"t_uint128":{"encoding":"inplace","label":"uint128","numberOfBytes":"16"},"t_uint24":{"encoding":"inplace","label":"uint24","numberOfBytes":"3"},"t_uint256":{"encoding":"inplace","label":"uint256","numberOfBytes":"32"}}},"userdoc":{"kind":"user","methods":{"uniswapV3MintCallback(uint256,uint256,bytes)":{"notice":"Called to `msg.sender` after minting liquidity to a position from IUniswapV3Pool#mint."}},"notice":"The main liquidity management contract that adjusts positions based on price predictions","version":1}}}}